:100000000C9489000C94A6000C94A6000C94A600F5
:100010000C94A6000C94A6000C94A6000C94A600C8
:100020000C94A6000C94A6000C94A6000C94A600B8
:100030000C94A6000C94A6000C94A6000C94A600A8
:100040000C94A6000C94A6000C94A6000C94A60098
:100050000C94A6000A02EC011E02280214023202CD
:10006000EC01EC01EC01EC01EC01EC01EC01EC0128
:10007000EC01EC01EC01EC01EC01EC01EC01EC0118
:10008000EC01EC010002EC01EC01EC01EC01EC01F3
:10009000EC01EC010F02EC0123022D0219023702E0
:1000A000EC01EC01EC01EC01EC01EC01EC01EC01E8
:1000B000EC01EC01EC01EC01EC01EC01EC01EC01D8
:1000C000EC01EC01050278028E02A402BA02D00211
:1000D000E602610261026102610261026102610283
:1000E000610261026102FC02010306030B031003BB
:1000F0001503610261026102610261026102610233
:100100006102610261021B03200325032A032F03FE
:10011000340311241FBECFE5D8E0DEBFCDBF10E011
:10012000A0E6B0E0E8E6F7E002C005900D92A03648
:10013000B107D9F720E0A0E6B0E001C01D92A136DA
:10014000B207E1F70E943C020C94B2030C94000049
:10015000813001F130F08230B1F1833009F44CC0CC
:100160000895413059F42AB381E090E002C0880F2D
:10017000991F6A95E2F7822B8ABB08952AB381E022
:1001800090E002C0880F991F6A95E2F7809582235C
:100190008ABB0895413059F427B381E090E002C052
:1001A000880F991F6A95E2F7822B87BB089527B3C2
:1001B00081E090E002C0880F991F6A95E2F7809570
:1001C000822387BB0895413059F424B381E090E045
:1001D00002C0880F991F6A95E2F7822B84BB0895AD
:1001E00024B381E090E002C0880F991F6A95E2F77E
:1001F0008095822384BB0895413059F421B381E076
:1002000090E002C0880F991F6A95E2F7822B81BBAC
:10021000089521B381E090E002C0880F991F6A958C
:10022000E2F78095822381BB0895813001F130F09F
:100230008230B1F1833009F44CC00895413059F453
:100240002BB381E090E002C0880F991F6A95E2F716
:10025000822B8BBB08952BB381E090E002C0880F06
:10026000991F6A95E2F7809582238BBB08954130F0
:1002700059F428B381E090E002C0880F991F6A9575
:10028000E2F7822B88BB089528B381E090E002C09A
:10029000880F991F6A95E2F78095822388BB08959D
:1002A000413059F425B381E090E002C0880F991FD6
:1002B0006A95E2F7822B85BB089525B381E090E033
:1002C00002C0880F991F6A95E2F78095822385BB4B
:1002D0000895413059F422B381E090E002C0880FC4
:1002E000991F6A95E2F7822B82BB089522B381E0C1
:1002F00090E002C0880F991F6A95E2F780958223EB
:1003000082BB08958130E1F030F0823071F18330AA
:1003100009F440C053C049B381E090E09C01062E2F
:1003200002C0220F331F0A94E2F7842F90E0822349
:10033000932302C0959587956A95E2F7982F3EC062
:1003400046B381E090E09C01062E02C0220F331FCD
:100350000A94E2F7842F90E08223932302C09595BC
:1003600087956A95E2F7982F29C043B381E090E022
:100370009C01062E02C0220F331F0A94E2F7842F3D
:1003800090E08223932302C0959587956A95E2F7C2
:10039000982F14C040B381E090E09C01062E02C06B
:1003A000220F331F0A94E2F7842F90E082239323D5
:1003B00002C0959587956A95E2F7982F892F089541
:1003C00041E00E94A800089541E00E9415010895AF
:1003D00040E00E94150108950E947E038093600012
:1003E0000E948603E09160008E2F90E0FC01E254B1
:1003F000F109E933F10580F7E65DFF4F0C94AC039A
:1004000060E082E00E94E401E7CF60E082E00E94C9
:10041000E801E2CF61E082E00E94E401DDCF61E02B
:1004200082E00E94E801D8CF62E082E00E94E4010D
:10043000D3CF62E082E00E94E801CECF63E082E0A9
:100440000E94E401C9CF63E082E00E94E801C4CFCA
:1004500064E082E00E94E401BFCF64E082E00E9499
:10046000E801BACF65E082E00E94E401B5CF65E023
:1004700082E00E94E801B0CF60E875E280E090E0A1
:100480000E943A0360E082E00E94E00161E082E0C5
:100490000E94E00162E082E00E94E00163E082E00D
:1004A0000E94E00164E082E00E94E00141E065E03A
:1004B00082E00E94A8000E947E03809360000E9458
:1004C0008603C13311F40E94EC010E947E038093E5
:1004D00060000E948603E09160008E2F90E0FC0196
:1004E0007197E632F10568F7ED59FF4F0C94AC03B4
:1004F00060E082E00E948201882339F060E082E0BF
:100500000E948201813021F402C0C0E001C0C1E03C
:100510008C2F0E947A030E948203D3CF61E082E095
:100520000E948201882339F061E082E00E9482010A
:10053000813021F402C0C0E001C0C1E08C2F0E94D4
:100540007A030E948203BDCF62E082E00E948201B2
:10055000882339F062E082E00E948201813021F438
:1005600002C0C0E001C0C1E08C2F0E947A030E944B
:100570008203A7CF63E082E00E948201882339F0E2
:1005800063E082E00E948201813021F402C0C0E079
:1005900001C0C1E08C2F0E947A030E94820391CF98
:1005A00064E082E00E948201882339F064E082E006
:1005B0000E948201813021F402C0C0E001C0C1E08C
:1005C0008C2F0E947A030E9482037BCF65E082E039
:1005D0000E948201882339F065E082E00E94820156
:1005E000813021F402C0C0E001C0C1E08C2F0E9424
:1005F0007A030E94820365CF60E082E00E94E401FA
:1006000060CF61E082E00E94E4015BCF62E082E0C3
:100610000E94E40156CF63E082E00E94E40151CFE2
:1006200064E082E00E94E4014CCF41E065E082E0BA
:100630000E94150146CF60E082E00E94E80141CFB0
:1006400061E082E00E94E8013CCF62E082E00E942B
:10065000E80137CF63E082E00E94E80132CF64E036
:1006600082E00E94E8012DCF40E065E082E00E9438
:10067000150127CF20B52F7720BD20B52F7B20BDBA
:10068000DC01CB01880F991FAA1FBB1F880F991F80
:10069000AA1FBB1F9C01AD01220F331F441F551F12
:1006A000220F331F441F551F60E072E18AE790E07C
:1006B0000E948A032150310980B5826080BD80B5D7
:1006C000846080BD8AB18B7F8AB980B58F7E80BD02
:1006D00080B58F7D80BD80B5886080BD8AB188601F
:1006E0008AB98AB180618AB980B5806880BD30BD21
:1006F00029B908955D9BFECF8CB908955F9BFECF0D
:100700008CB108958AB180648AB908958AB18068ED
:100710008AB90895A1E21A2EAA1BBB1BFD010DC0C8
:10072000AA1FBB1FEE1FFF1FA217B307E407F507A1
:1007300020F0A21BB30BE40BF50B661F771F881F7D
:10074000991F1A9469F760957095809590959B0113
:10075000AC01BD01CF010895EE0FFF1F0590F4918C
:08076000E02D0994F894FFCF8D
:00000001FF
