S00A000055322E7372656393
S11300000C944E000C946B000C946B000C946B00DD
S11300100C946B000C946B000C946B000C946B00B0
S11300200C946B000C946B000C946B000C946B00A0
S11300300C946B000C946B000C946B000C946B0090
S11300400C946B000C946B000C946B000C946B0080
S11300500C946B00D801EE0104021A02C801C80115
S1130060C801C801C801C801C801C801C801C80144
S1130070C801C801300235023A023F02C801C80172
S1130080C801C801C801C801C801C801C801C80124
S1130090C801C801440249024E02530211241FBE82
S11300A0CFE5D8E0DEBFCDBF10E0A0E6B0E0E4EAE3
S11300B0F5E002C005900D92A036B107D9F720E013
S11300C0A0E6B0E001C01D92A036B207E1F70E949D
S11300D0B1010C94D0020C940000813001F130F095
S11300E08230B1F1833009F44CC00895413059F4A1
S11300F02AB381E090E002C0880F991F6A95E2F765
S1130100822B8ABB08952AB381E090E002C0880F55
S1130110991F6A95E2F7809582238ABB089541303E
S113012059F427B381E090E002C0880F991F6A95C3
S1130130E2F7822B87BB089527B381E090E002C0E9
S1130140880F991F6A95E2F78095822387BB0895EB
S1130150413059F424B381E090E002C0880F991F24
S11301606A95E2F7822B84BB089524B381E090E082
S113017002C0880F991F6A95E2F78095822384BB99
S11301800895413059F421B381E090E002C0880F12
S1130190991F6A95E2F7822B81BB089521B381E010
S11301A090E002C0880F991F6A95E2F78095822338
S11301B081BB0895813001F130F08230B1F1833098
S11301C009F44CC00895413059F42BB381E090E018
S11301D002C0880F991F6A95E2F7822B8BBB0895A2
S11301E02BB381E090E002C0880F991F6A95E2F773
S11301F0809582238BBB0895413059F428B381E064
S113020090E002C0880F991F6A95E2F7822B88BBA1
S1130210089528B381E090E002C0880F991F6A9581
S1130220E2F78095822388BB0895413059F425B3C1
S113023081E090E002C0880F991F6A95E2F7822B53
S113024085BB089525B381E090E002C0880F991F13
S11302506A95E2F78095822385BB0895413059F46D
S113026022B381E090E002C0880F991F6A95E2F7FB
S1130270822B82BB089522B381E090E002C0880FF4
S1130280991F6A95E2F78095822382BB0895813095
S1130290E1F030F0823071F1833009F440C053C092
S11302A049B381E090E09C01062E02C0220F331F67
S11302B00A94E2F7842F90E08223932302C0959559
S11302C087956A95E2F7982F3EC046B381E090E0A7
S11302D09C01062E02C0220F331F0A94E2F7842FDA
S11302E090E08223932302C0959587956A95E2F75F
S11302F0982F29C043B381E090E09C01062E02C0F0
S1130300220F331F0A94E2F7842F90E08223932371
S113031002C0959587956A95E2F7982F14C040B36B
S113032081E090E09C01062E02C0220F331F0A9444
S1130330E2F7842F90E08223932302C0959587955A
S11303406A95E2F7982F892F089541E00E946D0085
S1130350089541E00E94DA00089540E00E94DA0026
S1130360089560E875E280E090E00E94580260E041
S113037082E00E94A50161E082E00E94A50162E0A2
S113038082E00E94A50163E082E00E94A501DFEF04
S11303900E949C02C82F0E94A4028C2F90E0FC01B2
S11303A07197E432F105A0F7E65DFF4F0C94CA02A1
S11303B060E082E00E944701882339F060E082E037
S11303C00E944701813021F402C0D0E001C0D1E095
S11303D08D2F0E9498020E94A002DACF61E082E091
S11303E00E944701882339F061E082E00E944701BE
S11303F0813021F402C0D0E001C0D1E08D2F0E94F1
S113040098020E94A002C4CF62E082E00E944701E9
S1130410882339F062E082E00E944701813021F4B0
S113042002C0D0E001C0D1E08D2F0E9498020E944A
S1130430A002AECF63E082E00E944701882339F036
S113044063E082E00E944701813021F402C0D0E0E1
S113045001C0D1E08D2F0E9498020E94A00298CF83
S113046060E082E00E94A90193CF61E082E00E94F3
S1130470A9018ECF62E082E00E94A90189CF63E0E6
S113048082E00E94A90184CF60E082E00E94AD0175
S11304907FCF61E082E00E94AD017ACF62E082E02A
S11304A00E94AD0175CF63E082E00E94AD0170CF80
S11304B020B52F7720BD20B52F7B20BDDC01CB01DB
S11304C0880F991FAA1FBB1F880F991FAA1FBB1F44
S11304D09C01AD01220F331F441F551F220F331FF0
S11304E0441F551F60E072E18AE790E00E94A80271
S11304F02150310980B5826080BD80B5846080BDA3
S11305008AB18B7F8AB980B58F7E80BD80B58F7D9F
S113051080BD80B5886080BD8AB188608AB98AB19F
S113052080618AB980B5806880BD30BD29B90895DD
S11305305D9BFECF8CB908955F9BFECF8CB108956F
S11305408AB180648AB908958AB180688AB90895A5
S1130550A1E21A2EAA1BBB1BFD010DC0AA1FBB1FC3
S1130560EE1FFF1FA217B307E407F50720F0A21B35
S1130570B30BE40BF50B661F771F881F991F1A94A2
S113058069F760957095809590959B01AC01BD01CC
S1130590CF010895EE0FFF1F0590F491E02D09940B
S10705A0F894FFCFF9
S9030000FC
