:100000000C9489000C94A6000C94A6000C94A600F5
:100010000C94A6000C94A6000C94A6000C94A600C8
:100020000C94A6000C94A6000C94A6000C94A600B8
:100030000C94A6000C94A6000C94A6000C94A600A8
:100040000C94A6000C94A6000C94A6000C94A60098
:100050000C94A6000102E30115021F020B02290203
:10006000E301E301E301E301E301E301E301E30170
:10007000E301E301E301E301E301E301E301E30160
:10008000E301E301F701E301E301E301E301E3013C
:10009000E301E3010602E3011A02240210022F0227
:1000A000E301E301E301E301E301E301E301E30130
:1000B000E301E301E301E301E301E301E301E30120
:1000C000E301E301FC01740289029E02B302C8024B
:1000D000DD025B025B025B025B025B025B025B02B6
:1000E0005B025B025B02F202F702FC020103060301
:1000F0000B035B025B025B025B025B025B025B0267
:100100005B025B025B02110316031B032003250342
:100110002A0311241FBECFE5D8E0DEBFCDBF10E01B
:10012000A0E6B0E0E0E4F7E002C005900D92A03652
:10013000B107D9F720E0A0E6B0E001C01D92A136DA
:10014000B207E1F70E9435020C949E030C94000064
:10015000813001F130F08230B1F1833009F44CC0CC
:100160000895413059F42AB381E090E002C0880F2D
:10017000991F6A95E2F7822B8ABB08952AB381E022
:1001800090E002C0880F991F6A95E2F7809582235C
:100190008ABB0895413059F427B381E090E002C052
:1001A000880F991F6A95E2F7822B87BB089527B3C2
:1001B00081E090E002C0880F991F6A95E2F7809570
:1001C000822387BB0895413059F424B381E090E045
:1001D00002C0880F991F6A95E2F7822B84BB0895AD
:1001E00024B381E090E002C0880F991F6A95E2F77E
:1001F0008095822384BB0895413059F421B381E076
:1002000090E002C0880F991F6A95E2F7822B81BBAC
:10021000089521B381E090E002C0880F991F6A958C
:10022000E2F78095822381BB0895813001F130F09F
:100230008230B1F1833009F44CC00895413059F453
:100240002BB381E090E002C0880F991F6A95E2F716
:10025000822B8BBB08952BB381E090E002C0880F06
:10026000991F6A95E2F7809582238BBB08954130F0
:1002700059F428B381E090E002C0880F991F6A9575
:10028000E2F7822B88BB089528B381E090E002C09A
:10029000880F991F6A95E2F78095822388BB08959D
:1002A000413059F425B381E090E002C0880F991FD6
:1002B0006A95E2F7822B85BB089525B381E090E033
:1002C00002C0880F991F6A95E2F78095822385BB4B
:1002D0000895413059F422B381E090E002C0880FC4
:1002E000991F6A95E2F7822B82BB089522B381E0C1
:1002F00090E002C0880F991F6A95E2F780958223EB
:1003000082BB08958130C9F028F0823049F18330F2
:10031000D1F14BC029B381E090E0062E02C0880FD6
:10032000991F0A94E2F730E08223932302C0959547
:1003300087956A95E2F7982F38C026B381E090E060
:10034000062E02C0880F991F0A94E2F730E082233C
:10035000932302C0959587956A95E2F7982F25C05B
:1003600023B381E090E0062E02C0880F991F0A9403
:10037000E2F730E08223932302C0959587956A9532
:10038000E2F7982F12C020B381E090E0062E02C061
:10039000880F991F0A94E2F730E08223932302C06A
:1003A000959587956A95E2F7982F892F089541E0F2
:1003B0000E94A800089541E00E941501089540E0C0
:1003C0000E94150108950E946E03809360000E94B0
:1003D0007403E09160008E2F90E0FC01E254F1097B
:1003E000E933F10580F7E65DFF4F0C94980360E078
:1003F00082E00E94DB01E7CF60E082E00E94DF0143
:10040000E2CF61E082E00E94DB01DDCF61E082E0CB
:100410000E94DF01D8CF62E082E00E94DB01D3CFEF
:1004200062E082E00E94DF01CECF63E082E00E94C2
:10043000DB01C9CF63E082E00E94DF01C4CF64E04A
:1004400082E00E94DB01BFCF64E082E00E94DF0116
:10045000BACF41E065E082E00E941501B4CF40E0F0
:1004600065E082E00E941501AECF60E875E280E0B1
:1004700090E00E94300360E082E00E94D70161E0DA
:1004800082E00E94D70162E082E00E94D70163E02F
:1004900082E00E94D70164E082E00E94D70141E03F
:1004A00065E082E00E94A8000E946E0380936000D5
:1004B0000E947403C0E080916000813311F40E94B7
:1004C000E3010E946E03809360000E947403E09138
:1004D00060008E2F90E0FC017197E632F10558F72D
:1004E000ED59FF4F0C94980360E082E00E94820176
:1004F000882341F060E082E00E948201813019F49B
:10050000C1E001C0C0E08C2F0E946A030E94720308
:10051000D2CF61E082E00E948201882341F061E055
:1005200082E00E948201813019F4C1E001C0C0E084
:100530008C2F0E946A030E947203BDCF62E082E0AA
:100540000E948201882341F062E082E00E948201E1
:10055000813019F4C1E001C0C0E08C2F0E946A0311
:100560000E947203A8CF63E082E00E948201882388
:1005700041F063E082E00E948201813019F4C1E021
:1005800001C0C0E08C2F0E946A030E94720393CFC7
:1005900064E082E00E948201882341F064E082E00E
:1005A0000E948201813019F4C1E001C0C0E08C2FAB
:1005B0000E946A030E9472037ECF65E082E00E947F
:1005C0008201882341F065E082E00E94820181304F
:1005D00019F4C1E001C0C0E08C2F0E946A030E94A0
:1005E000720369CF60E082E00E94DB0164CF61E0CA
:1005F00082E00E94DB015FCF62E082E00E94DB01CB
:100600005ACF63E082E00E94DB0155CF64E082E0D4
:100610000E94DB0150CF41E065E082E00E941501BD
:100620004ACF60E082E00E94DF0145CF61E082E0D6
:100630000E94DF0140CF62E082E00E94DF013BCFF9
:1006400063E082E00E94DF0136CF64E082E00E9436
:10065000DF0131CF40E065E082E00E9415012BCF41
:1006600020B52F7720BD20B52F7B20BDDC01CB012D
:10067000880F991FAA1FBB1F880F991FAA1FBB1F96
:100680009C01AD01220F331F441F551F220F331F42
:10069000441F551F60E072E18AE790E00E947603F4
:1006A0002150310980B5826080BD80B5846080BDF5
:1006B000529880B58F7E80BD80B58F7D80BD80B51E
:1006C000886080BD539A549A80B5806880BD30BDE3
:1006D00029B908955D9BFECF8CB908955F9BFECF2D
:1006E0008CB10895569A0895579A0895A1E21A2E4A
:1006F000AA1BBB1BFD010DC0AA1FBB1FEE1FFF1FC6
:10070000A217B307E407F50720F0A21BB30BE40B15
:10071000F50B661F771F881F991F1A9469F760955C
:100720007095809590959B01AC01BD01CF01089516
:10073000EE0FFF1F0590F491E02D0994F894FFCF80
:00000001FF
