:100000000C942A000C9447000C9447000C94470071
:100010000C9447000C9447000C9447000C94470044
:100020000C9447000C9447000C9447000C94470034
:100030000C9447000C9447000C9447000C94470024
:100040000C9447000C9447000C9447000C94470014
:100050000C94470011241FBECFE5D8E0DEBFCDBF12
:1000600011E0A0E6B0E0E2ECF0E102C005900D92F4
:10007000A633B107D9F721E0A6E3B1E001C01D9294
:10008000A335B207E1F70E948B030C945F080C9430
:100090000000813001F130F08230B1F1833009F499
:1000A0004CC00895413059F42AB381E090E002C079
:1000B000880F991F6A95E2F7822B8ABB08952AB3AD
:1000C00081E090E002C0880F991F6A95E2F7809561
:1000D00082238ABB0895413059F427B381E090E030
:1000E00002C0880F991F6A95E2F7822B87BB08959B
:1000F00027B381E090E002C0880F991F6A95E2F76C
:100100008095822387BB0895413059F424B381E060
:1001100090E002C0880F991F6A95E2F7822B84BB9A
:10012000089524B381E090E002C0880F991F6A957A
:10013000E2F78095822384BB0895413059F421B3BE
:1001400081E090E002C0880F991F6A95E2F7822B48
:1001500081BB089521B381E090E002C0880F991F10
:100160006A95E2F78095822381BB0895813001F181
:1001700030F08230B1F1833009F44CC00895413041
:1001800059F42BB381E090E002C0880F991F6A9563
:10019000E2F7822B8BBB08952BB381E090E002C085
:1001A000880F991F6A95E2F7809582238BBB08958B
:1001B000413059F428B381E090E002C0880F991FC4
:1001C0006A95E2F7822B88BB089528B381E090E01E
:1001D00002C0880F991F6A95E2F78095822388BB39
:1001E0000895413059F425B381E090E002C0880FB2
:1001F000991F6A95E2F7822B85BB089525B381E0AC
:1002000090E002C0880F991F6A95E2F780958223DB
:1002100085BB0895413059F422B381E090E002C0DB
:10022000880F991F6A95E2F7822B82BB089522B34B
:1002300081E090E002C0880F991F6A95E2F78095EF
:10024000822382BB08958130E1F030F0823071F179
:10025000833009F440C053C049B381E090E09C0171
:10026000062E02C0220F331F0A94E2F7842F90E07B
:100270008223932302C0959587956A95E2F7982F7C
:100280003EC046B381E090E09C01062E02C0220FE2
:10029000331F0A94E2F7842F90E08223932302C055
:1002A000959587956A95E2F7982F29C043B381E029
:1002B00090E09C01062E02C0220F331F0A94E2F741
:1002C000842F90E08223932302C0959587956A95A9
:1002D000E2F7982F14C040B381E090E09C01062E15
:1002E00002C0220F331F0A94E2F7842F90E082238A
:1002F000932302C0959587956A95E2F7982F892FE9
:1003000008951F93CF93DF93182FD62FC0E006C018
:100310004D2F6C2F812F0E944900CF5FC430C0F356
:10032000DF91CF911F9108956F70813069F028F0AF
:10033000823089F08330B1F008958BB3807F8BBB1E
:100340008BB3682B6BBB089588B3807F88BB88B361
:10035000682B68BB089585B3807F85BB85B3682B08
:1003600065BB089582B3807F82BB82B3682B62BB7A
:1003700008951F93CF93DF93182FD62FC4E006C0A4
:100380004D2F6C2F812F0E944900CF5FC830C0F3E2
:10039000DF91CF911F910895607F813069F028F03F
:1003A000823089F08330B1F008958BB38F708BBBAE
:1003B0008BB3682B6BBB089588B38F7088BB88B3F1
:1003C000682B68BB089585B38F7085BB85B3682B98
:1003D00065BB089582B38F7082BB82B3682B62BB0A
:1003E00008958EBB9FBB6DBB84E08CBB8CB38260D9
:1003F0008CBBE199FECF08958EBB9FBB8CB381600F
:100400008CBB8DB30895CF93C82F61110BC00E9490
:10041000810161E08C2F0E94B9016FE08C2F0E9456
:1004200094010BC060E00E94B90161E08C2F0E9432
:10043000810160EF8C2F0E94CC01CF910895EF9243
:10044000FF920F931F93CF93DF93CDB7DEB76097E3
:100450000FB6F894DEBF0FBECDBFF82E80E1E0E608
:10046000F0E0DE01119601900D928A95E1F7662386
:1004700061F1E12C59C060EF8F2D0E94CC0140E06A
:1004800064E06E0D8F2D0E94B60000E008C0602F62
:100490008F2D0E942301182F882319F00F5F04303D
:1004A000B0F3111110C0EE2DF0E0EE0FFF1FEE0FB4
:1004B000FF1F81E090E08C0F9D1FE80FF91FE00FF8
:1004C000F11D808135C0E39401C0E12C93E09E15BD
:1004D00090F68FEF2DC06FE08F2D0E94940140E0C9
:1004E0006E2D8F2D0E94B60000E009C064E0600F01
:1004F0008F2D0E942301182F882319F00F5F0430DD
:10050000A8F3111110C0EE2DF0E0EE0FFF1FEE0F5B
:10051000FF1F81E090E08C0F9D1FE80FF91FE00F97
:10052000F11D808105C0E39493E09E15A0F68FEF46
:1005300060960FB6F894DEBF0FBECDBFDF91CF91AE
:100540001F910F91FF90EF90089541E063E081E0EB
:100550000E94B6008FE99FE00197F1F700C000000C
:1005600040E063E081E00E94B6000895CF93C82F79
:1005700040E062E081E00E94B60040E061E081E09E
:100580000E94B6006C2F80E00E94CC010E94A50260
:100590006C2F6295607F80E00E94CC010E94A502D2
:1005A000CF9108952FEF81EE94E02150804090404C
:1005B000E1F700C0000041E061E081E00E944900F5
:1005C00041E062E081E00E94490041E063E081E0B7
:1005D0000E94490061E080E00E94B90182E00E942F
:1005E000B6028FE295E70197F1F700C0000088E2BC
:1005F0000E94B6028FEC97E00197F1F700C000006F
:100600008EE00E94B6028FEC97E00197F1F700C0F0
:10061000000081E00E94B6028FE19EE40197F1F7AD
:1006200000C0000086E00E94B6020895CF93C82F54
:1006300040E062E081E00E94B60041E061E081E0DC
:100640000E94B6006C2F80E00E94CC010E94A5029F
:100650006C2F6295607F80E00E94CC010E94A50211
:10066000CF910895CF93DF93EC0103C00E9416034E
:10067000219688818111FACFDF91CF9108950F9350
:100680001F93CF93DF93CDB7DEB727970FB6F894BC
:10069000DEBF0FBECDBF9F938F937F936F9380E795
:1006A00090E09F938F938E010F5F1F4F1F930F93C7
:1006B0000E947505C8010E9432030FB6F894DEBF90
:1006C0000FBECDBF27960FB6F894DEBF0FBECDBFCD
:1006D000DF91CF911F910F91089581E00E94B602A2
:1006E0008FE19EE40197F1F700C00000089581308A
:1006F00019F48FE7860F0CC0823019F48FEB860F48
:1007000007C0833019F48FE8860F02C08FEC860F84
:100710000E94B60208950E94D20261E082E00E9427
:10072000030265E081E00E9477038FE790E00E947A
:10073000320362E082E00E94770387E890E00E9443
:1007400032032FE38DE093E0215080409040E1F7A9
:1007500000C000000E946D030E9479040E946005A1
:10076000882311F08330D1F780E090E00895CF9393
:10077000DF93C0E02FC061E082E00E941F028093FF
:1007800051012FEF81EE94E0215080409040E1F73D
:1007900000C00000809151018F3F69F30E94160351
:1007A0002FE78AE196E0215080409040E1F700C0B9
:1007B0000000D1E0DC0F6D2F84E00E9477038AE215
:1007C0000E941603EC2FF0E0E85CFE4F809151018F
:1007D0008083CD2FC43078F2DF91CF910895CF93ED
:1007E000DF93C0E02FC061E082E00E941F0280938F
:1007F00051012FEF81EE94E0215080409040E1F7CD
:1008000000C00000809151018F3F69F30E941603E0
:100810002FE78AE196E0215080409040E1F700C048
:100820000000D1E0DC0F6D2F82E00E9477038AE2A6
:100830000E941603EC2FF0E0EC5BFE4F809151011B
:100840008083CD2FC83078F2DF91CF910895CF9378
:10085000C0E010C02C2F30E0F901EC5BFE4F60814E
:100860009BEA6927608370E0C901805A9F4F0E940C
:10087000F101CF5FC83070F3C0E00FC02C2F30E023
:10088000F901E85CFE4F60819BEA6927608370E0B4
:10089000C90180960E94F101CF5FC43078F3CF91F7
:1008A00008951F93CF93DF9310E00DC0C12FD0E0C8
:1008B000CE01805A9F4F0E94FC01C45CDE4F9BEA30
:1008C000892788831F5F183088F310E00CC0C12F80
:1008D000D0E0CE0180960E94FC01C35BDE4F9BEA14
:1008E000892788831F5F143090F3DF91CF911F9188
:1008F000089580E590E00E94FC01809352018823D6
:1009000009F440C082E990E00E94320361E082E095
:100910000E9477030E94EF0361E083E00E94770367
:1009200083EA90E00E94320361E084E00E94770352
:100930000E94B7030E9427040E946D0384EB90E09D
:100940000E94320361E082E00E94770380EC90E035
:100950000E9432032FE78AE196E0215080409040C8
:10096000E1F700C0000060E070E080E590E00E94E8
:10097000F10180E590E00E94FC01809352010E9409
:10098000510408950E945104089561E081E00E949D
:1009900077038DEC90E00E94320361E082E00E94D8
:1009A00077030E94EF031092370120E012C0822FDC
:1009B00090E0FC01EC5BFE4F3081FC01E45CFE4FFB
:1009C0008081381305C0809137018F5F8093370194
:1009D0002F5F283060F361E083E00E94770389EDA8
:1009E00090E00E94320361E084E00E9477030E945D
:1009F000B70310924C0120E012C0822F90E0FC015E
:100A0000E85CFE4F3081FC01E35BFE4F80813813D0
:100A100005C080914C018F5F80934C012F5F243083
:100A200060F30E946D0380914C018430D1F4809179
:100A300037018830B1F489EE90E00E9432032FE74D
:100A40008AE196E0215080409040E1F700C000002C
:100A5000109236010E946D038AEF90E00E943203EB
:100A600025C0809136018F5F8093360186E091E04A
:100A70000E94320361E082E00E94770385E191E009
:100A80000E94320361E083E00E9477038DE191E0F0
:100A90000E9432038091360163E070E0681B7109A7
:100AA000072E000C880B990B0E943F032FEF89E65D
:100AB00098E1215080409040E1F700C00000089587
:100AC0000E946D0380915201811102C00E94C504F1
:100AD00080913601833031F40E946D0388E291E009
:100AE0000E943203809136010895AEE0B0E0EBE75A
:100AF000F5E00C9436080D891E8986E08C831A83F4
:100B000009838FEF9FE79E838D83AE01475E5F4F22
:100B10006F89788DCE0101960E949705EF81F88547
:100B2000E00FF11F10822E96E4E00C945208ABE027
:100B3000B0E0EDE9F5E00C9428086C017B018A0136
:100B4000FC0117821682838181FFCCC1CE01019600
:100B50003C01F6019381F70193FD859193FF81910B
:100B60007F01882309F4BAC1853239F493FD859158
:100B700093FF81917F01853229F4B60190E00E94B4
:100B80008E07E7CF912C212C312CFFE1F315D8F003
:100B90008B3279F038F4803279F08332A1F4232D4E
:100BA00020611DC08D3261F0803369F4232D2160F6
:100BB00016C0832D8260382EE32DE4603E2E2AC0BD
:100BC000F32DF8601DC037FC2DC020ED280F2A3012
:100BD00040F08E32B9F436FC81C1232D2064322ED0
:100BE00019C036FE06C08AE0989E200D1124922E70
:100BF00011C0EAE02E9E200D1124222EF32DF0626A
:100C00003F2E08C08C3621F4832D8068382E02C018
:100C1000883641F4F70193FD859193FF81917F011F
:100C20008111B3CF982F9F7D9554933028F40C5F9A
:100C30001F4F9FE399830DC0833631F0833771F0E6
:100C4000833509F059C021C0F801808189830E5F86
:100C50001F4F88248394912C530113C02801F2E084
:100C60004F0E511CF801A080B18036FE03C0692DE3
:100C700070E002C06FEF7FEFC5010E9483074C0157
:100C80008201F32DFF773F2E16C0280122E0420E8D
:100C9000511CF801A080B18036FE03C0692D70E0C0
:100CA00002C06FEF7FEFC5010E9478074C01F32D62
:100CB000F0683F2E820133FC1BC0822D90E0881625
:100CC0009906B0F4B60180E290E00E948E072A9463
:100CD000F4CFF50137FC859137FE81915F01B601B4
:100CE00090E00E948E0721102A9421E0821A910838
:100CF0008114910471F7E8C0843611F0893641F50A
:100D0000F80137FE07C060817181828193810C5F99
:100D10001F4F08C060817181072E000C880B990B52
:100D20000E5F1F4FF32DFF763F2E97FF09C0909562
:100D30008095709561957F4F8F4F9F4FF0683F2E44
:100D40002AE030E0A3010E94CA07882E861845C019
:100D5000853731F4232D2F7EB22E2AE030E025C0D6
:100D6000932D997FB92E8F36C1F018F4883579F01C
:100D7000B5C0803719F0883721F0B0C0E92FE061A5
:100D8000BE2EB4FE0DC0FB2DF460BF2E09C034FE94
:100D90000AC0292F2660B22E06C028E030E005C028
:100DA00020E130E002C020E132E0F801B7FE07C0E8
:100DB00060817181828193810C5F1F4F06C06081C9
:100DC000718180E090E00E5F1F4FA3010E94CA076F
:100DD000882E8618FB2DFF773F2E36FE0DC0232D63
:100DE0002E7FA22E891458F434FE0BC032FC09C0A9
:100DF000832D8E7EA82E05C0B82CA32C03C0B82C42
:100E000001C0B92CA4FE0FC0FE01E80DF11D8081C8
:100E1000803321F49A2D997EA92E09C0A2FE06C026
:100E2000B394B39404C08A2D867809F0B394A3FCDC
:100E300011C0A0FE06C0B21488F4280C922C9B1896
:100E40000EC0B21460F4B60180E290E00E948E07FA
:100E5000B394F7CFB21418F42B1802C0982C212C9D
:100E6000A4FE10C0B60180E390E00E948E07A2FEAF
:100E700017C0A1FC03C088E790E002C088E590E0BD
:100E8000B6010CC08A2D867859F0A1FE02C08BE213
:100E900001C080E2A7FC8DE2B60190E00E948E07BF
:100EA000891438F4B60180E390E00E948E079A948A
:100EB000F7CF8A94F301E80DF11D8081B60190E02F
:100EC0000E948E078110F5CF222009F442CEB60190
:100ED00080E290E00E948E072A94F6CFF601868188
:100EE000978102C08FEF9FEF2B96E2E10C944408AC
:100EF000FC010590615070400110D8F780959095E5
:100F00008E0F9F1F0895FC016150704001900110E9
:100F1000D8F7809590958E0F9F1F08950F931F937C
:100F2000CF93DF93FB01238121FD03C08FEF9FEF60
:100F30002CC022FF16C0468157812481358142177B
:100F4000530744F4A081B1819D012F5F3F4F31834E
:100F500020838C93268137812F5F3F4F37832683F1
:100F600014C08B01EC01FB010084F185E02D099593
:100F7000892BE1F6D80116968D919C9117970196D1
:100F800017969C938E931697CE01DF91CF911F9168
:100F90000F910895FA01AA27283051F1203181F1EB
:100FA000E8946F936E7F6E5F7F4F8F4F9F4FAF4F71
:100FB000B1E03ED0B4E03CD0670F781F891F9A1F84
:100FC000A11D680F791F8A1F911DA11D6A0F711D38
:100FD000811D911DA11D20D009F468943F912AE044
:100FE000269F11243019305D3193DEF6CF0108952C
:100FF000462F4770405D4193B3E00FD0C9F7F6CF5D
:10100000462F4F70405D4A3318F0495D31FD405224
:10101000419302D0A9F7EACFB4E0A69597958795BA
:1010200077956795BA95C9F7009761057105089599
:101030009B01AC010A2E0694579547953795279545
:10104000BA95C9F7620F731F841F951FA01D0895DD
:101050002F923F924F925F926F927F928F929F92C8
:10106000AF92BF92CF92DF92EF92FF920F931F93B6
:10107000CF93DF93CDB7DEB7CA1BDB0B0FB6F89467
:10108000DEBF0FBECDBF09942A88398848885F84A7
:101090006E847D848C849B84AA84B984C884DF8018
:1010A000EE80FD800C811B81AA81B981CE0FD11DFC
:1010B0000FB6F894DEBF0FBECDBFED010895F894D2
:0210C000FFCF60
:1010C2003738392F3435362A3132332D41303D2BE2
:1010D2002564002D00257325642E253034640057C5
:1010E200656C636F6D6500746F206D7920686F6D3C
:1010F2006500706C656173652C736574207573652A
:10110200723A00706C656173652C7365742070614E
:1011120073733A00757365722061646465642000BC
:101122005375636365737366756C6C7900456E7491
:10113200657220557365723A00456E74657220506F
:10114200617373776F72643A00436F72726563748E
:101152002050617373776F7264004C6F636B204F22
:1011620070656E65640057726F6E6720706173738D
:10117200776F7264006F7220757365720052656DCD
:101182002074696D65733A004C6F636B6564204D22
:061192006F6465212100DD
:04000003000008F2FF
:00000001FF
