S00E0000454550524F4D2E737265634E
S11300000C947B000C9498000C9498000C94980029
S11300100C9498000C9498000C9498000C949800FC
S11300200C9498000C9498000C9498000C949800EC
S11300300C9498000C9498000C9498000C949800DC
S11300400C9498000C9498000C9498000C949800CC
S11300500C949800A900B100BA00C300CC00D500EC
S1130060DE00E700E801ED01F201F701FC01010205
S11300700A020602DE05BE05F6050206EA05BE050D
S1130080BE05BE05BE05BE05BE05BE05BE05BE0554
S1130090BE05BE05BE05BE05BE05BE05BE05BE0544
S11300A0BE05BE05D205BE05BE05BE05BE05BE0520
S11300B0BE05BE05E405BE05FC050806F005BE0543
S11300C0BE05BE05BE05BE05BE05BE05BE05BE0514
S11300D0BE05BE05BE05BE05BE05BE05BE05BE0504
S11300E0BE05BE05D805710C630CDA0CDF0CE40CFC
S11300F0E90CEE0CF30C11241FBECFE5D8E0DEBFF3
S1130100CDBF15E0A0E6B0E0E8E1F7E202C005905B
S11301100D92A035B107D9F725E0A0E5B5E001C0FF
S11301201D92A737B207E1F70E9422080C948A13A4
S11301300C940000E82F87B1807E87B98E2F90E061
S11301408830910508F04BC0FC01E65DFF4F0C942C
S11301509A1040E060E080E00E94430287B187B9D2
S11301603EC040E061E080E00E94430287B18160CC
S113017087B935C040E062E080E00E94430287B165
S1130180826087B92CC040E063E080E00E944302B3
S113019087B1836087B923C040E064E080E00E94B7
S11301A0430287B1846087B91AC040E065E080E00B
S11301B00E94430287B1856087B911C040E066E0C0
S11301C080E00E94430287B1866087B908C040E09E
S11301D067E080E00E94430287B1876087B986B1F7
S11301E0887F86B986B1836086B987B1887F87B9ED
S11301F087B1806C87B987B18F7D87B986B18062FA
S113020086B986B1806886B9089586B1806486B956
S1130210349BFECF86B1806186B924B135B180E0CC
S1130220932F822B08950E94670580E790E00E9437
S11302302C0561E070E082E090E00E9471058CE79B
S113024090E00E942C0561E070E083E090E00E9461
S113025071058CE890E00E942C0561E070E084E078
S113026090E00E9471058CE990E00E942C050E94A8
S1130270110280935105823361F018F4813331F017
S113028011C0833349F0843351F00CC00E94280E0E
S113029008950E94620C08950E94720108950E94BC
S11302A0C40A08950E94670585EA90E00E942C051F
S11302B00E941301089580915205803351F40E94E5
S11302C0690A019719F40E94130108950E94140CFD
S11302D008950E94670585EA90E00E942C050E941B
S11302E0720108950E9422020E94CC0480E00E94C0
S11302F091050E946705D1E001C0DC2F61E082E036
S11303000E941904809352058F3F09F04FC00E9448
S11303109405C82FD81791F361E081E00E9471051C
S113032082EB90E00E942C056C2F70E080E090E05E
S11303300E94390580EC90E00E942C05CC31D0F06D
S113034062E070E083E090E00E94890561E082E071
S11303500E94710582EC90E00E942C050E942D02FF
S113036061E083E00E9471058AEC90E00E942C0514
S1130370DC2FC4CFC63108F662E070E083E090E081
S11303800E948D0561E082E00E9471058AED90E093
S11303900E942C050E94380261E083E00E947105EE
S11303A08AEC90E00E942C05DC2FA8CF0E945B0110
S11303B0A5CFCF93C82F0E9467058C2F90E0FC0136
S11303C03397E830F10530F5EE5CFF4F0C949A104A
S11303D083EE90E00E942C051DC081EF90E00E9406
S11303E02C0518C08FEF90E00E942C0513C08DE0FF
S11303F091E00E942C050EC08BE191E00E942C0537
S113040009C089E291E00E942C0504C087E391E0D1
S11304100E942C05809152058053833060F6CF9161
S1130420089561E082E00E941904809352058FE4EC
S113043093EC0197F1F700C00000809152058F3FC3
S113044081F3089541E066E081E00E94430241E0C7
S113045067E081E00E944302089541E066E081E0A4
S11304600E94B00240E067E081E00E94B00208957B
S113047040E066E081E00E94B00240E067E081E095
S11304800E94B0020895813001F130F08230B1F160
S1130490833009F44CC00895413059F42AB381E003
S11304A090E002C0880F991F6A95E2F7822B8ABBFD
S11304B008952AB381E090E002C0880F991F6A95DD
S11304C0E2F7809582238ABB0895413059F427B31B
S11304D081E090E002C0880F991F6A95E2F7822BB1
S11304E087BB089527B381E090E002C0880F991F6D
S11304F06A95E2F78095822387BB0895413059F4C9
S113050024B381E090E002C0880F991F6A95E2F756
S1130510822B84BB089524B381E090E002C0880F4D
S1130520991F6A95E2F78095822384BB0895413030
S113053059F421B381E090E002C0880F991F6A95B5
S1130540E2F7822B81BB089521B381E090E002C0E1
S1130550880F991F6A95E2F78095822381BB0895DD
S1130560813001F130F08230B1F1833009F44CC0B4
S11305700895413059F42BB381E090E002C0880F14
S1130580991F6A95E2F7822B8BBB08952BB381E008
S113059090E002C0880F991F6A95E2F78095822344
S11305A08BBB0895413059F428B381E090E002C038
S11305B0880F991F6A95E2F7822B88BB089528B3A8
S11305C081E090E002C0880F991F6A95E2F7809558
S11305D0822388BB0895413059F425B381E090E02B
S11305E002C0880F991F6A95E2F7822B85BB089594
S11305F025B381E090E002C0880F991F6A95E2F765
S11306008095822385BB0895413059F422B381E05B
S113061090E002C0880F991F6A95E2F7822B82BB93
S1130620089522B381E090E002C0880F991F6A9573
S1130630E2F78095822382BB08958130E1F030F0A7
S1130640823071F1833009F440C053C049B381E072
S113065090E09C01062E02C0220F331F0A94E2F799
S1130660842F90E08223932302C0959587956A9501
S1130670E2F7982F3EC046B381E090E09C01062E3D
S113068002C0220F331F0A94E2F7842F90E08223E2
S1130690932302C0959587956A95E2F7982F29C010
S11306A043B381E090E09C01062E02C0220F331F69
S11306B00A94E2F7842F90E08223932302C0959555
S11306C087956A95E2F7982F14C040B381E090E0D3
S11306D09C01062E02C0220F331F0A94E2F7842FD6
S11306E090E08223932302C0959587956A95E2F75B
S11306F0982F892F08951F93CF93DF93182FD62F08
S1130700C0E006C04D2F6C2F812F0E944302CF5FA3
S1130710C430C0F3DF91CF911F9108956F70813081
S113072069F028F0823089F08330B1F008958BB3FA
S1130730807F8BBB8BB3682B6BBB089588B3807FA2
S113074088BB88B3682B68BB089585B3807F85BB5D
S113075085B3682B65BB089582B3807F82BB82B367
S1130760682B62BB08951F93CF93DF93182FD62F66
S1130770C4E006C04D2F6C2F812F0E944302CF5F2F
S1130780C830C0F3DF91CF911F910895607F81300D
S113079069F028F0823089F08330B1F008958BB38A
S11307A08F708BBB8BB3682B6BBB089588B38F7032
S11307B088BB88B3682B68BB089585B38F7085BBED
S11307C085B3682B65BB089582B38F7082BB82B3F7
S11307D0682B62BB08958EBB9FBB6DBB84E08CBB52
S11307E08CB382608CBBE199FECF08958EBB9FBB16
S11307F08CB381608CBB8DB30895CF93C82F6111E6
S11308000BC00E947B0361E08C2F0E94B3036FE056
S11308108C2F0E948E030BC060E00E94B30361E042
S11308208C2F0E947B0360EF8C2F0E94C603CF9114
S11308300895EF92FF920F931F93CF93DF93CDB759
S1130840DEB760970FB6F894DEBF0FBECDBFF82EAB
S113085080E1E0E6F0E0DE01119601900D928A95C8
S1130860E1F7662361F1E12C59C060EF8F2D0E94FE
S1130870C60340E064E06E0D8F2D0E94B00200E0DC
S113088008C0602F8F2D0E941D03182F882319F094
S11308900F5F0430B0F3111110C0EE2DF0E0EE0F35
S11308A0FF1FEE0FFF1F81E090E08C0F9D1FE80FEC
S11308B0F91FE00FF11D808135C0E39401C0E12CE4
S11308C093E09E1590F68FEF2DC06FE08F2D0E9460
S11308D08E0340E06E2D8F2D0E94B00200E009C00F
S11308E064E0600F8F2D0E941D03182F882319F0D8
S11308F00F5F0430A8F3111110C0EE2DF0E0EE0FDD
S1130900FF1FEE0FFF1F81E090E08C0F9D1FE80F8B
S1130910F91FE00FF11D808105C0E39493E09E155B
S1130920A0F68FEF60960FB6F894DEBF0FBECDBF72
S1130930DF91CF911F910F91FF90EF90089541E0C7
S113094063E081E00E94B0028FE99FE00197F1F734
S113095000C0000040E063E081E00E94B00208951E
S1130960CF93C82F40E062E081E00E94B00240E0F3
S113097061E081E00E94B0026C2F80E00E94C60317
S11309800E949F046C2F6295607F80E00E94C603E2
S11309900E949F04CF9108952FEF81EE94E021509F
S11309A080409040E1F700C0000041E061E081E058
S11309B00E94430241E062E081E00E94430241E080
S11309C063E081E00E94430261E080E00E94B3039F
S11309D082E00E94B0048FE295E70197F1F700C02E
S11309E0000088E20E94B0048FEC97E00197F1F7D1
S11309F000C000008EE00E94B0048FEC97E00197E5
S1130A00F1F700C0000081E00E94B0048FE19EE491
S1130A100197F1F700C0000086E00E94B004089539
S1130A20CF93C82F40E062E081E00E94B00241E031
S1130A3061E081E00E94B0026C2F80E00E94C60356
S1130A400E949F046C2F6295607F80E00E94C60321
S1130A500E949F04CF910895CF93DF93EC0103C0CC
S1130A600E941005219688818111FACFDF91CF91E0
S1130A7008950F931F93CF93DF93CDB7DEB72797D6
S1130A800FB6F894DEBF0FBECDBF9F938F937F93B5
S1130A906F9382E491E09F938F938E010F5F1F4FBA
S1130AA01F930F930E94A010C8010E942C050FB63B
S1130AB0F894DEBF0FBECDBF27960FB6F894DEBF05
S1130AC00FBECDBFDF91CF911F910F91089581E0AB
S1130AD00E94B0048FE19EE40197F1F700C000008A
S1130AE00895813019F48FE7860F0CC0823019F411
S1130AF08FEB860F07C0833019F48FE8860F02C08E
S1130B008FEC860F0E94B004089541E00E944302D6
S1130B10089541E00E94B002089540E00E94B002AE
S1130B2008950E949A0008950E940501BC0180E086
S1130B3090E00E947D0F20E030E040E85EE30E94F8
S1130B400B100E944E0F862F08950E94C80E8093AA
S1130B5052050E94D00E0E94C80E809352050E9436
S1130B60D00E0E94C80E809352050E94D00E0895A4
S1130B7081E591E00E94D40E0E94CC0E0E94C80E22
S1130B80809352050E94D00EE09152058E2F90E082
S1130B90FC01E254F109E933F10580F7E65CFF4F0B
S1130BA00C949A108AE50E94C40E0E94CC0EE6CFE3
S1130BB08AE70E94C40E0E94CC0EE0CF82E40E9419
S1130BC0C40E0E94CC0EDACF82E60E94C40E0E94AC
S1130BD0CC0ED4CF86E40E94C40E0E94CC0ECECF9D
S1130BE086E60E94C40E0E94CC0EC8CF84E40E9404
S1130BF0C40E0E94CC0EC2CF84E60E94C40E0E9492
S1130C00CC0EBCCF85E40E94C40E0E94CC0EB6CF9D
S1130C1085E60E94C40E0E94CC0EB0CF0E94220230
S1130C2041E060E081E00E94430280E090E00E94A5
S1130C309105D1E001C0DC2F0E949405C82FD8177C
S1130C40D9F3893150F08BE891E00E94D40E0E94D0
S1130C50CC0E0E942D02DC2FEFCF863160F78FE996
S1130C6091E00E94D40E0E94CC0EDC2FE5CF1F939E
S1130C70CF93DF9382EB91E00E94D40E0E94CC0EBE
S1130C800E94A505182F8EEB91E00E94D40E0E94BD
S1130C90CC0E0E94A505C0E6D5E08091520588835C
S1130CA00E94A5058091520589830E94A505809123
S1130CB052058A830E94A505809152058B838AEC94
S1130CC091E00E94D40E0E94CC0E0E94A505C4E5BA
S1130CD0D5E08091520588830E94A5058091520534
S1130CE089830E94A505809152058A830E94A505E7
S1130CF0809152058B83812F0E945A0989ED91E0DE
S1130D000E94D40E0E94CC0EDF91CF911F910895C2
S1130D1081EF91E00E94D40E0E94CC0E87E092E015
S1130D200E94D40E0E94CC0E8DE192E00E94D40E5B
S1130D300E94C80E809352050E94D00E0E94C80ED5
S1130D40809352050E94D00E0E94C80E80935205D3
S1130D500E94D00E80915205823339F0833341F0E2
S1130D60813341F40E947F0808950E943706089554
S1130D700E94C2070895CF93DF9383E392E00E9419
S1130D80D40E0E94CC0E0E94A5050E94930982E411
S1130D9092E00E94D40E0E94CC0E0E94A50580937E
S1130DA052050E94D00EC0E6D5E08091520588839A
S1130DB00E94A505809352050E94D00E8091520591
S1130DC089830E94A505809352050E94D00E8091CC
S1130DD052058A830E94A505809352050E94D00E75
S1130DE0809152058B838AEC91E00E94D40E0E947C
S1130DF0CC0E0E94A505809352050E94D00EC4E536
S1130E00D5E08091520588830E94A5058093520500
S1130E100E94D00E8091520589830E94A50580937B
S1130E2052050E94D00E809152058A830E94A50526
S1130E30809352050E94D00E809152058B831092AC
S1130E40530520E012C0822F90E0FC01E05AFA4FD3
S1130E503081FC01E85AFA4F8081381305C0809133
S1130E6053058F5F809353052F5F243060F31092F6
S1130E706C0520E012C0822F90E0FC01EC5AFA4F7E
S1130E803081FC01E359FA4F8081381305C0809109
S1130E906C058F5F80936C052F5F243060F3809125
S1130EA06C05843079F480915305843059F481E5DC
S1130EB092E00E94D40E0E94CC0E109250050E9423
S1130EC088060BC0809150058F5F809350058EE992
S1130ED092E00E94D40E0E94CC0EDF91CF9108952F
S1130EE080E00E9493091092530520E012C0822FE3
S1130EF090E0FC01E05AFA4F3081FC01E85AFA4FC5
S1130F008081381305C0809153058F5F809353050A
S1130F102F5F243060F310926C0520E012C0822F02
S1130F2090E0FC01EC5AFA4F3081FC01E359FA4F8E
S1130F308081381305C080916C058F5F80936C05A8
S1130F402F5F243060F380916C05843079F48091B4
S1130F505305843059F481E592E00E94D40E0E9436
S1130F60CC0E109250050E94880608958091500579
S1130F708F5F809350058EE992E00E94D40E0E9408
S1130F80CC0E0895CF93DF938EEB91E00E94D40EA4
S1130F900E94CC0E0E94A505C0E6D5E080915205C2
S1130FA088830E94A5058091520589830E94A50526
S1130FB0809152058A830E94A505809152058B83F6
S1130FC08AEC91E00E94D40E0E94CC0E0E94A505EA
S1130FD0C4E5D5E08091520588830E94A5058091DF
S1130FE0520589830E94A505809152058A830E9437
S1130FF0A505809152058B830E947007DF91CF91E4
S113100008958DEA92E00E94D40E0E94CC0E0E94B4
S1131010C80E809352050E94D00E809152058134EF
S113102019F40E94C2070895853519F40E94BB067D
S1131030089585EA90E00E94D40E0E94CC0E0E948E
S11310400108089580E090E00E94910560E875E24F
S113105080E090E00E94840E0E94CC0461E082E073
S11310600E94FD030E94B80863E070E083E090E012
S11310700E94850564E070E083E090E00E948505AD
S113108065E070E081E090E00E94850562E070E038
S113109083E090E00E94850566E070E083E090E0E4
S11310A00E94850541E067E083E00E94430263E01B
S11310B081E00E94710588ED92E00E942C0563E0B6
S11310C082E00E94710585EE92E00E942C052FE7D4
S11310D08AE196E0215080409040E1F700C0000092
S11310E00E9467050E9401080E94CA090E94D90D46
S11310F0882311F08330D1F780E090E0089582EFE7
S113110092E00E94D40E0E94CC0E84E093E00E94F0
S1131110D40E0E94CC0E86E193E00E94D40E0E946D
S1131120CC0E88E293E00E94D40E0E94CC0E0E9462
S1131130C80E809352050E94D00E0E94C80E809360
S113114052050E94D00E0E94C80E809352050E9440
S1131150D00E80915205833331F0843331F08233E1
S113116031F40E94B8050E940E060E948806089574
S113117081B3806281BB1DBC1CBC83EC99E097BD2C
S113118086BD82E88FBD8BE18EBD08958B35B0F4AA
S1131190682F70E080E090E00E947F0F2BE036E43F
S11311A045EA5FE30E940B1020E030E046E353E49D
S11311B00E94E20E0E944E0F7BBD6ABD08958B35DE
S11311C0B0F4682F70E080E090E00E947F0F2BE085
S11311D036E445EA5FEB0E940B1020E030E046E382
S11311E053E40E94E20E0E944E0F7BBD6ABD089537
S11311F0CF93C0E02EC061E082E00E941904809386
S113120052052FEF80E792E0215080409040E1F7B3
S113121000C00000809152058F3F69F30E941005C1
S11312202FEB84ED91E0215080409040E1F700C025
S1131230000063E06C0F84E00E9471058AE20E9462
S11312401005EC2FF0E0EC5AFA4F809152058083A0
S1131250CF5FC43080F2CF910895CF93C0E026C011
S113126061E082E00E941904809352052FEF80E729
S113127092E0215080409040E1F700C0000080914E
S113128052058F3F69F30E9410052FEB84ED91E026
S1131290215080409040E1F700C00000EC2FF0E0C6
S11312A0E05AFA4F809152058083CF5FC430C0F278
S11312B0CF9108951F93CF93DF93182F90E00C964E
S11312C0D82FDD0FDD0FDD0FC0E010C02C2F30E074
S11312D0F901E05AFA4F60819BEA6927608370E064
S11312E0C9018D0F911D0E94EB03CF5FC43070F3D1
S11312F0D12FDD0FDD0FC0E010C02C2F30E0F9013D
S1131300EC5AFA4F60819BEA6927608370E0C90157
S11313108D0F911D0E94EB03CF5FC43070F3DF91FA
S1131320CF911F910895FF920F931F93CF93DF9353
S1131330F82E90E00C96082F000F000F000F10E01D
S11313400DC0C12FD0E0CE01800F911D0E94F60385
S1131350C85ADA4F9BEA892788831F5F143088F3C1
S11313600F2D000F000F10E00DC0C12FD0E0CE01F3
S1131370800F911D0E94F603C359DA4F9BEA892717
S113138088831F5F143088F3DF91CF911F910F91F1
S1131390FF90089580E590E00E94F6038093710524
S11313A0882309F46EC089E393E00E942C0561E070
S11313B082E00E94710589E493E00E942C050E945A
S11313C02D0961E083E00E9471058CE493E00E94A2
S11313D02C0561E084E00E94710589E493E00E9499
S11313E02C050E94F80880E00E945A090E946705B3
S11313F08DE593E00E942C0561E082E00E94710576
S113140084EE91E00E942C052FEF80E792E02150BA
S113141080409040E1F700C0000060E070E080E5AB
S113142090E00E94EB0380E590E00E94F603809335
S113143071050E94670589E693E00E942C0561E02E
S113144082E00E94710588E793E00E942C0561E028
S113145083E00E94710589E493E00E942C050E94B8
S11314601102809376052FEB84ED91E021508040AA
S11314709040E1F700C000008091760580937305E9
S113148008950E94670589E693E00E942C0561E0B7
S113149082E00E94710588E793E00E942C0561E0D8
S11314A083E00E94710589E493E00E942C050E9468
S11314B01102809376052FEB84ED91E0215080405A
S11314C09040E1F700C00000809176058093730599
S11314D0089580917305811102C081E0089580E030
S11314E008950E94670561E082E00E94710585E825
S11314F093E00E942C0561E083E00E94710581E97C
S113150093E00E942C052FE78AE196E02150804069
S11315109040E1F700C000000E94670580EA93E074
S11315200E942C0561E082E00E94710588E793E047
S11315300E942C0561E083E00E94710589E493E038
S11315400E942C050E941102809352052FEB84ED1A
S113155091E0215080409040E1F700C0000080916C
S11315605205813319F40E94010B0895823319F452
S11315700E94F80C08950E94670585EA90E00E9495
S11315802C050E94710A08950E9467058EEA93E073
S11315900E942C0561E082E00E9471058DEB93E0CE
S11315A00E942C0561E083E00E94710588EC93E0C1
S11315B00E942C050E941102809376052FE38DE092
S11315C093E0215080409040E1F700C000008091FA
S11315D07605823339F0833341F0813349F40E9434
S11315E0130108950E94B90B08950E94710A089589
S11315F00E94670585EA90E00E942C050E94C40AB7
S1131600089580E00E9493090E94670582ED93E0AB
S11316100E942C0561E082E00E94710589E493E058
S11316200E942C050E942D091092530520E012C03F
S1131630822F90E0FC01E05AFA4F3081FC01E85A15
S1131640FA4F8081381305C0809153058F5F8093D2
S113165053052F5F243060F361E083E00E9471053D
S11316608EED93E00E942C0561E084E00E947105F8
S113167089E493E00E942C050E94F80810926C05FE
S113168020E012C0822F90E0FC01EC5AFA4F308126
S1131690FC01E359FA4F8081381305C080916C0531
S11316A08F5F80936C052F5F243060F30E94670581
S11316B080916C05843071F580915305843051F527
S11316C063E070E083E090E00E94890564E070E0EC
S11316D083E090E00E948D0565E070E083E090E097
S11316E00E948D058EEE93E00E942C052FE38DE081
S11316F093E0215080409040E1F700C00000109238
S113170050050E9467058FEF93E00E942C050E940C
S1131710C40A25C0809150058F5F809350058BE0EB
S113172094E00E942C0561E082E00E9471058AE148
S113173094E00E942C0561E083E00E94710582E23E
S113174094E00E942C058091500563E070E0681BD2
S11317507109072E000C880B990B0E9439052FE79D
S113176088E391E0215080409040E1F700C0000000
S113177008950E9467058DE294E00E942C0561E0C3
S113178083E00E94710588E394E00E942C050E9486
S11317901102809374052FEF80E792E0215080407E
S11317A09040E1F700C000000E94670584E494E0E3
S11317B00E942C0561E082E00E94710589E493E0B7
S11317C00E942C050E942D0961E083E00E947105AE
S11317D08CE493E00E942C0561E084E00E94710592
S11317E089E493E00E942C050E94F8088091740516
S11317F00E945A090E9467058DE593E00E942C051A
S113180061E082E00E94710584EE91E00E942C0563
S11318102FE38DE093E0215080409040E1F700C039
S113182000000E94C40A08950E94670581E594E0BF
S11318300E942C0561E082E00E94710581E694E03B
S11318400E942C0561E083E00E94710581E794E029
S11318500E942C0561E084E00E9471058BE794E00E
S11318600E942C050E941102809376052FEB84EDD3
S113187091E0215080409040E1F700C00000809149
S11318807605823361F018F4813331F012C083336A
S113189049F0843351F00DC00E94620C08950E94F7
S11318A0720108950E94710A08958AE00E94D90184
S11318B008950E94670580E894E00E942C050E9428
S11318C0140C0895C1E08FEF809352058C2F90E0A3
S11318D0FC013197E830F105B0F7ED58FF4F0C9457
S11318E09A100E9467058CE894E00E942C0561E040
S11318F082E00E9471058DE994E00E942C0561E06C
S113190083E00E9471058EEA94E00E942C0561E058
S113191084E00E9471058EEB94E00E942C050E94E5
S11319201102809352052FEF80E792E0215080400E
S11319309040E1F700C0000080915205813341F1ED
S1131940823341F1833341F1843341F1853341F1F1
S1131950863341F1803351F40E94690A813019F4CD
S11319600E94130120C00E94140C1DC08F3FD9F0A7
S11319700E94670580E894E00E942C052FE38DE027
S113198093E0215080409040E1F700C000000BC07C
S1131990C3E009C0C4E007C0C5E005C0C6E003C099
S11319A0C7E001C0C8E0809152058053873008F039
S11319B098CF89CF83E00E94D901C1E084CF84E02D
S11319C00E94D901C1E07FCF85E00E94D901C1E026
S11319D07ACF86E00E94D901C1E075CF87E00E94EA
S11319E0D901C1E070CF88E00E94D901C1E06BCF7A
S11319F00E9467058BEC94E00E942C0561E082E074
S1131A000E94710589ED94E00E942C0561E083E059
S1131A100E94710583E392E00E942C0561E084E05A
S1131A200E94710587EC94E00E942C050E9411022B
S1131A30809374050E9493092FEF80E792E0215070
S1131A4080409040E1F700C000000E94670588EEE6
S1131A5094E00E942C0561E082E00E94710589E413
S1131A6093E00E942C050E942D091092530520E05A
S1131A7012C0822F90E0FC01E05AFA4F3081FC0141
S1131A80E85AFA4F8081381305C0809153058F5F5F
S1131A90809353052F5F243060F361E083E00E945C
S1131AA071058EED93E00E942C0561E084E00E94B4
S1131AB0710589E493E00E942C050E94F8081092B5
S1131AC06C0520E012C0822F90E0FC01EC5AFA4F22
S1131AD03081FC01E359FA4F8081381305C08091AD
S1131AE06C058F5F80936C052F5F243060F30E9438
S1131AF0670580916C05843069F5809153058430C5
S1131B0049F564E070E083E090E00E94890563E0B9
S1131B1070E083E090E00E948D0565E070E083E072
S1131B2090E00E948D058EEE93E00E942C052FE339
S1131B308DE093E0215080409040E1F700C0000028
S1131B40109250050E9467058FEF93E00E942C05C8
S1131B500E94620C809150058F5F809350058BE04A
S1131B6094E00E942C0561E082E00E9471058AE104
S1131B7094E00E942C0561E083E00E94710582E2FA
S1131B8094E00E942C058091500563E070E0681B8E
S1131B907109072E000C880B990B0E9439052FE759
S1131BA088E391E0215080409040E1F700C00000BC
S1131BB0089580917605813321F0909175059134D3
S1131BC029F4109273050E94010B10C0823331F482
S1131BD081E0809373050E94F80C08C00E94670599
S1131BE087EF94E00E942C050E94CA098091500559
S1131BF0833059F50E94670584E095E00E942C0526
S1131C0065E070E081E090E00E94890564E070E0A6
S1131C1083E090E00E948D0563E070E083E090E053
S1131C200E948D0541E067E083E00E94B0022FEF3F
S1131C308AE197EB215080409040E1F700C000001A
S1131C4040E067E083E00E94B0028091500508956F
S1131C500E94670582E195E00E942C0565E083E01F
S1131C600E941D0380937205813029F480E295E07F
S1131C700E942C0504C083E295E00E942C0561E0DB
S1131C8082E00E94710587E295E00E942C0561E0E4
S1131C9083E00E94710580E395E00E942C0561E0D9
S1131CA084E00E9471058AE395E00E942C050E945D
S1131CB01102809352052FEF80E792E0215080407B
S1131CC09040E1F700C0000080915205813329F46F
S1131CD08AE590E00E94C60814C0823329F48AE59C
S1131CE090E00E94DF080DC0803319F40E941301B4
S1131CF008C00E94670584E495E00E942C050E94B8
S1131D00280E0E941301089520B52F7720BD20B519
S1131D102F7B20BDDC01CB01880F991FAA1FBB1F9D
S1131D20880F991FAA1FBB1F9C01AD01220F331FEF
S1131D30441F551F220F331F441F551F60E072E1DB
S1131D408AE790E00E9478102150310980B58260C2
S1131D5080BD80B5846080BD8AB18B7F8AB980B52F
S1131D608F7E80BD80B58F7D80BD80B5886080BD4D
S1131D708AB188608AB98AB180618AB980B580687D
S1131D8080BD30BD29B908955D9BFECF8CB90895FF
S1131D905F9BFECF8CB108958AB180648AB908959F
S1131DA08AB180688AB90895CF93DF93EC0103C0A8
S1131DB00E94C40E219688818111FACFDF91CF91C0
S1131DC008955058BB27AA270E94F90E0C94D10FEE
S1131DD00E94C30F38F00E94CA0F20F039F49F3FCD
S1131DE019F426F40C94C00F0EF4E095E7FB0C9460
S1131DF0BA0FE92F0E94E20F58F3BA17620773076C
S1131E008407950720F079F4A6F50C9404100EF4D9
S1131E10E0950B2EBA2FA02D0B01B90190010C01F6
S1131E20CA01A0011124FF27591B99F0593F50F40E
S1131E30503E68F11A16F040A22F232F342F442766
S1131E40585FF3CF469537952795A795F04053955E
S1131E50C9F77EF41F16BA0B620B730B840BBAF02E
S1131E609150A1F0FF0FBB1F661F771F881FC2F799
S1131E700EC0BA0F621F731F841F48F487957795AD
S1131E806795B795F7959E3F08F0B0CF9395880F67
S1131E9008F09927EE0F9795879508950E94EA0F09
S1131EA088F09F5798F0B92F9927B751B0F0E1F017
S1131EB0660F771F881F991F1AF0BA95C9F714C0C7
S1131EC0B13091F00E940410B1E008950C94041014
S1131ED0672F782F8827B85F39F0B93FCCF3869500
S1131EE077956795B395D9F73EF49095809570955D
S1131EF061957F4F8F4F9F4F0895E89409C097FBDA
S1131F003EF490958095709561957F4F8F4F9F4FCC
S1131F109923A9F0F92F96E9BB279395F695879510
S1131F2077956795B795F111F8CFFAF4BB0F11F4D3
S1131F3060FF1BC06F5F7F4F8F4F9F4F16C088237A
S1131F4011F096E911C0772321F09EE8872F762FB0
S1131F5005C0662371F096E8862F70E060E02AF0F1
S1131F609A95660F771F881FDAF7880F96958795DD
S1131F7097F9089597F99F6780E870E060E0089505
S1131F809FEF80EC089500240A941616170618068D
S1131F900906089500240A94121613061406050669
S1131FA00895092E0394000C11F4882352F0BB0FFA
S1131FB040F4BF2B11F460FF04C06F5F7F4F8F4F5D
S1131FC09F4F089557FD9058440F551F59F05F3F98
S1131FD071F04795880F97FB991F61F09F3F79F047
S1131FE087950895121613061406551FF2CF4695C9
S1131FF0F1DF08C0161617061806991FF1CF86954B
S11320007105610508940895E894BB27662777272E
S1132010CB0197F908950E941E100C94D10F0E94D1
S1132020C30F38F00E94CA0F20F0952311F00C94CE
S1132030BA0F0C94C00F11240C9405100E94E20FE7
S113204070F3959FC1F3950F50E0551F629FF00107
S1132050729FBB27F00DB11D639FAA27F00DB11D20
S1132060AA1F649F6627B00DA11D661F829F2227A9
S1132070B00DA11D621F739FB00DA11D621F839F30
S1132080A00D611D221F749F3327A00D611D231F06
S1132090849F600D211D822F762F6A2F11249F5754
S11320A050409AF0F1F088234AF0EE0FFF1FBB1F57
S11320B0661F771F881F91505040A9F79E3F510516
S11320C080F00C94BA0F0C9405105F3FE4F3983E33
S11320D0D4F3869577956795B795F795E7959F5FC0
S11320E0C1F7FE2B880F911D9695879597F9089552
S11320F0A1E21A2EAA1BBB1BFD010DC0AA1FBB1F08
S1132100EE1FFF1FA217B307E407F50720F0A21B79
S1132110B30BE40BF50B661F771F881F991F1A94E6
S113212069F760957095809590959B01AC01BD0110
S1132130CF010895EE0FFF1F0590F491E02D09944F
S1132140AEE0B0E0E6EAF0E10C9461130D891E897B
S113215086E08C831A8309838FEF9FE79E838D83A8
S1132160AE01475E5F4F6F89788DCE0101960E9464
S1132170C210EF81F885E00FF11F10822E96E4E083
S11321800C947D13ABE0B0E0E8ECF0E10C94531355
S11321906C017B018A01FC0117821682838181FF15
S11321A0CCC1CE0101963C01F6019381F70193FD68
S11321B0859193FF81917F01882309F4BAC1853207
S11321C039F493FD859193FF81917F01853229F440
S11321D0B60190E00E94B912E7CF912C212C312C4A
S11321E0FFE1F315D8F08B3279F038F4803279F0CE
S11321F08332A1F4232D20611DC08D3261F0803320
S113220069F4232D216016C0832D8260382EE32DBE
S1132210E4603E2E2AC0F32DF8601DC037FC2DC0AB
S113222020ED280F2A3040F08E32B9F436FC81C1FB
S1132230232D2064322E19C036FE06C08AE0989EF3
S1132240200D1124922E11C0EAE02E9E200D11249F
S1132250222EF32DF0623F2E08C08C3621F4832DFC
S11322608068382E02C0883641F4F70193FD8591C9
S113227093FF81917F018111B3CF982F9F7D955456
S1132280933028F40C5F1F4F9FE399830DC083366E
S113229031F0833771F0833509F059C021C0F8015A
S11322A0808189830E5F1F4F88248394912C53016E
S11322B013C02801F2E04F0E511CF801A080B18038
S11322C036FE03C0692D70E002C06FEF7FEFC501D9
S11322D00E94AE124C018201F32DFF773F2E16C0EF
S11322E0280122E0420E511CF801A080B18036FE84
S11322F003C0692D70E002C06FEF7FEFC5010E943B
S1132300A3124C01F32DF0683F2E820133FC1BC055
S1132310822D90E088169906B0F4B60180E290E030
S11323200E94B9122A94F4CFF50137FC859137FE47
S113233081915F01B60190E00E94B91221102A94A4
S113234021E0821A91088114910471F7E8C084365F
S113235011F0893641F5F80137FE07C060817181BB
S1132360828193810C5F1F4F08C060817181072EA9
S1132370000C880B990B0E5F1F4FF32DFF763F2E39
S113238097FF09C090958095709561957F4F8F4F09
S11323909F4FF0683F2E2AE030E0A3010E94F5121F
S11323A0882E861845C0853731F4232D2F7EB22E12
S11323B02AE030E025C0932D997FB92E8F36C1F0E5
S11323C018F4883579F0B5C0803719F0883721F0D2
S11323D0B0C0E92FE061BE2EB4FE0DC0FB2DF46049
S11323E0BF2E09C034FE0AC0292F2660B22E06C0B3
S11323F028E030E005C020E130E002C020E132E016
S1132400F801B7FE07C060817181828193810C5FFE
S11324101F4F06C06081718180E090E00E5F1F4F06
S1132420A3010E94F512882E8618FB2DFF773F2EFC
S113243036FE0DC0232D2E7FA22E891458F434FEAF
S11324400BC032FC09C0832D8E7EA82E05C0B82C8B
S1132450A32C03C0B82C01C0B92CA4FE0FC0FE01EC
S1132460E80DF11D8081803321F49A2D997EA92EE7
S113247009C0A2FE06C0B394B39404C08A2D867822
S113248009F0B394A3FC11C0A0FE06C0B21488F4F2
S1132490280C922C9B180EC0B21460F4B60180E292
S11324A090E00E94B912B394F7CFB21418F42B1829
S11324B002C0982C212CA4FE10C0B60180E390E049
S11324C00E94B912A2FE17C0A1FC03C088E790E0E5
S11324D002C088E590E0B6010CC08A2D867859F0D8
S11324E0A1FE02C08BE201C080E2A7FC8DE2B6012E
S11324F090E00E94B912891438F4B60180E390E0A8
S11325000E94B9129A94F7CF8A94F301E80DF11D51
S11325108081B60190E00E94B9128110F5CF22208B
S113252009F442CEB60180E290E00E94B9122A94E6
S1132530F6CFF6018681978102C08FEF9FEF2B962D
S1132540E2E10C946F13FC0105906150704001109E
S1132550D8F7809590958E0F9F1F0895FC016150C8
S1132560704001900110D8F7809590958E0F9F1FB1
S113257008950F931F93CF93DF93FB01238121FDD4
S113258003C08FEF9FEF2CC022FF16C046815781F6
S1132590248135814217530744F4A081B1819D0100
S11325A02F5F3F4F318320838C93268137812F5FA8
S11325B03F4F3783268314C08B01EC01FB01008459
S11325C0F185E02D0995892BE1F6D80116968D91B8
S11325D09C911797019617969C938E931697CE010C
S11325E0DF91CF911F910F910895FA01AA27283006
S11325F051F1203181F1E8946F936E7F6E5F7F4FCC
S11326008F4F9F4FAF4FB1E03ED0B4E03CD0670F47
S1132610781F891F9A1FA11D680F791F8A1F911D9A
S1132620A11D6A0F711D811D911DA11D20D009F4EA
S113263068943F912AE0269F11243019305D31932C
S1132640DEF6CF010895462F4770405D4193B3E015
S11326500FD0C9F7F6CF462F4F70405D4A3318F0BC
S1132660495D31FD4052419302D0A9F7EACFB4E06D
S1132670A6959795879577956795BA95C9F7009725
S11326806105710508959B01AC010A2E06945795C6
S1132690479537952795BA95C9F7620F731F841F1D
S11326A0951FA01D08952F923F924F925F926F92B3
S11326B07F928F929F92AF92BF92CF92DF92EF92CE
S11326C0FF920F931F93CF93DF93CDB7DEB7CA1B4F
S11326D0DB0B0FB6F894DEBF0FBECDBF09942A887A
S11326E0398848885F846E847D848C849B84AA8422
S11326F0B984C884DF80EE80FD800C811B81AA81AF
S1132700B981CE0FD11D0FB6F894DEBF0FBECDBF79
S10B2710ED010895F894FFCFD8
S113271837383941343536423132334345304D4404
S1132728312E4F70656E20646F6F7200322E526FB7
S11327386F6D204C69676874696E6700332E416950
S11327487220636F6E646974696F6E00342E52650B
S11327587475726E0057726F6E672043686F696391
S1132768650054656D7065726174757265203D000D
S1132778430046414E204F4E20005072657373202B
S11327883020746F204261636B0046414E204F46EF
S1132798462000526F6F6D31205374617475733A1B
S11327A800526F6F6D32205374617475733A00521E
S11327B86F6F6D33205374617475733A00526F6F81
S11327C86D34205374617475733A00526F6F6D35AC
S11327D8205374617475733A00526F6F6D362053C9
S11327E874617475733A0054562053746174757324
S11327F83A002564002D00257325642E25303464A1
S11328080052313A205A2026207A20202052323A87
S113281820422026206220202052333A20462026B7
S1132828206620202052343A204420262064202088
S11328382052353A204520262065004169722063DC
S11328486F6E646974696F6E204F4E2020200041BA
S1132858697220636F6E6469746F6E206F66662098
S11328682000736574207573657220494400456EB1
S113287874657220557365722000456E7465722004
S113288850617373776F7264005573657220416485
S1132898646564205375636365737366756C6C79DA
S11328A800312E436F6E74726F6C20486F6D652013
S11328B820202020202000322E4164642075736576
S11328C872202020202020202020202000332E4C7D
S11328D86F67206F7574202020202020202020205E
S11328E8202000456E746572205573657220494432
S11328F82000456E74657220557365726E616D654E
S113290800436F72726563742050617373776F72DA
S11329186420202020202020202020202020202067
S1132928202020202020202020202020202020209B
S1132938202020202020202020202020202020208B
S1132948202020202020202020202020200050612A
S11329587373776F72642057726F6E670050726575
S11329687373204120666F722041646D696E204C38
S11329786F67696E2026205520666F72207573650F
S113298872206C6F67696E002057656C636F6D65A4
S113299820746F200020736D61727420686F6D65F8
S11329A82000312E4F70656E6E696E6720446F6F1C
S11329B872202000322E526F6F6D204C6967687444
S11329C8696E67202000332E41697220636F6E643C
S11329D86974696F6E202000342E52657475726EA6
S11329E82020202020202020005365742041646D7D
S11329F8696E206E616D653A003E3E00706C6561DB
S1132A0873652C73657420706173733A007573650C
S1132A18722061646465642000312E41646D696EBE
S1132A28204C6F67696E2000322E55736572204CF6
S1132A386F67696E00204C6F676564204F7574205A
S1132A480020537563636573736566756C6C7900F0
S1132A58312E41646D696E204C6F67696E00312EAA
S1132A68436F6E74726F6C20486F6D6500322E412F
S1132A786464207573657200332E4C4F47204F757C
S1132A887400456E74657220557365723A00456E1C
S1132A987465722050617373776F72643A00436F80
S1132AA872726563742050617373776F7264004C3B
S1132AB86F636B204F70656E65640057726F6E6745
S1132AC82070617373776F7264006F722075736519
S1132AD8720052656D2074696D65733A0020204157
S1132AE86464205573657200536574207573657248
S1132AF82049440053657420757365726E616D6571
S1132B0800312E526F6F6D204C69676874696E6767
S1132B1800322E41697220436F6E646974696F6E66
S1132B2800332E4C6F67204F757400342E545600B2
S1132B3857726F6E6720696E70757400313A526F00
S1132B486F6D3120323A526F6F6D322000333A5232
S1132B586F6F6D3320343A526F6F6D342000353AFD
S1132B68526F6F6D3520363A526F6F6D3600303ABA
S1132B7852657475726E203E3E20002020557365A0
S1132B8872204C4F47494E200049442066726F6DAD
S1132B982028302D39292000456E746572207573FC
S1132BA865726E616D650057526F6E672063686F5A
S1132BB8696365004C6F636B6564204D6F646521C0
S1132BC82100534552564F205374617475733A006B
S1132BD84F4E004F4646003E3E20312D4F6E20009A
S1132BE83E3E20322D4F666620003E3E20302D5258
S1132BF84554200077726F6E6720696E7075740093
S903139455
