:100000000C9473000C94A2090C94C9090C94F00987
:100010000C9490000C9490000C9490000C94900020
:100020000C9490000C9490000C9490000C94900010
:100030000C9490000C9490000C9490000C94900000
:100040000C9490000C9490000C9490000C949000F0
:100050000C949000A100A900B000B700C000C70038
:10006000D000D900DD01680215023102F9014D020C
:100070006802680268026802680268026802680230
:100080006802680268026802680268026802680220
:1000900068026802C10168026802680268026802B8
:1000A00068026802EB01680223023F0207025B025A
:1000B00068026802680268026802680268026802F0
:1000C00068026802680268026802680268026802E0
:1000D00068026802CF01390E300E980E9F0EA60EF0
:1000E000AD0EB40EBB0E11241FBECFE5D8E0DEBFAF
:1000F000CDBF17E0A0E6B0E0E0E3FAE202C0059071
:100100000D92AE31B107D9F727E0AEE1B7E001C0FB
:100110001D92A334B207E1F70E943E0C0C94161511
:100120000C940000E82F87B1807E87B98E2F90E075
:100130008830910508F045C0FC01E65DFF4F0C9446
:10014000261240E060E080E00E947D0787B187B919
:1001500038C040E061E080E00E947D07389A31C0FD
:1001600040E062E080E00E947D07399A2AC040E0CA
:1001700063E080E00E947D0787B1836087B921C07A
:1001800040E064E080E00E947D073A9A1AC040E0B7
:1001900065E080E00E947D0787B1856087B911C066
:1001A00040E066E080E00E947D0787B1866087B905
:1001B00008C040E067E080E00E947D0787B187606B
:1001C00087B986B1887F86B986B1836086B987B1E1
:1001D000887F87B987B1806C87B93D98359A379AFF
:1001E0000895369A349BFECF349A84B125B190E0BD
:1001F000922B089580911F07803319F40E94D40D2B
:1002000008950E94730B80E790E00E94360B2FE761
:1002100089EA93E0215080409040E1F700C000005F
:100220000E94130108950E945C070E94D60A80E094
:100230000E949D0B0E94730BD1E003C0DC2F01C014
:10024000DC2F61E082E00E94330A80931F078F3F1A
:1002500009F05CC00E94A00BC82FD81779F361E0A9
:1002600081E00E947D0B8DE790E00E94360B6C2FA1
:1002700070E080E090E00E94450B8BE890E00E94E7
:10028000360BCC3100F162E083E00E94950B61E017
:1002900082E00E947D0B8DE890E00E94360B0E9468
:1002A000670761E083E00E947D0B85E990E00E9492
:1002B000360B61E084E00E947D0B88E496E00E94AA
:1002C000360BDC2FBECFC63108F0BACF62E083E038
:1002D0000E94990B61E082E00E947D0B85EA90E02C
:1002E0000E94360B0E94720761E083E00E947D0B42
:1002F00085E990E00E94360B61E084E00E947D0B6E
:1003000088E496E00E94360BDC2F9BCF0E94FA0017
:1003100098CF0E94561080931F070E945C100E9485
:10032000561080931F070E945C100E945610809305
:100330001F070E945C1080911F07089581E0909133
:100340002007913009F080E008958EEA90E00E9445
:100350005E100E945A10BCC00E94561080931F0766
:100360000E945C10E0911F078E2F90E0FC01E25488
:10037000F109E933F10508F0ABC0EE5CFF4F0C94D6
:10038000261261E081E00E947D0B80E091E00E94F6
:10039000360B8AE50E9452100E945A1099C061E003
:1003A00081E00E947D0B88E091E00E94360B8AE795
:1003B0000E9452100E945A108BC082E40E94521078
:1003C0000E945A1068E081E00E947D0B80E191E07C
:1003D0000E94360B7DC082E60E9452100E945A1085
:1003E00068E081E00E947D0B89E191E00E94360B7C
:1003F0006FC086E40E9452100E945A1061E082E0B1
:100400000E947D0B82E291E00E94360B61C086E67D
:100410000E9452100E945A1061E082E00E947D0BFF
:100420008AE291E00E94360B53C084E40E9452108D
:100430000E945A1068E082E00E947D0B82E391E006
:100440000E94360B45C084E60E9452100E945A104A
:1004500068E082E00E947D0B8BE391E00E94360B06
:1004600037C085E40E9452100E945A1061E083E078
:100470000E947D0B84E491E00E94360B29C085E642
:100480000E9452100E945A1061E083E00E947D0B8E
:100490008CE491E00E94360B1BC087E40E9452104E
:1004A0000E945A1068E083E00E947D0B84E591E091
:1004B0000E94360B0DC087E60E9452100E945A100F
:1004C00068E083E00E947D0B8DE591E00E94360B91
:1004D00080911F07803309F03FCF0E949E01813039
:1004E00019F40E94BF020895811102C00E94FC030A
:1004F000089586E691E00E945E100E945A1087E7F8
:1005000091E00E945E100E945A1088E891E00E94DB
:100510005E100E945A1089E991E00E945E100E94CC
:100520005A100E94561080931F070E945C100E9470
:10053000561080931F070E945C100E9456108093F3
:100540001F070E945C1080911F07823361F018F42E
:10055000813331F011C0833349F0843351F00CC042
:100560000E943C0608950E94A50108950E9410056E
:1005700008950E94BF0208950E94790208958AEAB0
:1005800091E00E945E100E945A1080EC91E00E945F
:100590005E100E945A1086ED91E00E945E100E944B
:1005A0005A108CEE91E00E945E100E9456108093CB
:1005B0001F070E945C100E94561080931F070E9424
:1005C0005C100E94561080931F070E945C1080915F
:1005D0001F07823361F018F4813331F008958333BB
:1005E00049F0843351F008950E94790208950E94E1
:1005F000CE0508950E94150608950E94DE03089511
:1006000080E00E94690DEAE2F7E0A6E2B7E02EE2A0
:1006100037E060E091918D91981301C06F5FE21710
:10062000F307C1F760932107E2E2F7E0A3E3B7E045
:1006300046E257E020E091918D91981301C02F5F21
:10064000E417F507C1F7209332072430C9F464306A
:10065000B9F482E092E00E945E100E945A1063E0BA
:1006600083E00E94950B64E083E00E94990B65E0B3
:1006700081E00E94990B10921E070E94BF0208950C
:1006800080911E078F5F80931E0784E192E00E9495
:100690005E100E945A1080911E07813029F484E276
:1006A00092E00E945E100DC0823029F488E292E050
:1006B0000E945E1006C0833021F48CE292E00E941A
:1006C0005E1081E093E00E945E100E945A108091BB
:1006D0001E07833009F040C010921E0780E392E0AD
:1006E0000E945E100E945A108DE392E00E945E10FC
:1006F0000E945A1065E081E00E94950B63E083E060
:100700000E94990B64E083E00E94990B41E067E04E
:1007100083E00E94EA0769E084E00E947D0B88E59F
:1007200092E00E94360B2AEA36EE86E991E02150EB
:10073000304080409040D9F7000040E067E083E01F
:100740000E94EA0769E084E00E947D0B80E692E067
:100750000E94360B0E9456050E94AF0308950F9326
:100760001F93CF93DF9388E692E00E945E100E9471
:100770005A10CAE2D7E00EE217E00E948901809188
:100780001F078993C017D107C1F789E792E00E943C
:100790005E100E945A10C2E2D7E006E217E00E9403
:1007A000890180911F078993C017D107C1F70E9463
:1007B0000003DF91CF911F910F91089589E892E096
:1007C0000E945E100E945A100E9489010E945C10D3
:1007D00080911F07813431F481E0809320070E94CB
:1007E000AF030895853529F4109220070E941A045A
:1007F00008950E94DE03089584EB92E00E945E104B
:100800000E945A100E9489010E945C1080911F076B
:10081000823339F0833341F0813349F40E94A501DA
:1008200008950E94100508950E94DE0308950E9415
:10083000FC0308959F92AF92BF92CF92DF92EF9206
:10084000FF920F931F93CF93DF9381EE92E00E946C
:100850005E100E945A100E94890190901F0780EF3D
:1008600092E00E945E100E945A100AE217E00F2EDA
:10087000FEE2CF2EF7E0DF2EF02DE8010E94890185
:1008800080911F078993CC15DD05C1F789E792E0B8
:100890000E945E100E945A10C2E2D7E00F2EF6E2CC
:1008A000AF2EF7E0BF2EF02D7E010E9489018091CE
:1008B0001F07D7018D937D01AA15BB05B1F7892DBF
:1008C0000E94690DE6E2F7E030E0D8019D918D01CC
:1008D0008191981301C03F5F0C151D05B1F730934E
:1008E0002107E3E3F7E020E099918191981301C09B
:1008F0002F5FCA15DB05C1F7209332072430C9F4F6
:100900003430B9F482E092E00E945E100E945A10E6
:1009100064E083E00E94950B63E083E00E94990B02
:1009200065E081E00E94990B10921E070E94FC0373
:100930006BC080911E078F5F80931E0784E192E059
:100940000E945E100E945A1080911E07813029F487
:1009500084E292E00E945E100DC0823029F488E2A9
:1009600092E00E945E1006C0833021F48CE292E097
:100970000E945E1080E093E00E945E100E945A1078
:1009800080911E078330F1F510921E0780E392E0FC
:100990000E945E100E945A108DE392E00E945E1049
:1009A0000E945A1065E081E00E94950B63E083E0AD
:1009B0000E94990B64E083E00E94990B41E067E09C
:1009C00083E00E94EA076AE084E00E947D0B88E5EC
:1009D00092E00E94360BBAEAE6EEF6E921E0B15069
:1009E000E040F0402040D9F7000040E067E083E0BD
:1009F0000E94EA076AE084E00E947D0B80E692E0B4
:100A00000E94360B0E941A04DF91CF911F910F9123
:100A1000FF90EF90DF90CF90BF90AF909F900895A0
:100A20000E945C0780E00E949D0BD1E001C0DC2F9A
:100A30000E94A00BC82F8D17D9F38C31A8F080E14C
:100A400093E00E945E100E945A1061E084E00E94D0
:100A50007D0B83E593E00E94360B62E083E00E9409
:100A6000950B0E94670716C08631A0F48BE593E0D2
:100A70000E945E100E945A1061E084E00E947D0B8B
:100A80008EE693E00E94360B62E083E00E94990BB1
:100A90000E9472070E949E01813019F40E94BF02D9
:100AA000C6CF8111C4CF0E94FC03C1CF0F931F9307
:100AB000CF93DF9380E590E00E942309809337076E
:100AC000882309F441C087E793E00E945E100E94EA
:100AD0005A1081E993E00E945E100E945A10CAE207
:100AE000D7E00EE217E00E94890180911F078993E9
:100AF000C017D107C1F780EA93E00E945E100E9400
:100B00005A10C2E2D7E006E217E00E948901809104
:100B10001F078993C017D107C1F780E00E941E0DFF
:100B20008FEA93E00E945E100E945A1060E080E518
:100B300090E00E941A0980E590E00E9423098093CA
:100B400037070E94560525C087EC93E00E945E108F
:100B50000E945A100E94561080931F070E945C103A
:100B600080911F07813431F481E0809320070E9437
:100B7000AF030FC0853529F4109220070E941A0494
:100B800008C080E790E00E945E100E945A100E9408
:100B90005605DF91CF911F910F910895FF920F930A
:100BA0001F93CF93DF9381EE92E00E945E100E942C
:100BB0005A100E948901F0901F0780EF92E00E9476
:100BC0005E100E945A10CAE2D7E00EE217E00E94BF
:100BD000890180911F078993C017D107C1F782EF60
:100BE00093E00E945E100E945A10C2E2D7E006E233
:100BF00017E00E94890180911F078993C017D107D0
:100C0000C1F78F2D0E941E0D8F2D0E94690D81E06E
:100C100094E00E945E100E945A100E94BF02DF9171
:100C2000CF911F910F91FF900895CF9381EE92E0A5
:100C30000E945E100E945A100E948901C82FEAE2A9
:100C4000F7E086E48083818382838383E2E2F7E0B6
:100C500080838183828383838C2F0E941E0D8C2F3F
:100C60000E94690D8AE194E00E945E100E945A1071
:100C70000E94BF02CF91089584E394E00E945E1029
:100C80000E945A100E94890180911F07813351F4FC
:100C90008AE50E94840C85E694E00E945E100E9422
:100CA0005C1013C0823351F48AE50E949D0C85EBE1
:100CB00094E00E945E100E945C1007C0803319F41B
:100CC0000E94BF0202C00E943C060E94BF0208951B
:100CD00061E082E00E94330A80931F072FE789EAD0
:100CE00093E0215080409040E1F700C000008091E7
:100CF0001F078F3F69F308959F92AF92BF92CF92E3
:100D0000DF92EF92FF920F931F93CF93DF93C82F41
:100D1000F12C00E010E00F2EF3E19F2EF02D0F2EAE
:100D2000F5E1AF2EF02D0F2EF4E1BF2EF02D0F2E9A
:100D3000F6E1CF2EF02D0F2EF1E1DF2EF02D0F2E4C
:100D4000F2E1EF2EF02D0E94730BC53011F128F463
:100D5000C33049F0C43091F047C0C73081F120F171
:100D6000C830C1F141C084E095E00E94360B0F2EDF
:100D7000F1E3FF2EF02D01E21D2D36C082E195E05A
:100D80000E94360B0F2EF2E3FF2EF02D02E21E2DF5
:100D90002BC080E295E00E94360B0F2EF3E3FF2E6E
:100DA000F02D03E2192D20C08EE295E00E94360B53
:100DB0000F2EF4E3FF2EF02D04E21B2D15C08CE363
:100DC00095E00E94360B0F2EF5E3FF2EF02D05E285
:100DD0001A2D0AC08AE495E00E94360B0F2EF6E326
:100DE000FF2EF02D06E21C2D812F0E9452100E9432
:100DF0005A100E945610D82F0E945C10D13029F44E
:100E000088E595E00E94360B04C08CE091E00E94DA
:100E1000360B61E082E00E947D0B8BE595E00E943D
:100E2000360B61E083E00E947D0B84E695E00E9432
:100E3000360B61E084E00E947D0B8EE695E00E9417
:100E4000360B87E496E00E94360B0E94680680937A
:100E50001F07813331F4802F0E9452100E945A10D4
:100E600019C0823331F48F2D0E9452100E945A1003
:100E700011C08033A9F00E94730B88E795E00E94AF
:100E8000360B2FEF89E698E1215080409040E1F742
:100E900000C0000080911F078053833008F053CFBB
:100EA000DF91CF911F910F91FF90EF90DF90CF9046
:100EB000BF90AF909F90089541E066E081E00E946E
:100EC0007D0741E067E081E00E947D07089541E0F1
:100ED00066E081E00E94EA0740E067E081E00E946E
:100EE000EA07089540E066E081E00E94EA0740E0FA
:100EF00067E081E00E94EA070895813001F130F057
:100F00008230B1F1833009F44CC00895413059F476
:100F10002AB381E090E002C0880F991F6A95E2F73A
:100F2000822B8ABB08952AB381E090E002C0880F2B
:100F3000991F6A95E2F7809582238ABB0895413014
:100F400059F427B381E090E002C0880F991F6A9599
:100F5000E2F7822B87BB089527B381E090E002C0BF
:100F6000880F991F6A95E2F78095822387BB0895C1
:100F7000413059F424B381E090E002C0880F991FFA
:100F80006A95E2F7822B84BB089524B381E090E058
:100F900002C0880F991F6A95E2F78095822384BB6F
:100FA0000895413059F421B381E090E002C0880FE8
:100FB000991F6A95E2F7822B81BB089521B381E0E6
:100FC00090E002C0880F991F6A95E2F7809582230E
:100FD00081BB0895813001F130F08230B1F183306E
:100FE00009F44CC00895413059F42BB381E090E0EE
:100FF00002C0880F991F6A95E2F7822B8BBB089578
:101000002BB381E090E002C0880F991F6A95E2F748
:10101000809582238BBB0895413059F428B381E039
:1010200090E002C0880F991F6A95E2F7822B88BB77
:10103000089528B381E090E002C0880F991F6A9557
:10104000E2F78095822388BB0895413059F425B397
:1010500081E090E002C0880F991F6A95E2F7822B29
:1010600085BB089525B381E090E002C0880F991FE9
:101070006A95E2F78095822385BB0895413059F443
:1010800022B381E090E002C0880F991F6A95E2F7D1
:10109000822B82BB089522B381E090E002C0880FCA
:1010A000991F6A95E2F78095822382BB089581306B
:1010B000C9F028F0823049F18330D1F14BC029B317
:1010C00081E090E0062E02C0880F991F0A94E2F793
:1010D00030E08223932302C0959587956A95E2F7C5
:1010E000982F38C026B381E090E0062E02C0880F0A
:1010F000991F0A94E2F730E08223932302C095956A
:1011000087956A95E2F7982F25C023B381E090E098
:10111000062E02C0880F991F0A94E2F730E082235E
:10112000932302C0959587956A95E2F7982F12C090
:1011300020B381E090E0062E02C0880F991F0A9428
:10114000E2F730E08223932302C0959587956A9554
:10115000E2F7982F892F08951F93CF93DF93182FCD
:10116000D62FC0E04D2F6C2F812F0E947D07CF5FBF
:10117000C430C1F7DF91CF911F9108956F70813016
:1011800069F028F0823089F08330B1F008958BB394
:10119000807F8BBB8BB3682B6BBB089588B3807F3C
:1011A00088BB88B3682B68BB089585B3807F85BBF7
:1011B00085B3682B65BB089582B3807F82BB82B301
:1011C000682B62BB08951F93CF93DF93182FD62F00
:1011D000C4E04D2F6C2F812F0E947D07CF5FC83058
:1011E000C1F7DF91CF911F910895607F813069F041
:1011F00028F0823089F08330B1F008958BB38F707E
:101200008BBB8BB3682B6BBB089588B38F7088BB87
:1012100088B3682B68BB089585B38F7085BB85B391
:10122000682B65BB089582B38F7082BB82B3682B35
:1012300062BB08958EBB9FBB6DBB84E08CBBE19A03
:10124000E199FECF08958EBB9FBBE09A8DB30895C0
:10125000CF93C62F9FB790689FBF813041F120F098
:10126000823009F447C059C040E062E083E00E9448
:101270007D0785B78E7F85BF85B78D7F85BFC130E0
:1012800021F485B7816085BF0EC0C23021F485B7D7
:10129000826085BF08C0C33031F485B7816085BFE7
:1012A00085B7826085BF8BB780648BBF36C040E056
:1012B00063E083E00E947D0785B78B7F85BF85B79C
:1012C000877F85BFC13021F485B7846085BF0EC09C
:1012D000C23021F485B7886085BF08C0C33031F4BF
:1012E00085B7846085BF85B7886085BF8BB7806808
:1012F0008BBF13C040E062E081E00E947D07C230F6
:1013000021F484B78F7B84BF05C0C33019F484B740
:10131000806484BF8BB780628BBFCF9108958111A9
:1013200005C070933B0760933A070895813029F414
:1013300070933D0760933C0708957093390760935D
:10134000380708951F920F920FB60F9211242F9312
:101350003F934F935F936F937F938F939F93AF933D
:10136000BF93EF93FF93E0913A07F0913B07099504
:10137000FF91EF91BF91AF919F918F917F916F916D
:101380005F914F913F912F910F900FBE0F901F9043
:1013900018951F920F920FB60F9211242F933F931F
:1013A0004F935F936F937F938F939F93AF93BF936D
:1013B000EF93FF93E0913C07F0913D070995FF9172
:1013C000EF91BF91AF919F918F917F916F915F91BD
:1013D0004F913F912F910F900FBE0F901F90189536
:1013E0001F920F920FB60F9211242F933F934F939A
:1013F0005F936F937F938F939F93AF93BF93EF937D
:10140000FF93E0913807F09139070995FF91EF912B
:10141000BF91AF919F918F917F916F915F914F910C
:101420003F912F910F900FBE0F901F901895CF9363
:10143000C82F61110BC00E94AC0861E08C2F0E9484
:10144000E3086FE08C2F0E94BE080BC060E00E9492
:10145000E30861E08C2F0E94AC0860EF8C2F0E94A3
:10146000F508CF910895FF920F931F93CF93DF93C9
:10147000CDB7DEB760970FB6F894DEBF0FBECDBF15
:10148000082F80E1E0E6F0E0DE01119601900D9278
:101490008A95E1F7611116C0F12C60EF802F0E9450
:1014A000F50840E064E06F0D802F0E94EA0710E02D
:1014B000612F802F0E9457088823D1F01F5F1430BE
:1014C000B9F723C0F12C6FE0802F0E94BE0840E0E6
:1014D0006F2D802F0E94EA0710E064E0610F802FDB
:1014E0000E9457088823B9F01F5F1430B1F720C05D
:1014F000E1E0F0E0EC0FFD1F84E0F89EE00DF11D4F
:101500001124E10FF11D808118C0F39484E0F812DA
:10151000C4CF8FEF12C0E1E0F0E0EC0FFD1F84E0DC
:10152000F89EE00DF11D1124E10FF11D808105C031
:10153000F39484E0F812C7CF8FEF60960FB6F8945B
:10154000DEBF0FBECDBFDF91CF911F910F91FF90F6
:10155000089541E063E081E00E94EA078FE99FE09F
:101560000197F1F700C0000040E063E081E00E94D5
:10157000EA070895CF93C82F40E060E081E00E9421
:10158000EA0740E061E081E00E94EA076C2F80E01A
:101590000E94F5080E94A90A6C2F6295607F80E086
:1015A0000E94F5080E94A90ACF9108952FEF81EEBD
:1015B00094E0215080409040E1F700C0000041E0FD
:1015C00061E081E00E947D0741E060E081E00E94EF
:1015D0007D0741E063E081E00E947D0761E080E0FB
:1015E0000E94E30882E00E94BA0A8FE295E7019721
:1015F000F1F700C0000088E20E94BA0A8FEC97E081
:101600000197F1F700C000008EE00E94BA0A8FEC4B
:1016100097E00197F1F700C0000081E00E94BA0A4C
:101620008FE19EE40197F1F700C0000086E00E9480
:10163000BA0A0895CF93C82F40E060E081E00E948D
:10164000EA0741E061E081E00E94EA076C2F80E058
:101650000E94F5080E94A90A6C2F6295607F80E0C5
:101660000E94F5080E94A90ACF910895CF93DF93B5
:10167000EC018881882331F021960E941A0B899110
:101680008111FBCFDF91CF9108950F931F93CF93DB
:10169000DF93CDB7DEB727970FB6F894DEBF0FBE46
:1016A000CDBF9F938F937F936F9384E895E09F9333
:1016B0008F938E010F5F1F4F1F930F930E942C1269
:1016C000C8010E94360B0FB6F894DEBF0FBECDBF27
:1016D00027960FB6F894DEBF0FBECDBFDF91CF9136
:1016E0001F910F91089581E00E94BA0A8FE19EE454
:1016F0000197F1F700C000000895813019F48FE7D9
:10170000860F0CC0823019F48FEB860F07C0833030
:1017100019F48FE8860F02C08FEC860F0E94BA0A78
:10172000089541E00E947D07089541E00E94EA0784
:10173000089540E00E94EA0708950E9492000895EB
:101740000E94F100BC0180E090E00E94091120E0BD
:1017500030E040E85EE30E9497110E94DA10862F85
:10176000089589E40E9452100E945A100E94E40FCA
:1017700008950E94730B61E081E00E947D0B88E078
:1017800091E00E94360B68E081E00E947D0B89E1C8
:1017900091E00E94360B61E082E00E947D0B8AE2BC
:1017A00091E00E94360B68E082E00E947D0B8BE3A3
:1017B00091E00E94360B61E083E00E947D0B8CE497
:1017C00091E00E94360B68E083E00E947D0B8DE57E
:1017D00091E00E94360B61E084E00E947D0B8EE672
:1017E00093E00E94360B69E084E00E947D0B80E666
:1017F00092E00E94360B089561E081E00E947D0B2B
:1018000081E995E00E94360B61E082E00E947D0B49
:1018100082EA95E00E94360B0E94730B62E081E041
:101820000E947D0B81EB95E00E94360B62E082E026
:101830000E947D0B8DEB95E00E94360B62E083E009
:101840000E947D0B8BE094E00E94360B2FE789EA23
:1018500093E0215080409040E1F700C000000E94DA
:10186000B90B82E50E9452100E945A1089E40E942E
:1018700052100E945A100E945605089580E00E945E
:101880009D0B60E875E280E090E00E9418100E94D5
:10189000D60A61E082E00E94170A0E94780C63E099
:1018A00083E00E94910B64E083E00E94910B65E06D
:1018B00081E00E94910B62E083E00E94910B66E060
:1018C00083E00E94910B41E067E083E00E947D0786
:1018D00062E081E00E94141063E082E00E94280927
:1018E00061EB7BE082E00E948F090E94FC0BFFCF3E
:1018F0008D9A1DBC1CBC83EC99E097BD86BD82E827
:101900008FBD8BE18EBD08958B35B0F4682F70E0EC
:1019100080E090E00E940B112BE036E445EA5FE3A3
:101920000E94971120E030E046E353E40E946E10DD
:101930000E94DA107BBD6ABD08958B35B0F4682F24
:1019400070E080E090E00E940B112BE036E445EA65
:101950005FEB0E94971120E030E046E353E40E94E1
:101960006E100E94DA107BBD6ABD08950F931F931D
:10197000CF9302E217E0C3E061E082E00E94330A05
:1019800080931F072FEF81EE94E02150804090401C
:10199000E1F700C0000080911F078F3F69F30E94AC
:1019A0001A0BEFE7F9EA23E0E150F0402040E1F7BD
:1019B00000C000006C2F84E00E947D0B8AE20E9430
:1019C0001A0B80911F07F80181938F01CF5FC730F9
:1019D00099F6CF911F910F9108950F931F93CF9375
:1019E000DF93CAE2D7E00EE217E061E082E00E94F6
:1019F000330A80931F072FEF81EE94E0215080403F
:101A00009040E1F700C0000080911F078F3F69F30D
:101A10000E941A0B2FE789EA93E021508040904002
:101A2000E1F700C0000080911F078993C017D1071C
:101A3000E1F6DF91CF911F910F910895CF92DF9240
:101A4000EF92FF920F931F93CF93DF93F82ECAE28A
:101A5000D7E0082F000F000F000F005A10E00F2EE4
:101A6000FEE2CF2EF7E0DF2EF02D0F2EFBEAEF2E59
:101A7000F02D68816E256993C8010E941A090F5FD5
:101A80001F4FCC15DD05A9F702E217E0CF2DCC0FD3
:101A9000CC0FD0E00F2EF6E2CF2EF7E0DF2EF02DA8
:101AA0000F2EFBEAFF2EF02DF80160816F25619368
:101AB0008F01CE010E941A0921960C151D05A1F770
:101AC000DF91CF911F910F91FF90EF90DF90CF901A
:101AD0000895CF92DF92EF92FF920F931F93CF93CF
:101AE000DF93C82F082F000F000F000F005A10E0DF
:101AF0000F2EF6E2EF2EF7E0FF2EF02D0F2EFAE27A
:101B0000CF2EF7E0DF2EF02DDBEAC8010E9423097B
:101B10008D27F70181937F010F5F1F4FEC15FD05A6
:101B2000A1F7CC0FCC0FD0E003E317E00F2EF7E3C3
:101B3000CF2EF7E0DF2EF02D0F2EFBEAFF2EF02D3B
:101B4000CE010E9423098F25F80181938F012196F0
:101B5000EC15FD05A9F7DF91CF911F910F91FF9033
:101B6000EF90DF90CF9008950E94730B61E082E0C8
:101B70000E947D0B88EC95E00E94360B61E083E0CB
:101B80000E947D0B85ED95E00E94360B2FEF84E3DC
:101B90009CE0215080409040E1F700C000000E948E
:101BA000730B0E94CE0E08950E94730B83EE95E096
:101BB0000E94360B61E082E00E947D0B83EF95E08E
:101BC0000E94360B61E083E00E947D0B83E096E08B
:101BD0000E94360B61E084E00E947D0B88E496E071
:101BE0000E94360B2FE789EA93E021508040904015
:101BF000E1F700C000000E946806809342072FE7CB
:101C000089EA93E0215080409040E1F700C0000055
:101C100080914207823339F0833341F0813349F4B4
:101C20000E942B0E08950E94130108950E94B40D86
:101C300008950E94730B88E795E00E94360B2FE70A
:101C40008AE196E0215080409040E1F700C000001A
:101C50000E94D40D0895D1E01FEFC1E08D2F90E0D8
:101C6000FC013197E830F105D8F7E559FF4F0C94A6
:101C7000261210931F070E94730B8DE096E00E94BE
:101C8000360B6C2F82E00E947D0B8EE196E00E9465
:101C9000360B6C2F83E00E947D0B8FE296E00E9452
:101CA000360B6C2F84E00E947D0B8FE396E00E9440
:101CB000360B0E94680680931F072FEF81EE94E099
:101CC000215080409040E1F700C0000080911F0744
:101CD000813309F457C0823309F456C0833309F4C1
:101CE00055C0843309F454C0853309F453C0863396
:101CF00009F452C0803319F40E94D40D12C08F3FF2
:101D000009F4B9CF0E94730B88E795E00E94360B67
:101D10002FEF81EE94E0215080409040E1F700C029
:101D2000000080911F078053873008F0A4CF96CF22
:101D300010931F0783E00E947C06DC2F8FCF109347
:101D40001F0784E00E947C06DC2F88CF10931F07BA
:101D500085E00E947C06DC2F81CF10931F0786E070
:101D60000E947C06DC2F7ACF10931F0787E00E9429
:101D70007C06DC2F73CF10931F0788E00E947C063F
:101D8000DC2F6CCFD3E06ACFD4E068CFD5E066CF4C
:101D9000D6E064CFD7E062CFD8E060CF0E94730B6B
:101DA0008CE496E00E94360B61E082E00E947D0B9D
:101DB0008DE596E00E94360B61E083E00E947D0B8A
:101DC0008CE696E00E94360B61E084E00E947D0B79
:101DD00088E496E00E94360B0E94680680934007D4
:101DE0000E94690D2FEF31EE84E021503040804099
:101DF000E1F700C000000E94730B8BE796E00E94A1
:101E0000360B61E082E00E947D0B8BE896E00E9439
:101E1000360B0E94ED0CEAE2F7E0A6E2B7E02EE214
:101E200037E040E091918D91981301C04F5FE21728
:101E3000F307C1F74093210761E083E00E947D0B27
:101E40008EE896E00E94360B61E084E00E947D0BF4
:101E50008BE896E00E94360B0E94B60CE2E2F7E0B7
:101E6000A3E3B7E026E237E040E091918D9198132B
:101E700001C04F5FE217F307C1F7409332070E949A
:101E8000730B80913207843091F580912107843063
:101E900071F564E083E00E94950B63E083E00E94AB
:101EA000990B65E081E00E94990B8EE996E00E9413
:101EB000360B61E082E00E947D0B8FEA96E00E9483
:101EC000360B61E083E00E947D0B86ED95E00E9479
:101ED000360B9FE72AE136E0915020403040E1F791
:101EE00000C0000010921E070E94D40D25C08091F2
:101EF0001E078F5F80931E0786EB96E00E94360BCD
:101F000061E082E00E947D0B85EC96E00E94360B3A
:101F100061E083E00E947D0B8DEC96E00E94360B21
:101F200080911E0763E070E0681B7109072E000CAA
:101F3000880B990B0E94450B80911E078330C1F5D9
:101F400010921E070E94730B88ED96E00E94360BDC
:101F500061E082E00E947D0B86EE96E00E94360BE7
:101F600061E083E00E947D0B87E492E00E94360BE3
:101F700065E081E00E94950B64E083E00E94990B8C
:101F800063E083E00E94990B41E067E083E00E94F8
:101F9000EA078AEA96EE26E931E081509040204037
:101FA0003040D9F7000040E067E083E00E94EA0794
:101FB0000E94CE0E8FEF90E722E0815090402040AB
:101FC000E1F700C0000008950E94730B80E590E0E7
:101FD0000E942309809337078823B1F081EF96E0B0
:101FE0000E94360B61E082E00E947D0B8DEF96E04F
:101FF0000E94360B2FE789EA93E021508040904001
:10200000E1F700C0000008958DE097E00E94360BD4
:102010002FE789EA93E0215080409040E1F700C02B
:1020200000000E94CE0E089540E00E947D070895B2
:1020300020B52F7720BD20B52F7B20BDDC01CB0143
:10204000880F991FAA1FBB1F880F991FAA1FBB1FAC
:102050009C01AD01220F331F441F551F220F331F58
:10206000441F551F60E072E18AE790E00E9404126D
:102070002150310980B5826080BD80B5846080BD0B
:10208000529880B58F7E80BD80B58F7D80BD80B534
:10209000886080BD539A549A80B5806880BD30BDF9
:1020A00029B908955D9BFECF8CB908955F9BFECF43
:1020B0008CB10895569A0895579A0895CF93DF9357
:1020C000EC018881882331F021960E945210899179
:1020D0008111FBCFDF91CF9108955058BB27AA27DC
:1020E0000E9485100C945D110E944F1138F00E94DF
:1020F000561120F039F49F3F19F426F40C944C113A
:102100000EF4E095E7FB0C944611E92F0E946E1146
:1021100058F3BA17620773078407950720F079F41C
:10212000A6F50C9490110EF4E0950B2EBA2FA02D6D
:102130000B01B90190010C01CA01A0011124FF2774
:10214000591B99F0593F50F4503E68F11A16F0406F
:10215000A22F232F342F4427585FF3CF469537956E
:102160002795A795F0405395C9F77EF41F16BA0B33
:10217000620B730B840BBAF09150A1F0FF0FBB1FE1
:10218000661F771F881FC2F70EC0BA0F621F731F2A
:10219000841F48F4879577956795B795F7959E3F87
:1021A00008F0B0CF9395880F08F09927EE0F979518
:1021B000879508950E94761188F09F5798F0B92F5F
:1021C0009927B751B0F0E1F0660F771F881F991F6C
:1021D0001AF0BA95C9F714C0B13091F00E9490116D
:1021E000B1E008950C949011672F782F8827B85F7D
:1021F00039F0B93FCCF3869577956795B395D9F7C4
:102200003EF490958095709561957F4F8F4F9F4FCD
:102210000895E89409C097FB3EF4909580957095D9
:1022200061957F4F8F4F9F4F9923A9F0F92F96E922
:10223000BB279395F695879577956795B795F11197
:10224000F8CFFAF4BB0F11F460FF1BC06F5F7F4F34
:102250008F4F9F4F16C0882311F096E911C0772346
:1022600021F09EE8872F762F05C0662371F096E84F
:10227000862F70E060E02AF09A95660F771F881F1E
:10228000DAF7880F9695879597F9089597F99F67DC
:1022900080E870E060E008959FEF80EC08950024EE
:1022A0000A941616170618060906089500240A94BB
:1022B00012161306140605060895092E0394000C41
:1022C00011F4882352F0BB0F40F4BF2B11F460FFD0
:1022D00004C06F5F7F4F8F4F9F4F089557FD9058F9
:1022E000440F551F59F05F3F71F04795880F97FBDA
:1022F000991F61F09F3F79F0879508951216130694
:102300001406551FF2CF4695F1DF08C016161706C2
:102310001806991FF1CF86957105610508940895F7
:10232000E894BB2766277727CB0197F908950E9489
:10233000AA110C945D110E944F1138F00E945611A1
:1023400020F0952311F00C9446110C944C1111249B
:102350000C9491110E946E1170F3959FC1F3950F2B
:1023600050E0551F629FF001729FBB27F00DB11D19
:10237000639FAA27F00DB11DAA1F649F6627B00DA9
:10238000A11D661F829F2227B00DA11D621F739F92
:10239000B00DA11D621F839FA00D611D221F749FA0
:1023A0003327A00D611D231F849F600D211D822FE7
:1023B000762F6A2F11249F5750409AF0F1F088230E
:1023C0004AF0EE0FFF1FBB1F661F771F881F91503B
:1023D0005040A9F79E3F510580F00C9446110C9493
:1023E00091115F3FE4F3983ED4F386957795679516
:1023F000B795F795E7959F5FC1F7FE2B880F911D65
:102400009695879597F90895A1E21A2EAA1BBB1BF2
:10241000FD010DC0AA1FBB1FEE1FFF1FA217B307B0
:10242000E407F50720F0A21BB30BE40BF50B661FC6
:10243000771F881F991F1A9469F76095709580958A
:1024400090959B01AC01BD01CF010895EE0FFF1FD8
:102450000590F491E02D0994AEE0B0E0E2E3F2E102
:102460000C94ED140D891E8986E08C831A830983F0
:102470008FEF9FE79E838D83AE01475E5F4F6F892D
:10248000788DCE0101960E944E12EF81F885E00F03
:10249000F11F10822E96E4E00C940915ABE0B0E039
:1024A000E4E5F2E10C94DF146C017B018A01FC018C
:1024B00017821682838181FFCCC1CE0101963C0137
:1024C000F6019381F70193FD859193FF81917F013F
:1024D000882309F4BAC1853239F493FD859193FFBD
:1024E00081917F01853229F4B60190E00E94451464
:1024F000E7CF912C212C312CFFE1F315D8F08B3252
:1025000079F038F4803279F08332A1F4232D206100
:102510001DC08D3261F0803369F4232D216016C017
:10252000832D8260382EE32DE4603E2E2AC0F32DE9
:10253000F8601DC037FC2DC020ED280F2A3040F078
:102540008E32B9F436FC81C1232D2064322E19C09D
:1025500036FE06C08AE0989E200D1124922E11C0EE
:10256000EAE02E9E200D1124222EF32DF0623F2E44
:1025700008C08C3621F4832D8068382E02C088363E
:1025800041F4F70193FD859193FF81917F018111C2
:10259000B3CF982F9F7D9554933028F40C5F1F4F35
:1025A0009FE399830DC0833631F0833771F0833513
:1025B00009F059C021C0F801808189830E5F1F4F47
:1025C00088248394912C530113C02801F2E04F0E0C
:1025D000511CF801A080B18036FE03C0692D70E067
:1025E00002C06FEF7FEFC5010E943A144C018201D7
:1025F000F32DFF773F2E16C0280122E0420E511C1A
:10260000F801A080B18036FE03C0692D70E002C0E1
:102610006FEF7FEFC5010E942F144C01F32DF0687E
:102620003F2E820133FC1BC0822D90E08816990654
:10263000B0F4B60180E290E00E9445142A94F4CFF1
:10264000F50137FC859137FE81915F01B60190E07D
:102650000E94451421102A9421E0821A91088114C5
:10266000910471F7E8C0843611F0893641F5F8011C
:1026700037FE07C060817181828193810C5F1F4F9B
:1026800008C060817181072E000C880B990B0E5FCA
:102690001F4FF32DFF763F2E97FF09C09095809531
:1026A000709561957F4F8F4F9F4FF0683F2E2AE0C6
:1026B00030E0A3010E948114882E861845C085371A
:1026C00031F4232D2F7EB22E2AE030E025C0932D49
:1026D000997FB92E8F36C1F018F4883579F0B5C0DE
:1026E000803719F0883721F0B0C0E92FE061BE2EA5
:1026F000B4FE0DC0FB2DF460BF2E09C034FE0AC02D
:10270000292F2660B22E06C028E030E005C020E167
:1027100030E002C020E132E0F801B7FE07C060817E
:102720007181828193810C5F1F4F06C0608171812E
:1027300080E090E00E5F1F4FA3010E948114882E5D
:102740008618FB2DFF773F2E36FE0DC0232D2E7FE2
:10275000A22E891458F434FE0BC032FC09C0832D1C
:102760008E7EA82E05C0B82CA32C03C0B82C01C0A7
:10277000B92CA4FE0FC0FE01E80DF11D808180334D
:1027800021F49A2D997EA92E09C0A2FE06C0B39409
:10279000B39404C08A2D867809F0B394A3FC11C0C9
:1027A000A0FE06C0B21488F4280C922C9B180EC010
:1027B000B21460F4B60180E290E00E944514B39434
:1027C000F7CFB21418F42B1802C0982C212CA4FEB9
:1027D00010C0B60180E390E00E944514A2FE17C02D
:1027E000A1FC03C088E790E002C088E590E0B60154
:1027F0000CC08A2D867859F0A1FE02C08BE201C080
:1028000080E2A7FC8DE2B60190E00E944514891495
:1028100038F4B60180E390E00E9445149A94F7CF13
:102820008A94F301E80DF11D8081B60190E00E94C9
:1028300045148110F5CF222009F442CEB60180E282
:1028400090E00E9445142A94F6CFF6018681978184
:1028500002C08FEF9FEF2B96E2E10C94FB14FC017A
:102860000590615070400110D8F7809590958E0FBB
:102870009F1F0895FC016150704001900110D8F72E
:10288000809590958E0F9F1F08950F931F93CF9360
:10289000DF93FB01238121FD03C08FEF9FEF2CC04D
:1028A00022FF16C046815781248135814217530784
:1028B00044F4A081B1819D012F5F3F4F318320837C
:1028C0008C93268137812F5F3F4F3783268314C037
:1028D0008B01EC01FB010084F185E02D0995892B2A
:1028E000E1F6D80116968D919C911797019617964F
:1028F0009C938E931697CE01DF91CF911F910F91EC
:102900000895FA01AA27283051F1203181F1E89485
:102910006F936E7F6E5F7F4F8F4F9F4FAF4FB1E0D2
:102920003ED0B4E03CD0670F781F891F9A1FA11DCD
:10293000680F791F8A1F911DA11D6A0F711D811DCE
:10294000911DA11D20D009F468943F912AE0269F93
:1029500011243019305D3193DEF6CF010895462FF2
:102960004770405D4193B3E00FD0C9F7F6CF462FD3
:102970004F70405D4A3318F0495D31FD405241933C
:1029800002D0A9F7EACFB4E0A695979587957795F9
:102990006795BA95C9F700976105710508959B0180
:1029A000AC010A2E06945795479537952795BA9509
:1029B000C9F7620F731F841F951FA01D08952F92E2
:1029C0003F924F925F926F927F928F929F92AF92BF
:1029D000BF92CF92DF92EF92FF920F931F93CF930C
:1029E000DF93CDB7DEB7CA1BDB0B0FB6F894DEBFA3
:1029F0000FBECDBF09942A88398848885F846E84C9
:102A00007D848C849B84AA84B984C884DF80EE8012
:102A1000FD800C811B81AA81B981CE0FD11D0FB61B
:102A2000F894DEBF0FBECDBFED010895F894FFCF3F
:102A300037383941343536423132334345304D44ED
:102A400057726F6E672043686F6963650054656DE8
:102A50007065726174757265203D00430046414E99
:102A6000204F4E20005072657373203020746F2009
:102A70004261636B0046414E204F46462000523172
:102A80003A205A2026207A20202052323A20422012
:102A900026206220202052333A204620262066201D
:102AA000202052343A204420262064202020523511
:102AB0003A2045202620652052363A2047202620FD
:102AC00067202020302E546F2052657475726E007E
:102AD00052313A204F4E200052313A204F464600A4
:102AE0002052323A204F4E20002052323A204F4698
:102AF000460052333A204F4E200052333A204F4680
:102B000046002052343A204F4E20002052343A20C2
:102B10004F46460052353A204F4E200052353A205B
:102B20004F4646002052363A204F4E200020523663
:102B30003A204F464600312E4F70656E696E672011
:102B4000446F6F72202000322E526F6F6D204C69DF
:102B5000676874696E672000332E41697220636F65
:102B60006E646974696F6E2000342E5265747572DC
:102B70006E202020202020202000312E436F6E74F4
:102B8000726F6C20486F6D6520202020202020006F
:102B9000322E41646420757365722020202020202D
:102BA000202020202000332E52656D6F7665207521
:102BB000736572202020202020202000342E4C6FAE
:102BC00067206F75742020202020202020202020C6
:102BD0002000436F72726563742050617373776F66
:102BE0007264200050617373776F72642057726F44
:102BF0006E6720002032200020312000203020008D
:102C00004C6F636B206D6F646521212000747279B5
:102C100020616761696E20616674657220323020C0
:102C20007365636F6E642000414C3A204F4E200064
:102C3000414C3A204F464600456E746572205573EC
:102C400065724E616D653A2000456E746572205064
:102C5000617373776F7264200070726573732041C3
:102C600020666F722041646D696E204C6F67696EDB
:102C70002026205520666F722055736572206C6F78
:102C800067696E00312E526F6F6D204C69676874F2
:102C9000696E67202020322E41697220636F6E6456
:102CA0006974696F6E202020332E4C6F674F7574E6
:102CB00000456E746572205573657220496420006A
:102CC000456E74657220557365724E616D652000A6
:102CD0002074726965732072656D61696E7320007E
:102CE00041697220636F6E646974696F6E204F4E24
:102CF00020202020202020202020202020202020D4
:102D000020202020202020202020202020202020C3
:102D100020202020202020202020202020202020B3
:102D20002020004169723A4F4E20004169722063B1
:102D30006F6E646974696F6E206F6666200041690A
:102D4000723A4F464620002D2D2D20506C65617340
:102D5000652C205365742041646D696E202D2D2DE6
:102D60000053657420557365724E616D653A20009D
:102D70005365742050617373776F72643A20004119
:102D8000646D696E20536574205375636365737356
:102D900066756C6C792000507265737320412066F3
:102DA0006F722041646D696E204C6F67696E2026DA
:102DB000205520666F722075736572206C6F67698D
:102DC0006E00456E7465722050617373776F726424
:102DD00000557365722041646465642053756363B4
:102DE00065737366756C6C7920005573657220523B
:102DF000656D6F7665205375636365737366756C77
:102E00006C792000312E206F70656E20546865202B
:102E1000646F6F7220202020322E436C6F73652008
:102E200074686520646F6F7220202020302E5265F8
:102E30007475726E0054686520646F6F72206973D8
:102E4000206F70656E202020202020202020202050
:102E50002020202020202020202020202020202072
:102E60002020202020202020202020202020202062
:102E70002020202020202020202020202020202052
:102E8000202020200054686520646F6F72206973D1
:102E900020636C6F73656420202020202020202078
:102EA0002020202020202020202020202020202022
:102EB0002020202020202020202020202020202012
:102EC0002020202020202020202020202020202002
:102ED00020202000526F6F6D312053746174757320
:102EE0003A00526F6F6D32205374617475733A00FB
:102EF000526F6F6D33205374617475733A00526F63
:102F00006F6D34205374617475733A00526F6F6D36
:102F100035205374617475733A00526F6F6D3620AB
:102F20005374617475733A004F4E003E3E20312D4C
:102F30004F6E20003E3E20322D4F666620003E3E02
:102F400020302D524554200057726F6E6720696EF5
:102F500070757400256400257325642E2530346453
:102F6000002057656C636F6D6520746F204F44437C
:102F70002000202020736D61727420686F6D6520C1
:102F80000020636F6E6E6563746564200020726557
:102F90006D6F74656C792000204C6F6767656420E5
:102FA0004F75742000205375636365737366756C89
:102FB0006C7900312E526F6F6D204C6967687469AF
:102FC0006E6700322E41697220436F6E64697469C6
:102FD0006F6E00332E4C6F67204F757400313A527C
:102FE0006F6F6D3120323A526F6F6D322000333A7D
:102FF000526F6F6D3320343A526F6F6D342000354D
:103000003A526F6F6D3520363A526F6F6D36003021
:103010003A52657475726E203E3E20002D2D20556B
:10302000736572204C4F47494E202D2D0049442096
:1030300066726F6D2028302D39292000456E746529
:103040007220557365722049443A00456E7465726A
:1030500020557365724E616D653A003E3E00456EC7
:103060007465722050617373776F72643A00436FB6
:1030700072726563742050617373776F7264004C71
:103080006F67696E200057726F6E6720706173738F
:10309000776F7264006F7220757365720052656D90
:1030A0002074696D65733A004C6F636B6564204DE5
:1030B0006F646521210074727920616761696E20F7
:1030C000002D2D20536F727279202D2D00536574C1
:1030D0002041646D696E204669727374002D2D2045
:0E30E00055736572204C6F67696E202D2D00B0
:0400000300001FC812
:00000001FF
