:100000000C9473000C9490000C9490000C9490004D
:100010000C9490000C9490000C9490000C94900020
:100020000C9490000C9490000C9490000C94900010
:100030000C9490000C9490000C9490000C94900000
:100040000C9490000C9490000C9490000C949000F0
:100050000C949000A100A900B000B700C000C70038
:10006000D000D9003F02CA02770293025B02AF02BE
:10007000CA02CA02CA02CA02CA02CA02CA02CA0220
:10008000CA02CA02CA02CA02CA02CA02CA02CA0210
:10009000CA02CA022302CA02CA02CA02CA02CA02A7
:1000A000CA02CA024D02CA028502A1026902BD0249
:1000B000CA02CA02CA02CA02CA02CA02CA02CA02E0
:1000C000CA02CA02CA02CA02CA02CA02CA02CA02D0
:1000D000CA02CA023102F00EE70E580F5F0F660F18
:1000E0006D0F740F7B0F11241FBECFE5D8E0DEBF6C
:1000F000CDBF17E0A0E6B0E0E0EDFDE202C0059064
:100100000D92A23EB107D9F728E0A2EEB7E001C0F8
:100110001D92A330B207E1F70E94690B0C94E6161A
:100120000C940000E82F87B1807E87B98E2F90E075
:100130008830910508F045C0FC01E65DFF4F0C9446
:10014000F61340E060E080E00E94670787B187B95E
:1001500038C040E061E080E00E946707389A31C013
:1001600040E062E080E00E946707399A2AC040E0E0
:1001700063E080E00E94670787B1836087B921C090
:1001800040E064E080E00E9467073A9A1AC040E0CD
:1001900065E080E00E94670787B1856087B911C07C
:1001A00040E066E080E00E94670787B1866087B91B
:1001B00008C040E067E080E00E94670787B1876081
:1001C00087B986B1887F86B986B1836086B987B1E1
:1001D000887F87B987B1806C87B93D98359A379AFF
:1001E0000895369A349BFECF349A84B125B190E0BD
:1001F000922B08950E946E0A80E790E00E94310AD7
:1002000061E070E082E090E00E94780A8CE790E084
:100210000E94310A61E070E083E090E00E94780A79
:100220008CE890E00E94310A61E070E084E090E0A8
:100230000E94780A8CE990E00E94310A86E097E0FB
:100240000E94310A0E9452068093E407823361F0D3
:1002500018F4813331F011C0833349F0843351F005
:100260000CC00E94761108950E94E20E08950E942B
:10027000710108950E94380D08950E946E0A85EA62
:1002800090E00E94310A2FEF81EE94E021508040EF
:100290009040E1F700C000000E94FA0008958091AC
:1002A000E507803361F40E94DF0C813019F40E946D
:1002B000FA000895811114C00E94940E08950E94BE
:1002C0006E0A85EA90E00E94310A2FE789EA93E0FE
:1002D000215080409040E1F700C000000E94710171
:1002E00008950E9446070E94D10980E00E94980A62
:1002F0000E946E0AD1E003C0DC2F01C0DC2F61E058
:1003000082E00E942E098093E5078F3F09F060C0CC
:100310000E949B0AC82FD81779F361E081E00E9400
:10032000780A82EB90E00E94310A6C2F70E080E046
:1003300090E00E94400A80EC90E00E94310ACC31AB
:1003400010F162E070E083E090E00E94900A61E0CA
:1003500082E00E94780A82EC90E00E94310A0E94BA
:10036000510761E083E00E94780A8AEC90E00E94E5
:10037000310A61E084E00E94780A87E097E00E94F9
:10038000310ADC2FBCCFC63108F0B8CF62E070E094
:1003900083E090E00E94940A61E082E00E94780A83
:1003A0008AED90E00E94310A0E945C0761E083E0E0
:1003B0000E94780A8AEC90E00E94310A61E084E0B1
:1003C0000E94780A87E097E00E94310ADC2F97CFDD
:1003D0000E944F0194CF0E9426128093E5070E944D
:1003E0002C120E9426128093E5070E942C120E9474
:1003F00026128093E5070E942C128091E50708954C
:1004000081E09091E607913009F080E0089583EE55
:1004100090E00E942E120E942A12BCC00E94261256
:100420008093E5070E942C12E091E5078E2F90E063
:10043000FC01E254F109E933F10508F0ABC0EE5CD0
:10044000FF4F0C94F61361E081E00E94780A85E387
:1004500091E00E94310A8AE50E9422120E942A122B
:1004600099C061E081E00E94780A8DE391E00E94EA
:10047000310A8AE70E9422120E942A128BC082E46B
:100480000E9422120E942A1268E081E00E94780AEB
:1004900085E491E00E94310A7DC082E60E9422122A
:1004A0000E942A1268E081E00E94780A8EE491E0BE
:1004B0000E94310A6FC086E40E9422120E942A1212
:1004C00061E082E00E94780A87E591E00E94310AAB
:1004D00061C086E60E9422120E942A1261E082E038
:1004E0000E94780A8FE591E00E94310A53C084E4AB
:1004F0000E9422120E942A1268E082E00E94780A7A
:1005000087E691E00E94310A45C084E60E942212EB
:100510000E942A1268E082E00E94780A80E791E057
:100520000E94310A37C085E40E9422120E942A12DA
:1005300061E083E00E94780A89E791E00E94310A35
:1005400029C085E60E9422120E942A1261E083E0FF
:100550000E94780A81E891E00E94310A1BC087E47A
:100560000E9422120E942A1268E083E00E94780A08
:1005700089E891E00E94310A0DC087E60E942212AC
:100580000E942A1268E083E00E94780A82E991E0E2
:100590000E94310A8091E507803309F03FCF0E9425
:1005A0000002813019F40E9421030895811102C0D4
:1005B0000E94570408958BE991E00E942E120E9438
:1005C0002A128CEA91E00E942E120E942A128EEBCF
:1005D00091E00E942E120E942A1280ED91E00E946A
:1005E0002E120E942A120E9426128093E5070E9472
:1005F0002C120E9426128093E5070E942C120E9462
:1006000026128093E5070E942C128091E507823321
:1006100061F018F4813331F011C0833349F0843331
:1006200051F00CC00E94260608950E94070208950A
:100630000E94630508950E94210308950E94DB0231
:10064000089581EE91E00E942E120E942A1287EFF7
:1006500091E00E942E120E942A128DE092E00E94E8
:100660002E120E9426128093E5070E942C120E94EF
:1006700026128093E5070E942C120E942612809376
:10068000E5070E942C128091E507823339F083330D
:1006900041F0813341F40E94DB0208950E94CF05AE
:1006A00008950E943904089580E00E94960CE0EFBE
:1006B000F7E0ACEEB7E024EF37E060E091918D9188
:1006C000981301C06F5FE217F307C1F76093E70764
:1006D000E8EEF7E0A9EFB7E04CEE57E020E09191AB
:1006E0008D91981301C02F5FE417F507C1F7209390
:1006F000F8072430C9F46430B9F483E292E00E9430
:100700002E120E942A1263E083E00E94900A64E0A5
:1007100083E00E94940A65E081E00E94940A1092AE
:10072000E3070E94210308958091E3078F5F809380
:10073000E30785E392E00E942E120E942A12809124
:10074000E307813029F485E492E00E942E120DC067
:10075000823029F489E492E00E942E1206C0833090
:1007600021F48DE492E00E942E1284E093E00E9436
:100770002E120E942A128091E3078330C1F5109255
:10078000E30781E592E00E942E120E942A1265E0A2
:1007900081E00E94900A63E083E00E94940A64E092
:1007A00083E00E94940A41E067E083E00E94D4075E
:1007B00069E084E00E94780A8DE592E00E94310AA7
:1007C0002AEA36EE86E991E02150304080409040A0
:1007D000D9F7000040E067E083E00E94D40769E0B9
:1007E00084E00E94780A84E692E00E94310A0E9426
:1007F000FA030895CF93DF938CE692E00E942E12C5
:100800000E942A120E94EB01C0EFD7E08091E50719
:1008100088830E94EB018091E50789830E94EB01A8
:100820008091E5078A830E94EB018091E5078B8325
:100830008DE792E00E942E120E942A120E94EB0184
:10084000C8EED7E08091E50788830E94EB01809194
:10085000E50789830E94EB018091E5078A830E9466
:10086000EB018091E5078B830E945403DF91CF91C8
:1008700008958CE892E00E942E120E942A120E9493
:10088000EB010E942C128091E507813431F481E064
:100890008093E6070E94FA030895853529F41092A3
:1008A000E6070E94750408950E943904089587EBB5
:1008B00092E00E942E120E942A120E94EB010E94D6
:1008C0002C128091E507823339F0833341F0813374
:1008D00049F40E94070208950E94630508950E944A
:1008E000390408950E94570408951F93CF93DF930E
:1008F00084EE92E00E942E120E942A120E94EB01C6
:100900001091E50783EF92E00E942E120E942A12B6
:100910000E94EB01C0EFD7E08091E50788830E9439
:10092000EB018091E50789830E94EB018091E50747
:100930008A830E94EB018091E5078B838DE792E02B
:100940000E942E120E942A120E94EB01C8EED7E0EC
:100950008091E50788830E94EB018091E5078983F8
:100960000E94EB018091E5078A830E94EB01809150
:10097000E5078B83812F0E94960CE0EFF7E0ACEE49
:10098000B7E024EF37E060E091918D91981301C0BA
:100990006F5FE217F307C1F76093E707E8EEF7E050
:1009A000A9EFB7E04CEE57E020E091918D919813BC
:1009B00001C02F5FE417F507C1F72093F807243033
:1009C000C9F46430B9F483E292E00E942E120E94CE
:1009D0002A1264E083E00E94900A63E083E00E94B0
:1009E000940A65E081E00E94940A1092E3070E9455
:1009F000570465C08091E3078F5F8093E30785E329
:100A000092E00E942E120E942A128091E307813008
:100A100029F485E492E00E942E120DC0823029F460
:100A200089E492E00E942E1206C0833021F48DE406
:100A300092E00E942E1283E093E00E942E120E9408
:100A40002A128091E3078330C1F51092E30781E514
:100A500092E00E942E120E942A1265E081E00E941C
:100A6000900A63E083E00E94940A64E083E00E94BD
:100A7000940A41E067E083E00E94D4076AE084E0E2
:100A80000E94780A8DE592E00E94310A2AEA36EE49
:100A900086E991E02150304080409040D9F7000035
:100AA00040E067E083E00E94D4076AE084E00E94AF
:100AB000780A84E692E00E94310A0E947504DF9170
:100AC000CF911F9108950E94460780E00E94980AE6
:100AD000D1E001C0DC2F0E949B0AC82F8D17D9F3EB
:100AE0008C31A8F083E193E00E942E120E942A121A
:100AF00061E084E00E94780A86E593E00E94310A72
:100B000062E083E00E94900A0E94510716C086317D
:100B1000A0F48EE593E00E942E120E942A1261E05A
:100B200084E00E94780A80EA93E00E94310A62E041
:100B300083E00E94940A0E945C070E9400028130B8
:100B400019F40E942103C6CF8111C4CF0E9457041B
:100B5000C1CF89EA93E00E942E120E942A120E94BD
:100B600026128093E5070E942C128091E5078134BC
:100B700031F481E08093E6070E94FA0308958535F9
:100B800029F41092E6070E947504089585EA90E022
:100B90000E942E120E942A120E94A90508951F93F6
:100BA000CF93DF9384EE92E00E942E120E942A12CD
:100BB0000E94EB011091E50784ED93E00E942E1254
:100BC0000E942A120E94EB01C0EFD7E08091E50756
:100BD00088830E94EB018091E50789830E94EB01E5
:100BE0008091E5078A830E94EB018091E5078B8362
:100BF0008DE792E00E942E120E942A120E94EB01C1
:100C0000C8EED7E08091E50788830E94EB018091D0
:100C1000E50789830E94EB018091E5078A830E94A2
:100C2000EB018091E5078B83812F0E94440C812F7B
:100C30000E94960C80EE93E00E942E120E942A12CF
:100C40000E942103DF91CF911F91089589EF93E0D6
:100C50000E942E120E942A120E94EB018091E50749
:100C6000813351F48AE50E94AA0B8AE294E00E9443
:100C70002E120E942C1213C0823351F48AE50E9476
:100C8000C30B8AE794E00E942E120E942C1207C028
:100C9000803319F40E94210302C00E9426060E949C
:100CA0002103089561E082E00E942E098093E50708
:100CB0002FE789EA93E0215080409040E1F700C09F
:100CC00000008091E5078F3F69F308959F92AF92EE
:100CD000BF92CF92DF92EF92FF920F931F93CF9329
:100CE000DF93C82FF12C00E010E00F2EF3E19F2ED0
:100CF000F02D0F2EF5E1AF2EF02D0F2EF4E1BF2ECB
:100D0000F02D0F2EF6E1CF2EF02D0F2EF1E1DF2E7C
:100D1000F02D0F2EF2E1EF2EF02D0E946E0AC5305D
:100D200011F128F4C33049F0C43091F047C0C73006
:100D300081F120F1C830C1F141C089EC94E00E94FA
:100D4000310A0F2EF1E3FF2EF02D01E21D2D36C0EA
:100D500087ED94E00E94310A0F2EF2E3FF2EF02D72
:100D600002E21E2D2BC085EE94E00E94310A0F2E68
:100D7000F3E3FF2EF02D03E2192D20C083EF94E062
:100D80000E94310A0F2EF4E3FF2EF02D04E21B2DFA
:100D900015C081E095E00E94310A0F2EF5E3FF2E89
:100DA000F02D05E21A2D0AC08FE095E00E94310A6D
:100DB0000F2EF6E3FF2EF02D06E21C2D812F0E9450
:100DC00022120E942A120E942612D82F0E942C1250
:100DD000D13029F481E692E00E94310A04C081E416
:100DE00091E00E94310A61E082E00E94780A8DE180
:100DF00095E00E94310A61E083E00E94780A86E271
:100E000095E00E94310A61E084E00E94780A80E364
:100E100095E00E94310A86E097E00E94310A0E9424
:100E200052068093E507813331F4802F0E9422120D
:100E30000E942A1219C0823331F48F2D0E9422128F
:100E40000E942A1211C08033A9F00E946E0A8AE320
:100E500095E00E94310A2FEF89E698E12150804009
:100E60009040E1F700C000008091E5078053833097
:100E700008F053CFDF91CF911F910F91FF90EF902A
:100E8000DF90CF90BF90AF909F90089541E066E0D3
:100E900081E00E94670741E067E081E00E94670708
:100EA000089541E066E081E00E94D40740E067E0F9
:100EB00081E00E94D407089540E066E081E00E944E
:100EC000D40740E067E081E00E94D40708958130B4
:100ED00001F130F08230B1F1833009F44CC0089553
:100EE000413059F42AB381E090E002C0880F991F85
:100EF0006A95E2F7822B8ABB08952AB381E090E0DD
:100F000002C0880F991F6A95E2F7809582238ABBF9
:100F10000895413059F427B381E090E002C0880F72
:100F2000991F6A95E2F7822B87BB089527B381E06A
:100F300090E002C0880F991F6A95E2F7809582239E
:100F400087BB0895413059F424B381E090E002C09A
:100F5000880F991F6A95E2F7822B84BB089524B30A
:100F600081E090E002C0880F991F6A95E2F78095B2
:100F7000822384BB0895413059F421B381E090E08D
:100F800002C0880F991F6A95E2F7822B81BB0895F2
:100F900021B381E090E002C0880F991F6A95E2F7C3
:100FA0008095822381BB0895813001F130F0823039
:100FB000B1F1833009F44CC00895413059F42BB39A
:100FC00081E090E002C0880F991F6A95E2F7822BBA
:100FD0008BBB08952BB381E090E002C0880F991F6E
:100FE0006A95E2F7809582238BBB0895413059F4CE
:100FF00028B381E090E002C0880F991F6A95E2F75C
:10100000822B88BB089528B381E090E002C0880F4E
:10101000991F6A95E2F78095822388BB0895413035
:1010200059F425B381E090E002C0880F991F6A95BA
:10103000E2F7822B85BB089525B381E090E002C0E2
:10104000880F991F6A95E2F78095822385BB0895E2
:10105000413059F422B381E090E002C0880F991F1B
:101060006A95E2F7822B82BB089522B381E090E07B
:1010700002C0880F991F6A95E2F78095822382BB90
:1010800008958130C9F028F0823049F18330D1F1E0
:101090004BC029B381E090E0062E02C0880F991F53
:1010A0000A94E2F730E08223932302C09595879556
:1010B0006A95E2F7982F38C026B381E090E0062EBB
:1010C00002C0880F991F0A94E2F730E0822393232D
:1010D00002C0959587956A95E2F7982F25C023B3AE
:1010E00081E090E0062E02C0880F991F0A94E2F773
:1010F00030E08223932302C0959587956A95E2F7A5
:10110000982F12C020B381E090E0062E02C0880F15
:10111000991F0A94E2F730E08223932302C0959549
:1011200087956A95E2F7982F892F08951F93CF939B
:10113000DF93182FD62FC0E04D2F6C2F812F0E94E8
:101140006707CF5FC430C1F7DF91CF911F9108953A
:101150006F70813069F028F0823089F08330B1F00F
:1011600008958BB3807F8BBB8BB3682B6BBB0895CB
:1011700088B3807F88BB88B3682B68BB089585B32C
:10118000807F85BB85B3682B65BB089582B3807F64
:1011900082BB82B3682B62BB08951F93CF93DF930A
:1011A000182FD62FC4E04D2F6C2F812F0E94670778
:1011B000CF5FC830C1F7DF91CF911F910895607F55
:1011C000813069F028F0823089F08330B1F00895E1
:1011D0008BB38F708BBB8BB3682B6BBB089588B3BD
:1011E0008F7088BB88B3682B68BB089585B38F70F8
:1011F00085BB85B3682B65BB089582B38F7082BBB6
:1012000082B3682B62BB08958EBB9FBB6DBB84E02D
:101210008CBBE19AE199FECF08958EBB9FBBE09A0B
:101220008DB30895CF93C82F61110BC00E9496080B
:1012300061E08C2F0E94CD086FE08C2F0E94A808DF
:101240000BC060E00E94CD0861E08C2F0E949608E0
:1012500060EF8C2F0E94DF08CF910895FF920F93CB
:101260001F93CF93DF93CDB7DEB760970FB6F89497
:10127000DEBF0FBECDBF082F80E1E0E6F0E0DE016B
:10128000119601900D928A95E1F7611116C0F12C2B
:1012900060EF802F0E94DF0840E064E06F0D802F38
:1012A0000E94D40710E0612F802F0E9441088823FC
:1012B000D1F01F5F1430B9F723C0F12C6FE0802FFD
:1012C0000E94A80840E06F2D802F0E94D40710E0F4
:1012D00064E0610F802F0E9441088823B9F01F5FEE
:1012E0001430B1F720C0E1E0F0E0EC0FFD1F84E026
:1012F000F89EE00DF11D1124E10FF11D808118C051
:10130000F39484E0F812C4CF8FEF12C0E1E0F0E074
:10131000EC0FFD1F84E0F89EE00DF11D1124E10F9C
:10132000F11D808105C0F39484E0F812C7CF8FEFE0
:1013300060960FB6F894DEBF0FBECDBFDF91CF91A0
:101340001F910F91FF90089541E063E081E00E94BA
:10135000D4078FE99FE00197F1F700C0000040E05B
:1013600063E081E00E94D4070895CF93C82F40E046
:1013700060E081E00E94D40740E061E081E00E94EB
:10138000D4076C2F80E00E94DF080E94A4096C2F14
:101390006295607F80E00E94DF080E94A409CF91DF
:1013A00008952FEF81EE94E0215080409040E1F7C6
:1013B00000C0000041E061E081E00E94670741E079
:1013C00060E081E00E94670741E063E081E00E9405
:1013D000670761E080E00E94CD0882E00E94B509C5
:1013E0008FE295E70197F1F700C0000088E20E94C4
:1013F000B5098FEC97E00197F1F700C000008EE08F
:101400000E94B5098FEC97E00197F1F700C000004A
:1014100081E00E94B5098FE19EE40197F1F700C0D9
:10142000000086E00E94B5090895CF93C82F40E0E0
:1014300060E081E00E94D40741E061E081E00E9429
:10144000D4076C2F80E00E94DF080E94A4096C2F53
:101450006295607F80E00E94DF080E94A409CF911E
:101460000895CF93DF93EC018881882331F0219692
:101470000E94150A89918111FBCFDF91CF910895C8
:101480000F931F93CF93DF93CDB7DEB727970FB698
:10149000F894DEBF0FBECDBF9F938F937F936F9362
:1014A00086E495E09F938F938E010F5F1F4F1F93EC
:1014B0000F930E94FC13C8010E94310A0FB6F894E2
:1014C000DEBF0FBECDBF27960FB6F894DEBF0FBEAE
:1014D000CDBFDF91CF911F910F91089581E00E94C0
:1014E000B5098FE19EE40197F1F700C0000008956F
:1014F000813019F48FE7860F0CC0823019F48FEB1E
:10150000860F07C0833019F48FE8860F02C08FEC76
:10151000860F0E94B509089541E00E94670708956B
:1015200041E00E94D407089540E00E94D407089546
:101530000E94920008950E94F100BC0180E090E0BA
:101540000E94D91220E030E040E85EE30E94671379
:101550000E94AA12862F08950E946E0A61E081E01F
:101560000E94780A8DE391E00E94310A68E081E0F0
:101570000E94780A8EE491E00E94310A61E082E0E4
:101580000E94780A8FE591E00E94310A68E082E0CB
:101590000E94780A80E791E00E94310A61E083E0CE
:1015A0000E94780A81E891E00E94310A68E083E0B5
:1015B0000E94780A82E991E00E94310A61E084E0A9
:1015C0000E94780A80EA93E00E94310A69E084E090
:1015D0000E94780A84E692E00E94310A089561E050
:1015E00081E00E94780A83E595E00E94310A61E07B
:1015F00082E00E94780A84E695E00E94310A61E068
:1016000083E00E94780A83E795E00E94310A61E056
:1016100084E00E94780A84E895E00E94310A0E94E2
:1016200052068093E5072FE789EA93E02150804036
:101630009040E1F700C000008091E507813361F53B
:101640000E9422120E942A120E946E0A62E081E029
:101650000E94780A84E995E00E94310A62E082E003
:101660000E94780A80EA95E00E94310A62E083E0F5
:101670000E94780A8AEE93E00E94310A2FE789EAF5
:1016800093E0215080409040E1F700C000000E94AC
:10169000AC0A0E94A9050895823349F40E942212DF
:1016A0000E942A120E946E0A0E946C1008950E94E5
:1016B0006E0A8AE395E00E94310A2FE789EA93E0F7
:1016C000215080409040E1F700C000000E94EF0AE6
:1016D000089580E00E94980A60E875E280E090E05A
:1016E0000E94E8110E94D10961E082E00E94120983
:1016F0000E949E0B63E083E00E948C0A64E083E01A
:101700000E948C0A65E081E00E948C0A62E083E01E
:101710000E948C0A66E083E00E948C0A41E067E048
:1017200083E00E9467070E94EF0A0E942611882327
:1017300011F08330D1F780E090E008958D9A1DBCC0
:101740001CBC83EC99E097BD86BD82E88FBD8BE120
:101750008EBD08958B35B0F4682F70E080E090E086
:101760000E94DB122BE036E445EA5FE30E94671338
:1017700020E030E046E353E40E943E120E94AA12A9
:101780007BBD6ABD08958B35B0F4682F70E080E0B2
:1017900090E00E94DB122BE036E445EA5FEB0E940A
:1017A000671320E030E046E353E40E943E120E94BB
:1017B000AA127BBD6ABD08950F931F93CF9308EEC5
:1017C00017E0C3E061E082E00E942E098093E50704
:1017D0002FEF81EE94E0215080409040E1F700C06F
:1017E00000008091E5078F3F69F30E94150AEFE73B
:1017F000F9EA23E0E150F0402040E1F700C00000AA
:101800006C2F84E00E94780A8AE20E94150A809177
:10181000E507F80181938F01CF5FC73099F6CF912B
:101820001F910F9108950F931F93CF93DF93C0EFF4
:10183000D7E004EF17E061E082E00E942E09809378
:10184000E5072FEF81EE94E0215080409040E1F7D2
:1018500000C000008091E5078F3F69F30E94150AE0
:101860002FE789EA93E0215080409040E1F700C0E3
:1018700000008091E5078993C017D107E1F6DF9159
:10188000CF911F910F910895CF92DF92EF92FF9227
:101890000F931F93CF93DF93D82E880F880F880F55
:1018A000805A0F2EF4EFEF2EF7E0FF2EF02DC0EF51
:1018B000D7E00F2EFBEACF2EF02D8E01009510956C
:1018C000080F111D68816C25699370E0C8018C0FA9
:1018D0009D1F0E940409CE15DF05A1F7DD0CDD0C6C
:1018E0000F2EFCEEEF2EF7E0FF2EF02DC8EED7E026
:1018F0000F2EFBEACF2EF02D8E01009510950D0DC9
:10190000111D68816C25699370E0C8018C0F9D1FC3
:101910000E940409CE15DF05A1F7DF91CF911F9139
:101920000F91FF90EF90DF90CF900895CF92DF92CC
:10193000EF92FF920F931F93CF93DF93082F880F9F
:10194000880F880F805A0F2EF0EFCF2EF7E0DF2E92
:10195000F02DCCEED7E090E09C012C5E3740790171
:101960001BEAC7018C0F9D1F0E940D0981278993D7
:10197000CC15DD05B1F7000F000F0F2EFDEFEF2E98
:10198000F7E0FF2EF02DC9EFD7E010E0095F174018
:101990000F2EFBEADF2EF02DC8018C0F9D1F0E9439
:1019A0000D098D258993CE15DF05B1F7DF91CF9114
:1019B0001F910F91FF90EF90DF90CF90089581E0FD
:1019C0009091FF07911180E008950E946E0A61E0F6
:1019D00082E00E94780A8BEA95E00E94310A61E079
:1019E00083E00E94780A88EB95E00E94310A2FEF8D
:1019F00084E39CE0215080409040E1F700C000006B
:101A00000E946E0A86EC95E00E94310A61E082E055
:101A10000E94780A84ED95E00E94310A61E083E03B
:101A20000E94780A81EE95E00E94310A0E945206D7
:101A30008093E5072FE789EA93E0215080409040AA
:101A4000E1F700C000008091E507813319F40E949E
:101A50007D0D0895823319F40E948E0F08950E941F
:101A60006E0A85EA90E00E94310A0E946C10089587
:101A70000E946E0A84EE95E00E94310A61E082E0E5
:101A80000E94780A83EF95E00E94310A61E083E0CA
:101A90000E94780A8EEF95E00E94310A61E084E0AE
:101AA0000E94780A87E097E00E94310A0E9452065D
:101AB000809302082FE789EA93E02150804090400C
:101AC000E1F700C0000080910208823339F08333CF
:101AD00041F0813349F40E94FA0008950E94310ECA
:101AE00008950E94E50C08950E946E0A85EA90E030
:101AF0000E94310A0E94380D089580E00E94960CE1
:101B00000E946E0A88E096E00E94310A61E082E05D
:101B10000E94780A81EE95E00E94310A0E94130C1F
:101B2000E0EFF7E0ACEEB7E024EF37E040E0919172
:101B30008D91981301C04F5FE217F307C1F74093EF
:101B4000E70761E083E00E94780A88E196E00E945E
:101B5000310A61E084E00E94780A81EE95E00E94FB
:101B6000310A0E94DC0BE8EEF7E0A9EFB7E02CEEBB
:101B700037E040E091918D91981301C04F5FE217DB
:101B8000F307C1F74093F8070E946E0A8091F807A7
:101B90008430C1F58091E7078430A1F563E070E0FF
:101BA00083E090E00E94900A64E070E083E090E0BF
:101BB0000E94940A65E070E081E090E00E94940A3F
:101BC00088E296E00E94310A61E082E00E94780A91
:101BD0008AE597E00E94310A61E083E00E94780A7A
:101BE00089EB95E00E94310A2FEF81EE94E02150BD
:101BF00080409040E1F700C000001092E3070E948F
:101C0000380D25C08091E3078F5F8093E30789E358
:101C100096E00E94310A61E082E00E94780A88E43E
:101C200096E00E94310A61E083E00E94780A80E534
:101C300096E00E94310A8091E30763E070E0681B40
:101C40007109072E000C880B990B0E94400A2FEF98
:101C500080E792E0215080409040E1F700C0000012
:101C600008950E946E0A8BE596E00E94310A61E0B9
:101C700083E00E94780A8AE696E00E94310A61E0D9
:101C800084E00E94780A81EE95E00E94310A0E9469
:101C90005206809300082FEF81EE94E0215080409F
:101CA0009040E1F700C000000E946E0A87E796E0CE
:101CB0000E94310A61E082E00E94780A81EE95E09C
:101CC0000E94310A0E94130C61E083E00E94780AAE
:101CD00085E896E00E94310A61E084E00E94780A7B
:101CE00081EE95E00E94310A0E94DC0B8091000891
:101CF0000E94440C0E946E0A86E996E00E94310A16
:101D000061E082E00E94780A89EB95E00E94310A46
:101D10002FE78AE196E0215080409040E1F700C033
:101D200000000E94380D08950E946E0A82EA96E033
:101D30000E94310A61E082E00E94780A82EB96E01C
:101D40000E94310A61E083E00E94780A82EC96E00A
:101D50000E94310A61E084E00E94780A87E097E0FF
:101D60000E94310A0E945206809302082FE789EAF6
:101D700093E0215080409040E1F700C00000809146
:101D80000208823339F0833341F0813349F40E94F1
:101D9000E20E08950E94710108950E94E50C0895D5
:101DA0000E946E0A8AE395E00E94310A2FE78AE1D9
:101DB00096E0215080409040E1F700C000000E9472
:101DC000940E0895D1E01FEFC1E08D2F90E0FC014B
:101DD0003197E830F105D8F7E559FF4F0C94F61329
:101DE0001093E5070E946E0A8CEC96E00E94310A7F
:101DF0006C2F82E00E94780A8DED96E00E94310AF5
:101E00006C2F83E00E94780A8EEE96E00E94310AE1
:101E10006C2F84E00E94780A8EEF96E00E94310ACF
:101E20000E9452068093E5072FEF81EE94E0215047
:101E300080409040E1F700C000008091E5078133C9
:101E400009F460C0823309F45FC0833309F45EC0D3
:101E5000843309F45DC0853309F45CC0863309F42A
:101E60005BC0803361F40E94DF0C813019F40E9462
:101E7000FA0017C08111A9CF0E94940E12C08F3FA3
:101E800009F4B0CF0E946E0A8AE395E00E94310AFD
:101E90002FEF81EE94E0215080409040E1F700C0A8
:101EA00000008091E5078053873008F09BCF8DCFED
:101EB0001093E50783E00E946606DC2F86CF10931F
:101EC000E50784E00E946606DC2F7FCF1093E507CC
:101ED00085E00E946606DC2F78CF1093E50786E048
:101EE0000E946606DC2F71CF1093E50787E00E9401
:101EF0006606DC2F6ACF1093E50788E00E9466062D
:101F0000DC2F63CFD3E061CFD4E05FCFD5E05DCFEE
:101F1000D6E05BCFD7E059CFD8E057CF0E946E0A0A
:101F20008BE097E00E94310A61E082E00E94780A2B
:101F300089E197E00E94310A61E083E00E94780A1B
:101F400088E297E00E94310A61E084E00E94780A0A
:101F500087E097E00E94310A0E94520680930008B1
:101F60000E94960C2FEF81EE94E02150804090402B
:101F7000E1F700C000000E946E0A88E096E00E942F
:101F8000310A61E082E00E94780A81EE95E00E94C9
:101F9000310A0E94130CE0EFF7E0ACEEB7E024EF5B
:101FA00037E040E091918D91981301C04F5FE217A7
:101FB000F307C1F74093E70761E083E00E94780AE6
:101FC00088E196E00E94310A61E084E00E94780A8C
:101FD00081EE95E00E94310A0E94DC0BE8EEF7E00A
:101FE000A9EFB7E02CEE37E040E091918D91981386
:101FF00001C04F5FE217F307C1F74093F8070E9453
:102000006E0A8091F8078430C1F58091E70784302B
:10201000A1F564E070E083E090E00E94900A63E044
:1020200070E083E090E00E94940A65E070E081E057
:1020300090E00E94940A88E296E00E94310A61E0F2
:1020400082E00E94780A8AE597E00E94310A61E006
:1020500083E00E94780A89EB95E00E94310A2FE71D
:102060008AE196E0215080409040E1F700C00000F6
:102070001092E3070E94940E25C08091E3078F5FC2
:102080008093E30789E396E00E94310A61E082E0F1
:102090000E94780A88E496E00E94310A61E083E0B9
:1020A0000E94780A80E596E00E94310A8091E30759
:1020B00063E070E0681B7109072E000C880B990B18
:1020C0000E94400A2FEF80E792E02150804090402C
:1020D000E1F700C00000089580E590E00E940D093E
:1020E0008093FD07882309F46EC087E397E00E9480
:1020F000310A61E082E00E94780A81EE95E00E9458
:10210000310A0E94130C61E083E00E94780A85E89E
:1021100096E00E94310A61E084E00E94780A81EE34
:1021200095E00E94310A0E94DC0B80E00E94440C82
:102130000E946E0A87E497E00E94310A61E082E023
:102140000E94780A89EB95E00E94310A2FEF81EE18
:1021500094E0215080409040E1F700C0000060E032
:1021600070E080E590E00E94040980E590E00E9424
:102170000D098093FD070E946E0A82E597E00E9498
:10218000310A61E082E00E94780A81E697E00E94CD
:10219000310A61E083E00E94780A81EE95E00E94B6
:1021A000310A0E945206809302082FE789EA93E0E1
:1021B000215080409040E1F700C00000809102086B
:1021C0008093FF0708950E946E0A82E597E00E94BF
:1021D000310A61E082E00E94780A81E697E00E947D
:1021E000310A61E083E00E94780A81EE95E00E9466
:1021F000310A0E945206809302082FE789EA93E091
:10220000215080409040E1F700C00000809102081A
:102210008093FF07813319F40E947D0D0895823366
:1022200019F40E948E0F08950E946E0A8FE697E0BF
:102230000E94310A2FE789EA93E0215080409040C4
:10224000E1F700C000000E946C1008958091020820
:10225000813329F41092FF070E947D0D10C0823354
:1022600031F481E08093FF070E948E0F08C00E9426
:102270006E0A85EA90E00E94310A0E946C108091FB
:10228000E307833081F51092E3070E946E0A8BE723
:1022900097E00E94310A65E070E081E090E00E94E2
:1022A000900A64E070E083E090E00E94940A63E0AA
:1022B00070E083E090E00E94940A41E067E083E0F0
:1022C0000E94D4072AEA36EE86E991E02150304098
:1022D00080409040D9F7000040E067E083E00E9432
:1022E000D4070E946C108091E30708950E946E0A43
:1022F00089E897E00E94310A8091E207813029F451
:1023000083E997E00E94310A06C0811104C088E980
:1023100097E00E94310A61E082E00E94780A8EE92B
:1023200097E00E94310A61E083E00E94780A8EEA19
:1023300097E00E94310A61E084E00E94780A80E31D
:1023400095E00E94310A0E9452068093E50781338E
:10235000B9F40E946E0A8FEB97E00E94310A8AE579
:1023600090E00E94AA0B2FEF89E698E1215080406F
:102370009040E1F700C0000081E08093E20725C0B3
:102380008233B1F40E946E0A80ED97E00E94310A18
:102390008AE590E00E94C30B2FEF89E698E1215077
:1023A00080409040E1F700C000001092E2070DC0AD
:1023B000803319F40E94FA0008C00E946E0A8FE66A
:1023C00097E00E94310A0E9476110E94FA00089557
:1023D00020B52F7720BD20B52F7B20BDDC01CB01A0
:1023E000880F991FAA1FBB1F880F991FAA1FBB1F09
:1023F0009C01AD01220F331F441F551F220F331FB5
:10240000441F551F60E072E18AE790E00E94D413F8
:102410002150310980B5826080BD80B5846080BD67
:10242000529880B58F7E80BD80B58F7D80BD80B590
:10243000886080BD539A549A80B5806880BD30BD55
:1024400029B908955D9BFECF8CB908955F9BFECF9F
:102450008CB10895569A0895579A0895CF93DF93B3
:10246000EC018881882331F021960E942212899103
:102470008111FBCFDF91CF9108955058BB27AA2738
:102480000E9455120C942D130E941F1338F00E94C5
:10249000261320F039F49F3F19F426F40C941C13F2
:1024A0000EF4E095E7FB0C941613E92F0E943E13FF
:1024B00058F3BA17620773078407950720F079F479
:1024C000A6F50C9460130EF4E0950B2EBA2FA02DF8
:1024D0000B01B90190010C01CA01A0011124FF27D1
:1024E000591B99F0593F50F4503E68F11A16F040CC
:1024F000A22F232F342F4427585FF3CF46953795CB
:102500002795A795F0405395C9F77EF41F16BA0B8F
:10251000620B730B840BBAF09150A1F0FF0FBB1F3D
:10252000661F771F881FC2F70EC0BA0F621F731F86
:10253000841F48F4879577956795B795F7959E3FE3
:1025400008F0B0CF9395880F08F09927EE0F979574
:10255000879508950E94461388F09F5798F0B92FE9
:102560009927B751B0F0E1F0660F771F881F991FC8
:102570001AF0BA95C9F714C0B13091F00E946013F7
:10258000B1E008950C946013672F782F8827B85F07
:1025900039F0B93FCCF3869577956795B395D9F720
:1025A0003EF490958095709561957F4F8F4F9F4F2A
:1025B0000895E89409C097FB3EF490958095709536
:1025C00061957F4F8F4F9F4F9923A9F0F92F96E97F
:1025D000BB279395F695879577956795B795F111F4
:1025E000F8CFFAF4BB0F11F460FF1BC06F5F7F4F91
:1025F0008F4F9F4F16C0882311F096E911C07723A3
:1026000021F09EE8872F762F05C0662371F096E8AB
:10261000862F70E060E02AF09A95660F771F881F7A
:10262000DAF7880F9695879597F9089597F99F6738
:1026300080E870E060E008959FEF80EC089500244A
:102640000A941616170618060906089500240A9417
:1026500012161306140605060895092E0394000C9D
:1026600011F4882352F0BB0F40F4BF2B11F460FF2C
:1026700004C06F5F7F4F8F4F9F4F089557FD905855
:10268000440F551F59F05F3F71F04795880F97FB36
:10269000991F61F09F3F79F08795089512161306F0
:1026A0001406551FF2CF4695F1DF08C0161617061F
:1026B0001806991FF1CF8695710561050894089554
:1026C000E894BB2766277727CB0197F908950E94E6
:1026D0007A130C942D130E941F1338F00E942613B6
:1026E00020F0952311F00C9416130C941C13112454
:1026F0000C9461130E943E1370F3959FC1F3950FE4
:1027000050E0551F629FF001729FBB27F00DB11D75
:10271000639FAA27F00DB11DAA1F649F6627B00D05
:10272000A11D661F829F2227B00DA11D621F739FEE
:10273000B00DA11D621F839FA00D611D221F749FFC
:102740003327A00D611D231F849F600D211D822F43
:10275000762F6A2F11249F5750409AF0F1F088236A
:102760004AF0EE0FFF1FBB1F661F771F881F915097
:102770005040A9F79E3F510580F00C9416130C941D
:1027800061135F3FE4F3983ED4F3869577956795A0
:10279000B795F795E7959F5FC1F7FE2B880F911DC1
:1027A0009695879597F90895A1E21A2EAA1BBB1B4F
:1027B000FD010DC0AA1FBB1FEE1FFF1FA217B3070D
:1027C000E407F50720F0A21BB30BE40BF50B661F23
:1027D000771F881F991F1A9469F7609570958095E7
:1027E00090959B01AC01BD01CF010895EE0FFF1F35
:1027F0000590F491E02D0994AEE0B0E0E2E0F4E160
:102800000C94BD160D891E8986E08C831A8309837A
:102810008FEF9FE79E838D83AE01475E5F4F6F8989
:10282000788DCE0101960E941E14EF81F885E00F8D
:10283000F11F10822E96E4E00C94D916ABE0B0E0C4
:10284000E4E2F4E10C94AF166C017B018A01FC0117
:1028500017821682838181FFCCC1CE0101963C0193
:10286000F6019381F70193FD859193FF81917F019B
:10287000882309F4BAC1853239F493FD859193FF19
:1028800081917F01853229F4B60190E00E941516EE
:10289000E7CF912C212C312CFFE1F315D8F08B32AE
:1028A00079F038F4803279F08332A1F4232D20615D
:1028B0001DC08D3261F0803369F4232D216016C074
:1028C000832D8260382EE32DE4603E2E2AC0F32D46
:1028D000F8601DC037FC2DC020ED280F2A3040F0D5
:1028E0008E32B9F436FC81C1232D2064322E19C0FA
:1028F00036FE06C08AE0989E200D1124922E11C04B
:10290000EAE02E9E200D1124222EF32DF0623F2EA0
:1029100008C08C3621F4832D8068382E02C088369A
:1029200041F4F70193FD859193FF81917F0181111E
:10293000B3CF982F9F7D9554933028F40C5F1F4F91
:102940009FE399830DC0833631F0833771F083356F
:1029500009F059C021C0F801808189830E5F1F4FA3
:1029600088248394912C530113C02801F2E04F0E68
:10297000511CF801A080B18036FE03C0692D70E0C3
:1029800002C06FEF7FEFC5010E940A164C01820161
:10299000F32DFF773F2E16C0280122E0420E511C76
:1029A000F801A080B18036FE03C0692D70E002C03E
:1029B0006FEF7FEFC5010E94FF154C01F32DF0680A
:1029C0003F2E820133FC1BC0822D90E088169906B1
:1029D000B0F4B60180E290E00E9415162A94F4CF7C
:1029E000F50137FC859137FE81915F01B60190E0DA
:1029F0000E94151621102A9421E0821A9108811450
:102A0000910471F7E8C0843611F0893641F5F80178
:102A100037FE07C060817181828193810C5F1F4FF7
:102A200008C060817181072E000C880B990B0E5F26
:102A30001F4FF32DFF763F2E97FF09C0909580958D
:102A4000709561957F4F8F4F9F4FF0683F2E2AE022
:102A500030E0A3010E945116882E861845C08537A4
:102A600031F4232D2F7EB22E2AE030E025C0932DA5
:102A7000997FB92E8F36C1F018F4883579F0B5C03A
:102A8000803719F0883721F0B0C0E92FE061BE2E01
:102A9000B4FE0DC0FB2DF460BF2E09C034FE0AC089
:102AA000292F2660B22E06C028E030E005C020E1C4
:102AB00030E002C020E132E0F801B7FE07C06081DB
:102AC0007181828193810C5F1F4F06C0608171818B
:102AD00080E090E00E5F1F4FA3010E945116882EE8
:102AE0008618FB2DFF773F2E36FE0DC0232D2E7F3F
:102AF000A22E891458F434FE0BC032FC09C0832D79
:102B00008E7EA82E05C0B82CA32C03C0B82C01C003
:102B1000B92CA4FE0FC0FE01E80DF11D80818033A9
:102B200021F49A2D997EA92E09C0A2FE06C0B39465
:102B3000B39404C08A2D867809F0B394A3FC11C025
:102B4000A0FE06C0B21488F4280C922C9B180EC06C
:102B5000B21460F4B60180E290E00E941516B394BE
:102B6000F7CFB21418F42B1802C0982C212CA4FE15
:102B700010C0B60180E390E00E941516A2FE17C0B7
:102B8000A1FC03C088E790E002C088E590E0B601B0
:102B90000CC08A2D867859F0A1FE02C08BE201C0DC
:102BA00080E2A7FC8DE2B60190E00E941516891420
:102BB00038F4B60180E390E00E9415169A94F7CF9E
:102BC0008A94F301E80DF11D8081B60190E00E9426
:102BD00015168110F5CF222009F442CEB60180E20D
:102BE00090E00E9415162A94F6CFF601868197810F
:102BF00002C08FEF9FEF2B96E2E10C94CB16FC0105
:102C00000590615070400110D8F7809590958E0F17
:102C10009F1F0895FC016150704001900110D8F78A
:102C2000809590958E0F9F1F08950F931F93CF93BC
:102C3000DF93FB01238121FD03C08FEF9FEF2CC0A9
:102C400022FF16C0468157812481358142175307E0
:102C500044F4A081B1819D012F5F3F4F31832083D8
:102C60008C93268137812F5F3F4F3783268314C093
:102C70008B01EC01FB010084F185E02D0995892B86
:102C8000E1F6D80116968D919C91179701961796AB
:102C90009C938E931697CE01DF91CF911F910F9148
:102CA0000895FA01AA27283051F1203181F1E894E2
:102CB0006F936E7F6E5F7F4F8F4F9F4FAF4FB1E02F
:102CC0003ED0B4E03CD0670F781F891F9A1FA11D2A
:102CD000680F791F8A1F911DA11D6A0F711D811D2B
:102CE000911DA11D20D009F468943F912AE0269FF0
:102CF00011243019305D3193DEF6CF010895462F4F
:102D00004770405D4193B3E00FD0C9F7F6CF462F2F
:102D10004F70405D4A3318F0495D31FD4052419398
:102D200002D0A9F7EACFB4E0A69597958795779555
:102D30006795BA95C9F700976105710508959B01DC
:102D4000AC010A2E06945795479537952795BA9565
:102D5000C9F7620F731F841F951FA01D08952F923E
:102D60003F924F925F926F927F928F929F92AF921B
:102D7000BF92CF92DF92EF92FF920F931F93CF9368
:102D8000DF93CDB7DEB7CA1BDB0B0FB6F894DEBFFF
:102D90000FBECDBF09942A88398848885F846E8425
:102DA0007D848C849B84AA84B984C884DF80EE806F
:102DB000FD800C811B81AA81B981CE0FD11D0FB678
:102DC000F894DEBF0FBECDBFED010895F894FFCF9C
:102DD00037383941343536423132334345304D444A
:102DE000312E4F70656E20646F6F7200322E526FFD
:102DF0006F6D204C69676874696E6700332E416996
:102E00007220636F6E646974696F6E00342E526550
:102E10007475726E0057726F6E672043686F6963D6
:102E2000650054656D7065726174757265203D0052
:102E3000430046414E204F4E200050726573732070
:102E40003020746F204261636B0046414E204F4634
:102E500046200052313A205A2026207A2020205243
:102E6000323A20422026206220202052333A204647
:102E70002026206620202052343A20442026206438
:102E800020202052353A2045202620652052363A0F
:102E9000204720262067202020302E546F205265A6
:102EA0007475726E0052313A204F4E200052313A02
:102EB000204F4646002052323A204F4E20002052EA
:102EC000323A204F46460052333A204F4E200052AD
:102ED000333A204F4646002052343A204F4E2000CD
:102EE0002052343A204F46460052353A204F4E2069
:102EF0000052353A204F4646002052363A204F4E77
:102F000020002052363A204F464600312E4F706541
:102F10006E696E6720446F6F72202000322E526FF0
:102F20006F6D204C69676874696E67202000332ECE
:102F300041697220636F6E646974696F6E2020004E
:102F4000342E52657475726E20202020202020209F
:102F500000312E436F6E74726F6C20486F6D652068
:102F600020202020202000322E41646420757365CB
:102F700072202020202020202020202000332E4CD2
:102F80006F67206F757420202020202020202020B3
:102F9000202000436F7272656374205061737377F1
:102FA0006F7264200050617373776F726420577280
:102FB0006F6E67200020322000203120002030205A
:102FC000004C6F636B206D6F6465212100414C3AAA
:102FD000204F4E00414C3A204F464600456E7465E6
:102FE0007220557365724E616D653A2000456E74AE
:102FF00065722050617373776F72640070726573CD
:1030000073204120666F722041646D696E204C6FA1
:1030100067696E2026205520666F72205573657291
:10302000206C6F67696E00312E526F6F6D204C6996
:10303000676874696E67202020322E4169722063B0
:103040006F6E646974696F6E202020332E4C6F6739
:103050004F757400456E7465722055736572204912
:10306000642000456E74657220557365724E616D03
:103070006520002074726965732072656D61696EE8
:1030800073200041697220636F6E646974696F6EAA
:10309000204F4E20202020202020202020202020D3
:1030A0002020202020202020202020202020202020
:1030B0002020202020202020202020202020202010
:1030C0002020202020004169723A4F4E20004169A3
:1030D0007220636F6E646974696F6E206F6666201C
:1030E00020202020202020202020202020202020E0
:1030F00020202020202020202020202020202020D0
:1031000020202020202020202020202020202000DF
:103110004169723A4F4646200050726573732041F0
:1031200020666F722041646D696E204C6F67696E16
:103130002026205520666F722075736572206C6F93
:1031400067696E00456E7465722055736572200064
:1031500055736572204164646564205375636365CB
:10316000737366756C6C792000312E206F70656EFC
:103170002054686520646F6F7220202020322E4317
:103180006C6F73652074686520646F6F72202020F7
:1031900020302E52657475726E0054686520646F1D
:1031A0006F72206973206F70656E202020202020B0
:1031B000202020202020202020202020202020200F
:1031C00020202020202020202020202020202020FF
:1031D00020202020202020202020202020202020EF
:1031E0002020202020202020200054686520646FAB
:1031F0006F7220697320636C6F73656420202020D8
:1032000020202020202020202020202020202020BE
:1032100020202020202020202020202020202020AE
:10322000202020202020202020202020202020209E
:10323000202020202020202000526F6F6D3120534D
:1032400074617475733A00526F6F6D3220537461FC
:103250007475733A00526F6F6D33205374617475D7
:10326000733A00526F6F6D34205374617475733A02
:1032700000526F6F6D35205374617475733A00524C
:103280006F6F6D36205374617475733A003E3E2043
:10329000312D4F6E20003E3E20322D4F66662000BD
:1032A0003E3E20302D524554200057726F6E6720ED
:1032B000696E70757400256400257325642E2530B1
:1032C0003464002057656C636F6D6520746F204F08
:1032D00044432000202020736D61727420686F6D5C
:1032E000652000312E6C6F67696E2072656D6F749A
:1032F000656C7900322E6C6F67696E206279204BA5
:103300005044200020636F6E6E6563746564200016
:103310002072656D6F74656C792000204C6F676753
:103320006564204F75742000205375636365737363
:1033300066756C6C7900312E41646D696E204C6F3E
:1033400067696E00322E55736572204C6F67696E27
:10335000003E3E00312E436F6E74726F6C20486FDA
:103360006D6500322E416464207573657200332EE2
:103370004C4F47204F757400456E7465722055732D
:1033800065724E616D653A00456E746572205061DC
:103390007373776F72643A00436F7272656374205F
:1033A00050617373776F72640057726F6E6720702D
:1033B000617373776F7264006F722075736572004A
:1033C00052656D2074696D65733A002D2D2041643E
:1033D000642055736572202D2D005365742075731C
:1033E00065722049443A0053657420557365724EE6
:1033F000616D653A00506C656173652C536574208E
:10340000506173733A00557365722041646465645A
:103410002000312E526F6F6D204C69676874696EA1
:103420006700322E41697220436F6E646974696F60
:103430006E00332E4C6F67204F757400313A526F17
:103440006F6D3120323A526F6F6D322000333A5235
:103450006F6F6D3320343A526F6F6D342000353A00
:10346000526F6F6D3520363A526F6F6D3600303ABD
:1034700052657475726E203E3E20002020557365A3
:1034800072204C4F47494E200049442066726F6DB0
:103490002028302D39292000456E7465722055731F
:1034A00065722049443A005365742041646D696E29
:1034B000204E616D653A0041646D696E20536574FC
:1034C0002000312E41646D696E204C6F67696E205B
:1034D00000322E55736572204C6F67696E2000773D
:1034E000726F6E6720696E707574004C6F636B65E8
:1034F00064204D6F6465212100444F4F5220495391
:103500003A20004F50454E00434C4F5345003E3E3D
:1035100020312D6F70656E20646F6F7220003E3E0B
:1035200020322D636C6F736520646F6F72200064AE
:103530006F6F72206F70656E696E672D2D2D2D0077
:10354000646F6F7220636C6F73696E672D2D2D2D04
:02355000000079
:04000003000020D801
:00000001FF
