S00E00004D61737465722E73726563AA
S11300000C9473000C9490000C9490000C94900049
S11300100C9490000C9490000C9490000C9490001C
S11300200C9490000C9490000C9490000C9490000C
S11300300C9490000C9490000C9490000C949000FC
S11300400C9490000C9490000C9490000C949000EC
S11300500C949000A100A900B200BB00C400CD0024
S1130060D600DF001C0257023402400228024C0270
S113007057025702570257025702570257025702B4
S113008057025702570257025702570257025702A4
S1130090570257020C0257025702570257025702DF
S11300A057025702220257023A0246022E02520215
S11300B05702570257025702570257025702570274
S11300C05702570257025702570257025702570264
S11300D0570257021602550E470EBE0EC30EC80E27
S11300E0CD0ED20ED70E11241FBECFE5D8E0DEBF51
S11300F0CDBF17E0A0E6B0E0EEE2FBE202C005905F
S11301000D92AA3AB107D9F727E0AAEAB7E001C0ED
S11301101D92AB3CB207E1F70E94660A0C94951558
S11301200C940000E82F87B1807E87B98E2F90E071
S11301308830910508F04BC0FC01E65DFF4F0C943C
S1130140A51240E060E080E00E94CF0687B187B945
S11301503EC040E061E080E00E94CF0687B181604C
S113016087B935C040E062E080E00E94CF0687B1E5
S1130170826087B92CC040E063E080E00E94CF0633
S113018087B1836087B923C040E064E080E00E94C7
S1130190CF0687B1846087B91AC040E065E080E08B
S11301A00E94CF0687B1856087B911C040E066E040
S11301B080E00E94CF0687B1866087B908C040E01E
S11301C067E080E00E94CF0687B1876087B986B177
S11301D0887F86B986B1836086B987B1887F87B9FD
S11301E087B1806C87B987B18F7D87B986B180620A
S11301F086B986B1806886B9089586B1806486B967
S1130200349BFECF86B1806186B924B135B180E0DC
S1130210932F822B08950E94F00980E790E00E94BA
S1130220B50961E070E082E090E00E94FA098CE791
S113023090E00E94B50961E070E083E090E00E94E4
S1130240FA098CE890E00E94B50961E070E084E06E
S113025090E00E94FA098CE990E00E94B5090E949E
S1130260CD058093AC07823361F018F4813331F00B
S113027011C0833349F0843351F00CC00E9409103B
S113028008950E94460E08950E94700108950E94E8
S1130290B00C08950E94F00985EA90E00E94B50927
S11302A00E940B0108958091AD07803351F40E94A0
S11302B0570C019719F40E940B0108950E94000E37
S11302C008950E94F00985EA90E00E94B50983E24E
S11302D094EF0197F1F700C000000E9470010895A7
S11302E00E94AE060E94580980E00E941A0A0E94E9
S11302F0F009D1E001C0DC2F61E082E00E94A50892
S11303008093AD078F3F09F04FC00E941D0AC82F8C
S1130310D81791F361E081E00E94FA0982EB90E042
S11303200E94B5096C2F70E080E090E00E94C20941
S113033080EC90E00E94B509CC31D0F062E070E02E
S113034083E090E00E94120A61E082E00E94FA09D0
S113035082EC90E00E94B5090E94B90661E083E056
S11303600E94FA098AEC90E00E94B509DC2FC4CF00
S1130370C63108F662E070E083E090E00E94160A5D
S113038061E082E00E94FA098AED90E00E94B509DA
S11303900E94C40661E083E00E94FA098AEC90E0BE
S11303A00E94B509DC2FA8CF0E945301A5CF0E945B
S11303B0D3108093AD070E94DB100E94D31080936A
S11303C0AD070E94DB100E94D3108093AD070E94FA
S11303D0DB1008958091AE07813009F080E0089524
S11303E083EE90E00E94DF100E94D71060C00E944C
S11303F0D3108093AD070E94DB10E091AD078E2FE0
S113040090E0FC01E254F109E933F10508F04FC032
S1130410EE5CFF4F0C94A5128AE50E94CF100E9457
S1130420D71085E391E00E94B50941C08AE70E9494
S1130430CF100E94D7103BC082E40E94CF100E94CC
S1130440D71035C082E60E94CF100E94D7102FC06B
S113045086E40E94CF100E94D71029C086E60E942D
S1130460CF100E94D71023C084E40E94CF100E94B2
S1130470D7101DC084E60E94CF100E94D71017C069
S113048085E40E94CF100E94D71011C085E60E9417
S1130490CF100E94D7100BC087E40E94CF100E9497
S11304A0D71005C087E60E94CF100E94D710809114
S11304B0AD07803309F09BCF0E94EA01813019F423
S11304C00E94AC0208950E94FB0308958CE391E01E
S11304D00E94DF100E94D7108EE491E00E94DF108A
S11304E00E94D71080E691E00E94DF100E94D7108E
S11304F082E791E00E94DF100E94D7100E94D3107F
S11305008093AD070E94DB100E94D3108093AD0747
S11305100E94DB100E94D3108093AD070E94DB1071
S11305208091AD07823361F018F4813331F011C04A
S1130530833349F0843351F00CC00E94A10508951F
S11305400E94F00108950E94CF0308950E94AC0216
S113055008950E946602089583E891E00E94DF10E6
S11305600E94D71089E991E00E94DF100E94D71001
S11305708FEA91E00E94DF100E94D3108093AD07B0
S11305800E94DB100E94D3108093AD070E94DB1001
S11305900E94D3108093AD070E94DB108091AD07B9
S11305A0823339F0833341F0813341F40E9466028F
S11305B008950E944C0508950E940805089580E05E
S11305C090E00E94810B1092AF0720E012C0822FAE
S11305D090E0FC01E854F84F3081FC01EC54F84FF2
S11305E08081381305C08091AF078F5F8093AF0778
S11305F02F5F243060F31092C00720E012C0822FD6
S113060090E0FC01E055F84F3081FC01EF53F84FC6
S11306108081381305C08091C0078F5F8093C00725
S11306202F5F243060F38091C0078430D9F4809127
S1130630AF078430B9F485EC91E00E94DF100E948A
S1130640D71063E083E00E94120A64E083E00E9412
S1130650160A65E081E00E94160A1092AB070E9418
S1130660AC0208958091AB078F5F8093AB0782E162
S113067092E00E94DF100E94D7102FE58AEE90E0EE
S1130680215080409040E1F700C000008091AB070A
S1130690813029F482E292E00E94DF100DC08230A2
S11306A029F486E292E00E94DF1006C0833021F430
S11306B08AE292E00E94DF1087E193E00E94DF105B
S11306C00E94D7108091AB07833039F51092AB07A5
S11306D08EE292E00E94DF100E94D71065E081E074
S11306E00E94120A63E083E00E94160A64E083E039
S11306F00E94160A41E067E083E00E943C072FEB6A
S113070086EC9DE2215080409040E1F700C000005B
S113071040E067E083E00E943C070E949003089554
S1130720CF93DF938AE392E00E94DF100E94D710F8
S11307300E94D701C8EBD7E08091AD0788830E945F
S1130740D7018091AD0789830E94D7018091AD07BD
S11307508A830E94D7018091AD078B8386E492E05F
S11307600E94DF100E94D7100E94D701C0EBD7E08F
S11307708091AD0788830E94D7018091AD0789835A
S11307800E94D7018091AD078A830E94D70180918E
S1130790AD078B830E94DF02DF91CF9108950E9401
S11307A0AE0680E00E941A0AD1E00E941D0AC82FFA
S11307B0D817D9F38C3168F085E592E00E94DF10F8
S11307C00E94D71062E083E00E94120A0E94B906D8
S11307D00EC0863160F488E992E00E94DF100E9426
S11307E0D71062E083E00E94160A0E94C4060E94A9
S11307F0AC02DC2FDACF8AED92E00E94DF100E9477
S1130800D7100E94D7010E94DB108091AD0782337C
S113081039F0833339F0813341F40E94F0010895B3
S11308200E94CF030E94080508950E94FB030895C7
S11308301F93CF93DF9387E093E00E94DF100E9421
S1130840D7100E94D7011091AD078AE392E00E946D
S1130850DF100E94D7100E94D701C8EBD7E0809127
S1130860AD0788830E94D7018091AD0789830E94D8
S1130870D7018091AD078A830E94D7018091AD078B
S11308808B8386E492E00E94DF100E94D7100E94BE
S1130890D701C0EBD7E08091AD0788830E94D701D0
S11308A08091AD0789830E94D7018091AD078A8327
S11308B00E94D7018091AD078B83812F90E00E9425
S11308C0810B1092AF0720E012C0822F90E0FC0150
S11308D0E854F84F3081FC01EC54F84F8081381310
S11308E005C08091AF078F5F8093AF072F5F2430DF
S11308F060F31092C00720E012C0822F90E0FC0148
S1130900E055F84F3081FC01EF53F84F80813813E4
S113091005C08091C0078F5F8093C0072F5F24308C
S113092060F38091C0078430D9F48091AF0784309C
S1130930B9F485EC91E00E94DF100E94D71064E0C6
S113094083E00E94120A63E083E00E94160A65E0D5
S113095081E00E94160A1092AB070E94FB0354C068
S11309608091AB078F5F8093AB0782E192E00E9496
S1130970DF100E94D7108091AB07813029F482E206
S113098092E00E94DF100DC0823029F486E292E0EA
S11309900E94DF1006C0833021F48AE292E00E94B4
S11309A0DF1086E193E00E94DF100E94D71080914F
S11309B0AB07833039F51092AB078EE292E00E94C8
S11309C0DF100E94D71065E081E00E94120A63E004
S11309D083E00E94160A64E083E00E94160A41E064
S11309E067E083E00E943C072FE382E49FE021500C
S11309F080409040E1F700C0000040E067E083E001
S1130A000E943C070E941804DF91CF911F91089522
S1130A1086E293E00E94DF100E94D7100E94D70163
S1130A200E94DB108091AD07813431F481E0809322
S1130A30AE070E9490030895853529F41092AE07FD
S1130A400E94180408950E940805089581E593E022
S1130A500E94DF100E94D7100E94D3108093AD072C
S1130A600E94DB108091AD07813431F481E08093E2
S1130A70AE070E9490030895853529F41092AE07BD
S1130A800E941804089585EA90E00E94DF100E94F5
S1130A90D7100E94260508951F93CF93DF9387E014
S1130AA093E00E94DF100E94D7100E94D70110919A
S1130AB0AD078AE392E00E94DF100E94D7100E94E3
S1130AC0D701C8EBD7E08091AD0788830E94D70196
S1130AD08091AD0789830E94D7018091AD078A83F5
S1130AE00E94D7018091AD078B8386E492E00E9437
S1130AF0DF100E94D7100E94D701C0EBD7E080918D
S1130B00AD0788830E94D7018091AD0789830E9435
S1130B10D7018091AD078A830E94D7018091AD07E8
S1130B208B83812F90E00E94480B8CE793E00E9416
S1130B30DF100E94D7100E94AC02DF91CF911F9169
S1130B40089582EC93E00E94DF100E94D7100E9467
S1130B50D7018091AD07813351F48AE50E94B40A2C
S1130B6083EF93E00E94DF100E94DB1013C08233F6
S1130B7051F48AE50E94CD0A83E494E00E94DF10D8
S1130B800E94DB1007C0803319F40E94AC0202C03B
S1130B900E94A1050E94AC0208952FE681E191E034
S1130BA0215080409040E1F700C0000061E082E005
S1130BB00E94A5088093AD078BE792E90197F1F7AE
S1130BC000C000008091AD078F3F39F30895FF9274
S1130BD00F931F93CF93DF93C82F00E0F12C10E005
S1130BE00E94F009C53011F128F4C33049F0C43033
S1130BF091F047C0C73081F120F1C830C1F141C044
S1130C0082E994E00E94B50901E30F2EF1E2FF2E80
S1130C10F02D11E136C080EA94E00E94B50902E3A8
S1130C200F2EF2E2FF2EF02D12E12BC08EEA94E09B
S1130C300E94B50903E30F2EF3E2FF2EF02D13E11A
S1130C4020C08CEB94E00E94B50904E30F2EF4E27B
S1130C50FF2EF02D14E115C08AEC94E00E94B50932
S1130C6005E30F2EF5E2FF2EF02D15E10AC088ED05
S1130C7094E00E94B50906E30F2EF6E2FF2EF02D54
S1130C8016E1812F90E00E94CF100E94D71087EACE
S1130C9091E60197F1F700C000000E94D310D82F0D
S1130CA00E94DB10D13029F489E391E00E94B50958
S1130CB004C086EE94E00E94B50961E082E00E94DF
S1130CC0FA098AEE94E00E94B50961E083E00E948B
S1130CD0FA0983EF94E00E94B50961E084E00E9480
S1130CE0FA098DEF94E00E94B5090E94CD05809326
S1130CF0AD078FE493EC0197F1F700C000008091F9
S1130D00AD07813339F48F2D90E00E94CF100E94FB
S1130D10D71018C0823339F4802F90E00E94CF108E
S1130D200E94D7100FC00E94F00987E095E00E944E
S1130D30B5099FE32DE083E0915020408040E1F726
S1130D4000C000008091AD078053833008F048CF85
S1130D50DF91CF911F910F91FF90089541E066E0DC
S1130D6081E00E94CF0641E067E081E00E94CF0667
S1130D70089541E066E081E00E943C0740E067E0BE
S1130D8081E00E943C07089540E066E081E00E9413
S1130D903C0740E067E081E00E943C070895813011
S1130DA001F130F08230B1F1833009F44CC0089580
S1130DB0413059F42AB381E090E002C0880F991FB2
S1130DC06A95E2F7822B8ABB08952AB381E090E00A
S1130DD002C0880F991F6A95E2F7809582238ABB27
S1130DE00895413059F427B381E090E002C0880FA0
S1130DF0991F6A95E2F7822B87BB089527B381E098
S1130E0090E002C0880F991F6A95E2F780958223CB
S1130E1087BB0895413059F424B381E090E002C0C7
S1130E20880F991F6A95E2F7822B84BB089524B337
S1130E3081E090E002C0880F991F6A95E2F78095DF
S1130E40822384BB0895413059F421B381E090E0BA
S1130E5002C0880F991F6A95E2F7822B81BB08951F
S1130E6021B381E090E002C0880F991F6A95E2F7F0
S1130E708095822381BB0895813001F130F0823066
S1130E80B1F1833009F44CC00895413059F42BB3C7
S1130E9081E090E002C0880F991F6A95E2F7822BE7
S1130EA08BBB08952BB381E090E002C0880F991F9B
S1130EB06A95E2F7809582238BBB0895413059F4FB
S1130EC028B381E090E002C0880F991F6A95E2F789
S1130ED0822B88BB089528B381E090E002C0880F7C
S1130EE0991F6A95E2F78095822388BB0895413063
S1130EF059F425B381E090E002C0880F991F6A95E8
S1130F00E2F7822B85BB089525B381E090E002C00F
S1130F10880F991F6A95E2F78095822385BB08950F
S1130F20413059F422B381E090E002C0880F991F48
S1130F306A95E2F7822B82BB089522B381E090E0A8
S1130F4002C0880F991F6A95E2F78095822382BBBD
S1130F5008958130E1F030F0823071F1833009F48A
S1130F6040C053C049B381E090E09C01062E02C00A
S1130F70220F331F0A94E2F7842F90E082239323F5
S1130F8002C0959587956A95E2F7982F3EC046B3BF
S1130F9081E090E09C01062E02C0220F331F0A94C8
S1130FA0E2F7842F90E08223932302C095958795DE
S1130FB06A95E2F7982F29C043B381E090E09C0141
S1130FC0062E02C0220F331F0A94E2F7842F90E00A
S1130FD08223932302C0959587956A95E2F7982F0B
S1130FE014C040B381E090E09C01062E02C0220FA1
S1130FF0331F0A94E2F7842F90E08223932302C0E4
S1131000959587956A95E2F7982F892F08951F93F0
S1131010CF93DF93182FD62FC0E006C04D2F6C2F2F
S1131020812F0E94CF06CF5FC430C0F3DF91CF91F0
S11310301F9108956F70813069F028F0823089F033
S11310408330B1F008958BB3807F8BBB8BB3682B57
S11310506BBB089588B3807F88BB88B3682B68BB5B
S1131060089585B3807F85BB85B3682B65BB0895E0
S113107082B3807F82BB82B3682B62BB08951F93C7
S1131080CF93DF93182FD62FC4E006C04D2F6C2FBB
S1131090812F0E94CF06CF5FC830C0F3DF91CF917C
S11310A01F910895607F813069F028F0823089F0C3
S11310B08330B1F008958BB38F708BBB8BB3682BE7
S11310C06BBB089588B38F7088BB88B3682B68BBEB
S11310D0089585B38F7085BB85B3682B65BB089570
S11310E082B38F7082BB82B3682B62BB08958EBBC0
S11310F09FBB6DBB84E08CBB8CB382608CBBE199DD
S1131100FECF08958EBB9FBB8CB381608CBB8DB327
S11311100895CF93C82F61110BC00E94070861E0A6
S11311208C2F0E943F086FE08C2F0E941A080BC07E
S113113060E00E943F0861E08C2F0E94070860EF86
S11311408C2F0E945208CF910895EF92FF920F9333
S11311501F93CF93DF93CDB7DEB760970FB6F894A4
S1131160DEBF0FBECDBFF82E80E1E0E6F0E0DE0189
S1131170119601900D928A95E1F7662361F1E12CB5
S113118059C060EF8F2D0E94520840E064E06E0D5C
S11311908F2D0E943C0700E008C0602F8F2D0E9415
S11311A0A907182F882319F00F5F0430B0F3111129
S11311B010C0EE2DF0E0EE0FFF1FEE0FFF1F81E0D9
S11311C090E08C0F9D1FE80FF91FE00FF11D808147
S11311D035C0E39401C0E12C93E09E1590F68FEFA7
S11311E02DC06FE08F2D0E941A0840E06E2D8F2DC8
S11311F00E943C0700E009C064E0600F8F2D0E944C
S1131200A907182F882319F00F5F0430A8F31111D0
S113121010C0EE2DF0E0EE0FFF1FEE0FFF1F81E078
S113122090E08C0F9D1FE80FF91FE00FF11D8081E6
S113123005C0E39493E09E15A0F68FEF60960FB679
S1131240F894DEBF0FBECDBFDF91CF911F910F91F8
S1131250FF90EF90089541E063E081E00E943C0735
S113126083EF91E00197F1F700C0000040E063E0F4
S113127081E00E943C070895CF93C82F40E060E0CE
S113128081E00E943C0740E061E081E00E943C076D
S11312906C2F80E00E9452080E942B096C2F6295EB
S11312A0607F80E00E9452080E942B09CF9108952C
S11312B08FE493EC0197F1F700C0000041E061E096
S11312C081E00E94CF0641E060E081E00E94CF0609
S11312D041E063E081E00E94CF0661E080E00E948B
S11312E03F0882E00E943C0985EA9EE00197F1F7FD
S11312F000C0000088E20E943C0989EF90E0019759
S1131300F1F700C000008EE00E943C0989EF90E0F4
S11313100197F1F700C0000081E00E943C0983ECD2
S113132099E00197F1F700C0000086E00E943C09B3
S11313300895CF93C82F40E060E081E00E943C070D
S113134041E061E081E00E943C076C2F80E00E9454
S113135052080E942B096C2F6295607F80E00E94E6
S113136052080E942B09CF910895CF93DF93EC018B
S113137003C00E949909219688818111FACFDF91D7
S1131380CF9108950F931F93CF93DF93CDB7DEB71B
S113139027970FB6F894DEBF0FBECDBF9F938F93F0
S11313A07F936F9383E195E09F938F938E010F5FFB
S11313B01F4F1F930F930E94AB12C8010E94B509DF
S11313C00FB6F894DEBF0FBECDBF27960FB6F894C4
S11313D0DEBF0FBECDBFDF91CF911F910F91089556
S11313E081E00E943C0983EC99E00197F1F700C089
S11313F000000895813019F48FE7860F0CC0823005
S113140019F48FEB860F07C0833019F48FE8860F29
S113141002C08FEC860F0E943C09089541E00E94AF
S1131420CF06089541E00E943C07089540E00E94E1
S11314303C0708950E94920008950E94FD00BC019B
S113144080E090E00E94881120E030E040E85EE314
S11314500E9416120E945911862F089561E081E0BE
S11314600E94FA0980E295E00E94B50961E082E0F9
S11314700E94FA0981E395E00E94B50961E083E0E6
S11314800E94FA0980E495E00E94B50961E084E0D5
S11314900E94FA0981E595E00E94B5090E94CD05F4
S11314A08093AD07813349F40E94CF100E94D71076
S11314B00E94F0090E9426050895823331F40E94A7
S11314C0CF100E94D7100E94B80B089580E090E0DE
S11314D00E941A0A60E875E280E090E00E948F1092
S11314E00E94580961E082E00E9489080E94A60ACD
S11314F063E070E083E090E00E940E0A64E070E034
S113150083E090E00E940E0A65E070E081E090E0E4
S11315100E940E0A62E070E083E090E00E940E0AEE
S113152066E070E083E090E00E940E0A41E067E02C
S113153083E00E94CF060E942E0A0E94BE0F8823D9
S113154011F08330C1F780E090E0089581B38062A8
S113155081BB1DBC1CBC83EC99E097BD86BD82E8B1
S11315608FBD8BE18EBD08958B35B0F4682F70E08C
S113157080E090E00E948A112BE036E445EA5FE3C4
S11315800E94161220E030E046E353E40E94ED107E
S11315900E9459117BBD6ABD08958B35B0F4682F44
S11315A070E080E090E00E948A112BE036E445EA86
S11315B05FEB0E94161220E030E046E353E40E9401
S11315C0ED100E9459117BBD6ABD0895CF93C0E010
S11315D02EC061E082E00E94A5088093AD072FEF42
S11315E081EE94E0215080409040E1F700C000007B
S11315F08091AD078F3F69F30E9499092FE789EA2B
S113160093E0215080409040E1F700C0000063E087
S11316106C0F84E00E94FA098AE20E949909EC2F77
S1131620F0E0E055F84F8091AD078083CF5FC43080
S113163080F2CF910895CF93C0E026C061E082E0AC
S11316400E94A5088093AD072FEF81EE94E021500E
S113165080409040E1F700C000008091AD078F3FCB
S113166069F30E9499092FE789EA93E021508040A9
S11316709040E1F700C00000EC2FF0E0E854F84F90
S11316808091AD078083CF5FC430C0F2CF910895BD
S11316901F93CF93DF93182F90E00C96D82FDD0F74
S11316A0DD0FDD0FC0E010C02C2F30E0F901E8544D
S11316B0F84F60819BEA6927608370E0C9018D0F50
S11316C0911D0E947708CF5FC43070F3D12FDD0FD6
S11316D0DD0FC0E010C02C2F30E0F901E055F84FC9
S11316E060819BEA6927608370E0C9018D0F911DB9
S11316F00E947708CF5FC43070F3DF91CF911F91C0
S11317000895FF920F931F93CF93DF93F82E90E0E9
S11317100C96082F000F000F000F10E00DC0C12F12
S1131720D0E0CE01800F911D0E948208CC54D84F86
S11317309BEA892788831F5F143088F30F2D000FDD
S1131740000F10E00DC0C12FD0E0CE01800F911D1D
S11317500E948208CF53D84F9BEA892788831F5F52
S1131760143088F3DF91CF911F910F91FF9008956A
S113177080E590E00E9482088093C507882309F4DD
S11317806EC080E695E00E94B50961E082E00E94A7
S1131790FA0980E795E00E94B5090E941B0B61E0FD
S11317A083E00E94FA0983E795E00E94B50961E0AD
S11317B084E00E94FA0980E795E00E94B5090E943E
S11317C0E60A80E00E94480B0E94F00984E895E054
S11317D00E94B50961E082E00E94FA0988EB95E075
S11317E00E94B5092FEF81EE94E021508040904093
S11317F0E1F700C0000060E070E080E590E00E9446
S1131800770880E590E00E9482088093C5070E94D3
S1131810F0098FE895E00E94B50961E082E00E943A
S1131820FA098EE995E00E94B50961E083E00E941F
S1131830FA0980E795E00E94B5090E94CD058093DE
S1131840CA072FE789EA93E0215080409040E1F7EE
S113185000C000008091CA078093C70708950E94C2
S1131860F0098FE895E00E94B50961E082E00E94EA
S1131870FA098EE995E00E94B50961E083E00E94CF
S1131880FA0980E795E00E94B5090E94CD0580938E
S1131890CA072FE789EA93E0215080409040E1F79E
S11318A000C000008091CA078093C7070895809103
S11318B0C707811102C081E0089580E008950E9465
S11318C0F00961E082E00E94FA098BEA95E00E9447
S11318D0B50961E083E00E94FA0987EB95E00E9474
S11318E0B5092FEF84E39CE0215080409040E1F75C
S11318F000C000000E94F00985EC95E00E94B50943
S113190061E082E00E94FA098EE995E00E94B5093F
S113191061E083E00E94FA0980E795E00E94B5093E
S11319200E94CD058093AD072FE789EA93E021500B
S113193080409040E1F700C000008091AD07813302
S113194019F40E94ED0C0895823319F40E94DC0E00
S113195008950E94F00985EA90E00E94B50908956F
S11319600E94F00983ED95E00E94B50961E082E0F0
S11319700E94FA0982EE95E00E94B50961E083E0D5
S11319800E94FA098DEE95E00E94B5090E94CD05EA
S11319908093CA072FE78AE196E021508040904067
S11319A0E1F700C000008091CA07823339F0833325
S11319B041F0813349F40E940B0108950E94A50D62
S11319C008950E945F0C08950E94F00985EA90E052
S11319D00E94B5090E94B00C089580E00E94810B1A
S11319E00E94F00987EF95E00E94B50961E082E06A
S11319F00E94FA0980E795E00E94B5090E941B0B3A
S1131A001092AF0720E012C0822F90E0FC01E8544E
S1131A10F84F3081FC01EC54F84F8081381305C035
S1131A208091AF078F5F8093AF072F5F243060F3FF
S1131A3061E083E00E94FA0987E096E00E94B5091C
S1131A4061E084E00E94FA0980E795E00E94B5090C
S1131A500E94E60A1092C00720E012C0822F90E094
S1131A60FC01E055F84F3081FC01EF53F84F8081C1
S1131A70381305C08091C0078F5F8093C0072F5F24
S1131A80243060F30E94F0098091C007843071F51E
S1131A908091AF07843051F563E070E083E090E01B
S1131AA00E94120A64E070E083E090E00E94160A4B
S1131AB065E070E083E090E00E94160A87E196E01A
S1131AC00E94B5092FE78AE196E0215080409040BA
S1131AD0E1F700C000001092AB070E94F00988E211
S1131AE096E00E94B5090E94B00C25C08091AB0716
S1131AF08F5F8093AB0784E396E00E94B50961E0B1
S1131B0082E00E94FA0983E496E00E94B50961E04C
S1131B1083E00E94FA098BE496E00E94B509809163
S1131B20AB0763E070E0681B7109072E000C880B9B
S1131B30990B0E94C2092FEF80E792E02150804068
S1131B409040E1F700C0000008950E94F00986E586
S1131B5096E00E94B50961E083E00E94FA0981E6FB
S1131B6096E00E94B5090E94CD058093C8072FEF27
S1131B7081EE94E0215080409040E1F700C00000E5
S1131B800E94F0098DE696E00E94B50961E082E0CA
S1131B900E94FA0980E795E00E94B5090E941B0B98
S1131BA061E083E00E94FA0983E795E00E94B509A9
S1131BB061E084E00E94FA0980E795E00E94B5099B
S1131BC00E94E60A8091C8070E94480B0E94F0090F
S1131BD08AE796E00E94B50961E082E00E94FA0972
S1131BE088EB95E00E94B5092FE78AE196E0215041
S1131BF080409040E1F700C000000E94B00C0895BE
S1131C000E94F00986E896E00E94B50961E082E04E
S1131C100E94FA0986E996E00E94B50961E083E032
S1131C200E94FA0986EA96E00E94B5090E94CD0551
S1131C308093CA072FE789EA93E0215080409040BF
S1131C40E1F700C000008091CA07823339F0833382
S1131C5041F0813349F40E94460E08950E947001B8
S1131C6008950E945F0C08950E94F00987E095E0B2
S1131C700E94B5092FE78AE196E021508040904008
S1131C80E1F700C000000E94000E0895C1E08FEF4C
S1131C908093AD078C2F90E0FC013197E830F1057B
S1131CA0B0F7E559FF4F0C94A5120E94F00980EBA0
S1131CB096E00E94B50961E082E00E94FA0981EC95
S1131CC096E00E94B50961E083E00E94FA0982ED82
S1131CD096E00E94B50961E084E00E94FA0982EE70
S1131CE096E00E94B5090E94CD058093AD072FEFC1
S1131CF081EE94E0215080409040E1F700C0000064
S1131D008091AD07813341F1823341F1833341F155
S1131D10843341F1853341F1863341F1803351F409
S1131D200E94570C813019F40E940B0120C00E94BC
S1131D30000E1DC08F3FD9F00E94F00987E095E0A6
S1131D400E94B5092FE78AE196E021508040904037
S1131D50E1F700C000000BC0C3E009C0C4E007C045
S1131D60C5E005C0C6E003C0C7E001C0C8E080917B
S1131D70AD078053873008F098CF89CF83E00E9465
S1131D80E705C1E084CF84E00E94E705C1E07FCF8E
S1131D9085E00E94E705C1E07ACF86E00E94E7056E
S1131DA0C1E075CF87E00E94E705C1E070CF88E00D
S1131DB00E94E705C1E06BCF0E94F0098FEE96E028
S1131DC00E94B50961E082E00E94FA098DEF96E075
S1131DD00E94B50961E083E00E94FA098CE097E073
S1131DE00E94B50961E084E00E94FA098BEE96E056
S1131DF00E94B5090E94CD058093C8070E94810BFB
S1131E002FEF81EE94E0215080409040E1F700C034
S1131E1000000E94F0098BE197E00E94B50961E09F
S1131E2082E00E94FA0980E795E00E94B5090E94C9
S1131E301B0B1092AF0720E012C0822F90E0FC0130
S1131E40E854F84F3081FC01EC54F84F808138138A
S1131E5005C08091AF078F5F8093AF072F5F243059
S1131E6060F361E083E00E94FA0987E096E00E9453
S1131E70B50961E084E00E94FA0980E795E00E94D8
S1131E80B5090E94E60A1092C00720E012C0822F12
S1131E9090E0FC01E055F84F3081FC01EF53F84F1E
S1131EA08081381305C08091C0078F5F8093C0077D
S1131EB02F5F243060F30E94F0098091C0078430C2
S1131EC071F58091AF07843051F564E070E083E0F0
S1131ED090E00E94120A63E070E083E090E00E94C8
S1131EE0160A65E070E083E090E00E94160A87E13C
S1131EF096E00E94B5092FE78AE196E021508040E0
S1131F009040E1F700C000001092AB070E94F00976
S1131F1088E296E00E94B5090E94000E25C08091D7
S1131F20AB078F5F8093AB0784E396E00E94B5090B
S1131F3061E082E00E94FA0983E496E00E94B50918
S1131F4061E083E00E94FA098BE496E00E94B509FF
S1131F508091AB0763E070E0681B7109072E000CE9
S1131F60880B990B0E94C2092FEF80E792E0215061
S1131F7080409040E1F700C0000008958091CA07B6
S1131F80813329F41092C7070E94ED0C10C08233EC
S1131F9031F481E08093C7070E94DC0E08C00E94E0
S1131FA0F0098AE297E00E94B5090E94B80B80917B
S1131FB0AB07833059F50E94F00987E397E00E944C
S1131FC0B50965E070E081E090E00E94120A64E0E7
S1131FD070E083E090E00E94160A63E070E083E022
S1131FE090E00E94160A41E067E083E00E943C070B
S1131FF02FEF81E19AE7215080409040E1F700C043
S1132000000040E067E083E00E943C078091AB075A
S113201008950E94F00985E497E00E94B509809133
S1132020AA07813029F48FE497E00E94B50906C01D
S1132030811104C084E597E00E94B50961E082E063
S11320400E94FA098AE597E00E94B50961E083E0FD
S11320500E94FA098AE697E00E94B50961E084E0EB
S11320600E94FA098DEF94E00E94B5092FE78AE1F6
S113207096E0215080409040E1F700C000000E94AB
S1132080CD058093AD072FEF81EE94E02150804081
S11320909040E1F700C000008091AD078133B9F4AE
S11320A00E94F0098BE797E00E94B5098AE590E069
S11320B00E94B40A2FEF89E698E1215080409040B5
S11320C0E1F700C0000081E08093AA0725C08233B5
S11320D0B1F40E94F0098CE897E00E94B5098AE502
S11320E090E00E94CD0A2FEF89E698E121508040CC
S11320F09040E1F700C000001092AA070DC08033A1
S113210019F40E940B0108C00E94F0098DE997E0C0
S11321100E94B5090E9409100E940B01089520B580
S11321202F7720BD20B52F7B20BDDC01CB01880F8C
S1132130991FAA1FBB1F880F991FAA1FBB1F9C01B1
S1132140AD01220F331F441F551F220F331F441F9D
S1132150551F60E072E18AE790E00E9483122150EB
S1132160310980B5826080BD80B5846080BD8AB14C
S11321708B7F8AB980B58F7E80BD80B58F7D80BD11
S113218080B5886080BD8AB188608AB98AB180616F
S11321908AB980B5806880BD30BD29B908955D9B3A
S11321A0FECF8CB908955F9BFECF8CB108958AB1A0
S11321B080648AB908958AB180688AB90895CF93F2
S11321C0DF93EC0103C00E94CF1021968881811116
S11321D0FACFDF91CF9108955058BB27AA270E94C8
S11321E004110C94DC110E94CE1138F00E94D51118
S11321F020F039F49F3F19F426F40C94CB110EF41B
S1132200E095E7FB0C94C511E92F0E94ED1158F3FA
S1132210BA17620773078407950720F079F4A6F5C7
S11322200C940F120EF4E0950B2EBA2FA02D0B0177
S1132230B90190010C01CA01A0011124FF27591B07
S113224099F0593F50F4503E68F11A16F040A22F0D
S1132250232F342F4427585FF3CF4695379527957E
S1132260A795F0405395C9F77EF41F16BA0B620B7D
S1132270730B840BBAF09150A1F0FF0FBB1F661FC4
S1132280771F881FC2F70EC0BA0F621F731F841F07
S113229048F4879577956795B795F7959E3F08F02D
S11322A0B0CF9395880F08F09927EE0F97958795EF
S11322B008950E94F51188F09F5798F0B92F992737
S11322C0B751B0F0E1F0660F771F881F991F1AF01D
S11322D0BA95C9F714C0B13091F00E940F12B1E061
S11322E008950C940F12672F782F8827B85F39F060
S11322F0B93FCCF3869577956795B395D9F73EF4B6
S113230090958095709561957F4F8F4F9F4F08955D
S1132310E89409C097FB3EF490958095709561957B
S11323207F4F8F4F9F4F9923A9F0F92F96E9BB2731
S11323309395F695879577956795B795F111F8CFAD
S1132340FAF4BB0F11F460FF1BC06F5F7F4F8F4F18
S11323509F4F16C0882311F096E911C0772321F00E
S11323609EE8872F762F05C0662371F096E8862FA6
S113237070E060E02AF09A95660F771F881FDAF7FD
S1132380880F9695879597F9089597F99F6780E840
S113239070E060E008959FEF80EC089500240A94B3
S11323A01616170618060906089500240A9412162C
S11323B01306140605060895092E0394000C11F45F
S11323C0882352F0BB0F40F4BF2B11F460FF04C00C
S11323D06F5F7F4F8F4F9F4F089557FD9058440F65
S11323E0551F59F05F3F71F04795880F97FB991F70
S11323F061F09F3F79F0879508951216130614062D
S1132400551FF2CF4695F1DF08C0161617061806B9
S1132410991FF1CF86957105610508940895E89494
S1132420BB2766277727CB0197F908950E942912C5
S11324300C94DC110E94CE1138F00E94D51120F0CA
S1132440952311F00C94C5110C94CB1111240C9408
S113245010120E94ED1170F3959FC1F3950F50E097
S1132460551F629FF001729FBB27F00DB11D639F42
S1132470AA27F00DB11DAA1F649F6627B00DA11DE8
S1132480661F829F2227B00DA11D621F739FB00D8E
S1132490A11D621F839FA00D611D221F749F3327FE
S11324A0A00D611D231F849F600D211D822F762F97
S11324B06A2F11249F5750409AF0F1F088234AF074
S11324C0EE0FFF1FBB1F661F771F881F91505040E0
S11324D0A9F79E3F510580F00C94C5110C9410127D
S11324E05F3FE4F3983ED4F3869577956795B79567
S11324F0F795E7959F5FC1F7FE2B880F911D969581
S1132500879597F90895A1E21A2EAA1BBB1BFD011A
S11325100DC0AA1FBB1FEE1FFF1FA217B307E407BE
S1132520F50720F0A21BB30BE40BF50B661F771F16
S1132530881F991F1A9469F76095709580959095F6
S11325409B01AC01BD01CF010895EE0FFF1F059063
S1132550F491E02D0994AEE0B0E0E1EBF2E10C94EB
S11325606C150D891E8986E08C831A8309838FEF8D
S11325709FE79E838D83AE01475E5F4F6F89788DA1
S1132580CE0101960E94CD12EF81F885E00FF11F74
S113259010822E96E4E00C948815ABE0B0E0E3EDF5
S11325A0F2E10C945E156C017B018A01FC01178237
S11325B01682838181FFCCC1CE0101963C01F601D4
S11325C09381F70193FD859193FF81917F01882386
S11325D009F4BAC1853239F493FD859193FF819151
S11325E07F01853229F4B60190E00E94C414E7CF3C
S11325F0912C212C312CFFE1F315D8F08B3279F09A
S113260038F4803279F08332A1F4232D20611DC087
S11326108D3261F0803369F4232D216016C0832D3F
S11326208260382EE32DE4603E2E2AC0F32DF8603C
S11326301DC037FC2DC020ED280F2A3040F08E320B
S1132640B9F436FC81C1232D2064322E19C036FE24
S113265006C08AE0989E200D1124922E11C0EAE053
S11326602E9E200D1124222EF32DF0623F2E08C041
S11326708C3621F4832D8068382E02C0883641F4CC
S1132680F70193FD859193FF81917F018111B3CF70
S1132690982F9F7D9554933028F40C5F1F4F9FE330
S11326A099830DC0833631F0833771F0833509F097
S11326B059C021C0F801808189830E5F1F4F88248F
S11326C08394912C530113C02801F2E04F0E511C46
S11326D0F801A080B18036FE03C0692D70E002C00D
S11326E06FEF7FEFC5010E94B9144C018201F32DF5
S11326F0FF773F2E16C0280122E0420E511CF8013C
S1132700A080B18036FE03C0692D70E002C06FEF77
S11327107FEFC5010E94AE144C01F32DF0683F2EEB
S1132720820133FC1BC0822D90E088169906B0F418
S1132730B60180E290E00E94C4142A94F4CFF5011B
S113274037FC859137FE81915F01B60190E00E94CC
S1132750C41421102A9421E0821A9108811491044E
S113276071F7E8C0843611F0893641F5F80137FE77
S113277007C060817181828193810C5F1F4F08C003
S113278060817181072E000C880B990B0E5F1F4F1F
S1132790F32DFF763F2E97FF09C090958095709595
S11327A061957F4F8F4F9F4FF0683F2E2AE030E0B6
S11327B0A3010E940015882E861845C0853731F480
S11327C0232D2F7EB22E2AE030E025C0932D997F51
S11327D0B92E8F36C1F018F4883579F0B5C080373A
S11327E019F0883721F0B0C0E92FE061BE2EB4FEA5
S11327F00DC0FB2DF460BF2E09C034FE0AC0292F82
S11328002660B22E06C028E030E005C020E130E0AA
S113281002C020E132E0F801B7FE07C06081718197
S1132820828193810C5F1F4F06C06081718180E0BB
S113283090E00E5F1F4FA3010E940015882E86189A
S1132840FB2DFF773F2E36FE0DC0232D2E7FA22EAB
S1132850891458F434FE0BC032FC09C0832D8E7EDB
S1132860A82E05C0B82CA32C03C0B82C01C0B92CC9
S1132870A4FE0FC0FE01E80DF11D8081803321F418
S11328809A2D997EA92E09C0A2FE06C0B394B394D2
S113289004C08A2D867809F0B394A3FC11C0A0FE6D
S11328A006C0B21488F4280C922C9B180EC0B214E3
S11328B060F4B60180E290E00E94C414B394F7CFB0
S11328C0B21418F42B1802C0982C212CA4FE10C0AA
S11328D0B60180E390E00E94C414A2FE17C0A1FCDC
S11328E003C088E790E002C088E590E0B6010CC020
S11328F08A2D867859F0A1FE02C08BE201C080E2E5
S1132900A7FC8DE2B60190E00E94C414891438F447
S1132910B60180E390E00E94C4149A94F7CF8A949D
S1132920F301E80DF11D8081B60190E00E94C4140A
S11329308110F5CF222009F442CEB60180E290E066
S11329400E94C4142A94F6CFF6018681978102C0AE
S11329508FEF9FEF2B96E2E10C947A15FC01059022
S1132960615070400110D8F7809590958E0F9F1F8D
S11329700895FC016150704001900110D8F78095D2
S113298090958E0F9F1F08950F931F93CF93DF93FE
S1132990FB01238121FD03C08FEF9FEF2CC022FF99
S11329A016C046815781248135814217530744F468
S11329B0A081B1819D012F5F3F4F318320838C9390
S11329C0268137812F5F3F4F3783268314C08B01C5
S11329D0EC01FB010084F185E02D0995892BE1F6DA
S11329E0D80116968D919C911797019617969C93F2
S11329F08E931697CE01DF91CF911F910F91089579
S1132A00FA01AA27283051F1203181F1E8946F931B
S1132A106E7F6E5F7F4F8F4F9F4FAF4FB1E03ED0C1
S1132A20B4E03CD0670F781F891F9A1FA11D680F5F
S1132A30791F8A1F911DA11D6A0F711D811D911D92
S1132A40A11D20D009F468943F912AE0269F112407
S1132A503019305D3193DEF6CF010895462F47706B
S1132A60405D4193B3E00FD0C9F7F6CF462F4F70C6
S1132A70405D4A3318F0495D31FD4052419302D024
S1132A80A9F7EACFB4E0A6959795879577956795CA
S1132A90BA95C9F700976105710508959B01AC01CA
S1132AA00A2E06945795479537952795BA95C9F7F1
S1132AB0620F731F841F951FA01D08952F923F92CC
S1132AC04F925F926F927F928F929F92AF92BF923A
S1132AD0CF92DF92EF92FF920F931F93CF93DF93E6
S1132AE0CDB7DEB7CA1BDB0B0FB6F894DEBF0FBE43
S1132AF0CDBF09942A88398848885F846E847D8490
S1132B008C849B84AA84B984C884DF80EE80FD8091
S1132B100C811B81AA81B981CE0FD11D0FB6F89407
S1112B20DEBF0FBECDBFED010895F894FFCFC8
S1132B2E37383941343536423132334345304D44EA
S1132B3E312E4F70656E20646F6F7200322E526F9D
S1132B4E6F6D204C69676874696E6700332E416936
S1132B5E7220636F6E646974696F6E00342E5265F1
S1132B6E7475726E0057726F6E672043686F696377
S1132B7E650054656D7065726174757265203D00F3
S1132B8E430046414E204F4E200050726573732011
S1132B9E3020746F204261636B0046414E204F46D5
S1132BAE46200052313A205A2026207A20202052E4
S1132BBE323A20422026206220202052333A2046E8
S1132BCE2026206620202052343A204420262064D9
S1132BDE20202052353A2045202620652052363AB0
S1132BEE204720262067202020302E546F20526547
S1132BFE7475726E0052313A204F4E00312E4F7062
S1132C0E656E6E696E6720446F6F72202000322EDF
S1132C1E526F6F6D204C69676874696E672020006F
S1132C2E332E41697220636F6E646974696F6E200E
S1132C3E2000342E52657475726E202020202020C0
S1132C4E202000312E436F6E74726F6C20486F6DAE
S1132C5E652020202020202000322E41646420751F
S1132C6E7365722020202020202020202020003375
S1132C7E2E4C6F67206F757420202020202020207A
S1132C8E2020202000436F7272656374205061739C
S1132C9E73776F7264202020202020202020202093
S1132CAE2020202020202020202020202020202012
S1132CBE2020202020202020202020202020202002
S1132CCE20202020202020202020202020202020F2
S1132CDE200050617373776F72642057726F6E6742
S1132CEE20002032200020312000203020004C6FA4
S1132CFE636B206D6F6465212100456E74657220CF
S1132D0E557365722000456E74657220506173733D
S1132D1E776F72640041697220636F6E64697469BF
S1132D2E6F6E204F4E202020202020202020202097
S1132D3E2020202020202020202020202020202081
S1132D4E2020202020202020202020202020202071
S1132D5E202020202020200041697220636F6E64A1
S1132D6E6974696F6E206F666620202020202020F3
S1132D7E2020202020202020202020202020202041
S1132D8E2020202020202020202020202020202031
S1132D9E20202020202020202000312E526F6F6D05
S1132DAE204C69676874696E67202020322E416951
S1132DBE7220636F6E646974696F6E202020332EE7
S1132DCE4C6F674F757400456E746572205573654C
S1132DDE7220496420002074726965732072656DD7
S1132DEE61696E7320007072657373204120666F83
S1132DFE722041646D696E204C6F67696E202620C7
S1132E0E5520666F722055736572206C6F67696EFC
S1132E1E005072657373204120666F722041646D99
S1132E2E696E204C6F67696E2026205520666F727E
S1132E3E2075736572206C6F67696E0055736572C9
S1132E4E20416464656420537563636573736675AA
S1132E5E6C6C79202020202020202020202020206F
S1132E6E2020202020202020202020202020202050
S1132E7E2020202020202020202020202020202040
S1132E8E2000312E206F70656E2054686520646FAB
S1132E9E6F7220202020322E436C6F73652074686D
S1132EAE6520646F6F7220202020302E5265747559
S1132EBE726E0054686520646F6F72206973206FA0
S1132ECE70656E202020202020202020202020200D
S1132EDE20202020202020202020202020202020E0
S1132EEE20202020202020202020202020202020D0
S1132EFE20202020202020202020202020202020C0
S1132F0E20200054686520646F6F722069732063FB
S1132F1E6C6F736564202020202020202020202028
S1132F2E202020202020202020202020202020208F
S1132F3E202020202020202020202020202020207F
S1132F4E202020202020202020202020202020206F
S1132F5E2000526F6F6D31205374617475733A0093
S1132F6E526F6F6D32205374617475733A00526FE1
S1132F7E6F6D33205374617475733A00526F6F6DB5
S1132F8E34205374617475733A00526F6F6D35202B
S1132F9E5374617475733A00526F6F6D36205374A7
S1132FAE617475733A004F4646003E3E20312D4FF4
S1132FBE6E20003E3E20322D4F666620003E3E209F
S1132FCE302D524554200057726F6E6720696E7013
S1132FDE757400256400257325642E253034640031
S1132FEE2057656C636F6D6520746F204F444320CA
S1132FFE00202020736D61727420686F6D6520004F
S113300E312E6C6F67696E2072656D6F74656C79A5
S113301E00322E6C6F67696E206279204B5044002B
S113302E5365742041646D696E206E616D653A005E
S113303E3E3E00706C656173652C7365742070611F
S113304E73733A0041646D696E20736574200031A8
S113305E2E41646D696E204C6F67696E2000322EAE
S113306E55736572204C6F67696E00204C6F6765EF
S113307E64204F7574200020537563636573736603
S113308E756C6C7900312E41646D696E204C6F67DE
S113309E696E00312E436F6E74726F6C20486F6DC3
S11330AE6500322E416464207573657200332E4CB4
S11330BE4F47204F757400456E74657220557365C5
S11330CE726E616D653A00456E746572205061735F
S11330DE73776F72643A00436F7272656374205033
S11330EE617373776F7264004C6F636B204F7065FE
S11330FE6E65640057726F6E672070617373776FBD
S113310E7264006F7220757365720052656D20745F
S113311E696D65733A0020204164642055736572AD
S113312E00536574207573657220494400536574A9
S113313E20757365726E616D6500757365722061BD
S113314E646465642000312E526F6F6D204C696784
S113315E6874696E6700322E41697220436F6E6423
S113316E6974696F6E00332E4C6F67204F7574004F
S113317E313A526F6F6D3120323A526F6F6D322089
S113318E00333A526F6F6D3320343A526F6F6D3491
S113319E2000353A526F6F6D3520363A526F6F6D8F
S11331AE3600303A52657475726E203E3E20002011
S11331BE2055736572204C4F47494E2000494420D8
S11331CE66726F6D2028302D39292000456E746586
S11331DE7220557365722049442000456E746572E1
S11331EE20757365726E616D650057526F6E672040
S11331FE63686F696365004C6F636B6564204D6F24
S113320E6465212100444F4F522049533A20004F08
S113321E50454E00434C4F5345003E3E20312D6FDA
S113322E70656E20646F6F7220003E3E20322D63F7
S113323E6C6F736520646F6F722000646F6F722001
S113324E6F70656E696E672D2D2D2D00646F6F7214
S113325E20636C6F73696E672D2D2D2D0077726F41
S10D326E6E6720696E70757400002D
S903177075
