S01D0000736D6172745F686F6D655F6D61737465725F4F44432E73726563B8
S11300000C9432000C9447000C9447000C94470065
S11300100C9447000C9447000C9447000C94470040
S11300200C9447000C9447000C9447000C94470030
S11300300C9447000C9447000C9447000C94470020
S11300400C9447000C9447000C9447000C94470010
S11300500C9447005800600067006E0077007E0033
S11300608700900011241FBECFE5D8E0DEBFCDBFCE
S113007010E0A0E6B0E0E8E7FEE002C005900D92D3
S1130080A03CB107D9F70E94BE020C943A070C9425
S11300900000E82F87B1807E87B98E2F90E08830EA
S11300A0910508F045C0FC01E65DFF4F0C944A043D
S11300B040E060E080E00E94B10087B187B938C0B9
S11300C040E061E080E00E94B100389A31C040E035
S11300D062E080E00E94B100399A2AC040E063E007
S11300E080E00E94B10087B1836087B921C040E0FD
S11300F064E080E00E94B1003A9A1AC040E065E0F2
S113010080E00E94B10087B1856087B911C040E0EA
S113011066E080E00E94B10087B1866087B908C0BC
S113012040E067E080E00E94B10087B1876087B952
S113013086B1887F86B986B1836086B987B1887FA6
S113014087B987B1806C87B93D98359A379A0895F5
S1130150369A349BFECF349A84B125B190E0922B29
S11301600895813001F130F08230B1F1833009F427
S11301704CC00895413059F42AB381E090E002C0A4
S1130180880F991F6A95E2F7822B8ABB08952AB3D8
S113019081E090E002C0880F991F6A95E2F780958C
S11301A082238ABB0895413059F427B381E090E05B
S11301B002C0880F991F6A95E2F7822B87BB0895C6
S11301C027B381E090E002C0880F991F6A95E2F797
S11301D08095822387BB0895413059F424B381E08C
S11301E090E002C0880F991F6A95E2F7822B84BBC6
S11301F0089524B381E090E002C0880F991F6A95A6
S1130200E2F78095822384BB0895413059F421B3E9
S113021081E090E002C0880F991F6A95E2F7822B73
S113022081BB089521B381E090E002C0880F991F3B
S11302306A95E2F78095822381BB0895813001F1AC
S113024030F08230B1F1833009F44CC0089541306C
S113025059F42BB381E090E002C0880F991F6A958E
S1130260E2F7822B8BBB08952BB381E090E002C0B0
S1130270880F991F6A95E2F7809582238BBB0895B6
S1130280413059F428B381E090E002C0880F991FEF
S11302906A95E2F7822B88BB089528B381E090E049
S11302A002C0880F991F6A95E2F78095822388BB64
S11302B00895413059F425B381E090E002C0880FDD
S11302C0991F6A95E2F7822B85BB089525B381E0D7
S11302D090E002C0880F991F6A95E2F78095822307
S11302E085BB0895413059F422B381E090E002C007
S11302F0880F991F6A95E2F7822B82BB089522B377
S113030081E090E002C0880F991F6A95E2F780951A
S1130310822382BB08951F93CF93DF93182FD62F88
S1130320C4E04D2F6C2F812F0E94B100CF5FC830E5
S1130330C1F7DF91CF911F910895607F813069F0FB
S113034028F0823089F08330B1F008958BB38F7038
S11303508BBB8BB3682B6BBB089588B38F7088BB42
S113036088B3682B68BB089585B38F7085BB85B34C
S1130370682B65BB089582B38F7082BB82B3682BF0
S113038062BB089541E062E083E00E941E018FE9B0
S11303909FE00197F1F700C0000040E062E083E0D5
S11303A00E941E010895CF93C82F40E061E083E0CE
S11303B00E941E0140E060E083E00E941E016C2F59
S11303C083E00E949D010E94C2016C2F6295607FB0
S11303D083E00E949D010E94C201CF9108952FEFF6
S11303E081EE94E0215080409040E1F700C000008D
S11303F041E060E083E00E94B10041E061E083E01D
S11304000E94B10041E062E083E00E94B10061E03B
S113041083E00E948B0182E00E94D3018FE295E782
S11304200197F1F700C0000088E20E94D3018FEC2D
S113043097E00197F1F700C000008EE00E94D3011D
S11304408FEC97E00197F1F700C0000081E00E9473
S1130450D3018FE19EE40197F1F700C0000086E02C
S11304600E94D3010895CF93C82F40E061E083E058
S11304700E941E0141E060E083E00E941E016C2F97
S113048083E00E949D010E94C2016C2F6295607FEF
S113049083E00E949D010E94C201CF910895CF93F1
S11304A0DF93EC018881882331F021960E94330286
S11304B089918111FBCFDF91CF9108950F931F9301
S11304C0CF93DF93CDB7DEB727970FB6F894DEBF8F
S11304D00FBECDBF9F938F937F936F9380E690E081
S11304E09F938F938E010F5F1F4F1F930F930E9453
S11304F05004C8010E944F020FB6F894DEBF0FBE2D
S1130500CDBF27960FB6F894DEBF0FBECDBFDF91E7
S1130510CF911F910F91089581E00E94D3018FE143
S11305209EE40197F1F700C000000895813019F4AA
S11305308FE7860F0CC0823019F48FEB860F07C04B
S1130540833019F48FE8860F02C08FEC860F0E9467
S1130550D30108950E94490008950E94A800BC0197
S113056080E090E00E944F0320E030E040E85EE34A
S11305700E94DD030E942003862F089541E060E07D
S113058081E00E94B1000E94EF0180E00E94AA0273
S113059080E790E00E944F0261E082E00E949602B0
S11305A08CE790E00E944F0261E083E00E94960293
S11305B086E890E00E944F0261E084E00E94960287
S11305C083E990E00E944F020E948C02D1E001C0B6
S11305D0DC2F0E94AD02C82F8D17D9F361E081E0B2
S11305E00E9496028EE990E00E944F026C2F70E008
S11305F080E090E00E945E028CEA90E00E944F024C
S1130600C93170F061E082E00E9496028EEA90E0C7
S11306100E944F0241E060E081E00E941E01D8CFB9
S1130620C631B0F661E082E00E94960286EB90E06B
S11306300E944F0240E060E081E00E941E01C8CFAA
S11306400E94BC0388F09F5798F0B92F9927B7519F
S1130650B0F0E1F0660F771F881F991F1AF0BA9562
S1130660C9F714C0B13091F00E94D603B1E00895E7
S11306700C94D603672F782F8827B85F39F0B93FD9
S1130680CCF3869577956795B395D9F73EF4909515
S11306908095709561957F4F8F4F9F4F0895E89493
S11306A009C097FB3EF490958095709561957F4FB6
S11306B08F4F9F4F9923A9F0F92F96E9BB27939564
S11306C0F695879577956795B795F111F8CFFAF474
S11306D0BB0F11F460FF1BC06F5F7F4F8F4F9F4FA5
S11306E016C0882311F096E911C0772321F09EE803
S11306F0872F762F05C0662371F096E8862F70E069
S113070060E02AF09A95660F771F881FDAF7880F42
S11307109695879597F9089597F99F6780E870E013
S113072060E008959FEF80EC089500240A94161663
S1130730170618060906089500240A9412161306CB
S1130740140605060895092E0394000C11F4882359
S113075052F0BB0F40F4BF2B11F460FF04C06F5F75
S11307607F4F8F4F9F4F089557FD9058440F551F4B
S113077059F05F3F71F04795880F97FB991F61F01F
S11307809F3F79F087950895121613061406551F96
S1130790F2CF4695F1DF08C0161617061806991F02
S11307A0F1CF86957105610508940895E894BB27F7
S11307B066277727CB0197F908950E94F0030C94DC
S11307C0A3030E94950338F00E949C0320F0952314
S11307D011F00C948C030C94920311240C94D70301
S11307E00E94B40370F3959FC1F3950F50E0551F19
S11307F0629FF001729FBB27F00DB11D639FAA2772
S1130800F00DB11DAA1F649F6627B00DA11D661FC0
S1130810829F2227B00DA11D621F739FB00DA11DE1
S1130820621F839FA00D611D221F749F3327A00D9B
S1130830611D231F849F600D211D822F762F6A2F37
S113084011249F5750409AF0F1F088234AF0EE0F9C
S1130850FF1FBB1F661F771F881F91505040A9F7C9
S11308609E3F510580F00C948C030C94D7035F3F9A
S1130870E4F3983ED4F3869577956795B795F79505
S1130880E7959F5FC1F7FE2B880F911D969587957D
S113089097F90895EE0FFF1F0590F491E02D099448
S11308A0AEE0B0E0E6E5F4E00C9411070D891E8992
S11308B086E08C831A8309838FEF9FE79E838D8361
S11308C0AE01475E5F4F6F89788DCE0101960E941D
S11308D07204EF81F885E00FF11F10822E96E4E098
S11308E00C942D07ABE0B0E0E8E7F4E00C940307C8
S11308F06C017B018A01FC0117821682838181FFCE
S1130900CCC1CE0101963C01F6019381F70193FD20
S1130910859193FF81917F01882309F4BAC18532BF
S113092039F493FD859193FF81917F01853229F4F8
S1130930B60190E00E946906E7CF912C212C312C5E
S1130940FFE1F315D8F08B3279F038F4803279F086
S11309508332A1F4232D20611DC08D3261F08033D8
S113096069F4232D216016C0832D8260382EE32D77
S1130970E4603E2E2AC0F32DF8601DC037FC2DC064
S113098020ED280F2A3040F08E32B9F436FC81C1B4
S1130990232D2064322E19C036FE06C08AE0989EAC
S11309A0200D1124922E11C0EAE02E9E200D112458
S11309B0222EF32DF0623F2E08C08C3621F4832DB5
S11309C08068382E02C0883641F4F70193FD859182
S11309D093FF81917F018111B3CF982F9F7D95540F
S11309E0933028F40C5F1F4F9FE399830DC0833627
S11309F031F0833771F0833509F059C021C0F80113
S1130A00808189830E5F1F4F88248394912C530126
S1130A1013C02801F2E04F0E511CF801A080B180F0
S1130A2036FE03C0692D70E002C06FEF7FEFC50191
S1130A300E945E064C018201F32DFF773F2E16C003
S1130A40280122E0420E511CF801A080B18036FE3C
S1130A5003C0692D70E002C06FEF7FEFC5010E94F3
S1130A6053064C01F32DF0683F2E820133FC1BC06A
S1130A70822D90E088169906B0F4B60180E290E0E9
S1130A800E9469062A94F4CFF50137FC859137FE5C
S1130A9081915F01B60190E00E94690621102A94B9
S1130AA021E0821A91088114910471F7E8C0843618
S1130AB011F0893641F5F80137FE07C06081718174
S1130AC0828193810C5F1F4F08C060817181072E62
S1130AD0000C880B990B0E5F1F4FF32DFF763F2EF2
S1130AE097FF09C090958095709561957F4F8F4FC2
S1130AF09F4FF0683F2E2AE030E0A3010E94A50634
S1130B00882E861845C0853731F4232D2F7EB22ECA
S1130B102AE030E025C0932D997FB92E8F36C1F09D
S1130B2018F4883579F0B5C0803719F0883721F08A
S1130B30B0C0E92FE061BE2EB4FE0DC0FB2DF46001
S1130B40BF2E09C034FE0AC0292F2660B22E06C06B
S1130B5028E030E005C020E130E002C020E132E0CE
S1130B60F801B7FE07C060817181828193810C5FB7
S1130B701F4F06C06081718180E090E00E5F1F4FBF
S1130B80A3010E94A506882E8618FB2DFF773F2E11
S1130B9036FE0DC0232D2E7FA22E891458F434FE68
S1130BA00BC032FC09C0832D8E7EA82E05C0B82C44
S1130BB0A32C03C0B82C01C0B92CA4FE0FC0FE01A5
S1130BC0E80DF11D8081803321F49A2D997EA92EA0
S1130BD009C0A2FE06C0B394B39404C08A2D8678DB
S1130BE009F0B394A3FC11C0A0FE06C0B21488F4AB
S1130BF0280C922C9B180EC0B21460F4B60180E24B
S1130C0090E00E946906B394F7CFB21418F42B183D
S1130C1002C0982C212CA4FE10C0B60180E390E001
S1130C200E946906A2FE17C0A1FC03C088E790E0F9
S1130C3002C088E590E0B6010CC08A2D867859F090
S1130C40A1FE02C08BE201C080E2A7FC8DE2B601E6
S1130C5090E00E946906891438F4B60180E390E0BC
S1130C600E9469069A94F7CF8A94F301E80DF11D66
S1130C708081B60190E00E9469068110F5CF2220A0
S1130C8009F442CEB60180E290E00E9469062A94FB
S1130C90F6CFF6018681978102C08FEF9FEF2B96E6
S1130CA0E2E10C941F07FC010590615070400110B3
S1130CB0D8F7809590958E0F9F1F0895FC01615081
S1130CC0704001900110D8F7809590958E0F9F1F6A
S1130CD008950F931F93CF93DF93FB01238121FD8D
S1130CE003C08FEF9FEF2CC022FF16C046815781AF
S1130CF0248135814217530744F4A081B1819D01B9
S1130D002F5F3F4F318320838C93268137812F5F60
S1130D103F4F3783268314C08B01EC01FB01008411
S1130D20F185E02D0995892BE1F6D80116968D9170
S1130D309C911797019617969C938E931697CE01C4
S1130D40DF91CF911F910F910895FA01AA272830BE
S1130D5051F1203181F1E8946F936E7F6E5F7F4F84
S1130D608F4F9F4FAF4FB1E03ED0B4E03CD0670F00
S1130D70781F891F9A1FA11D680F791F8A1F911D53
S1130D80A11D6A0F711D811D911DA11D20D009F4A3
S1130D9068943F912AE0269F11243019305D3193E5
S1130DA0DEF6CF010895462F4770405D4193B3E0CE
S1130DB00FD0C9F7F6CF462F4F70405D4A3318F075
S1130DC0495D31FD4052419302D0A9F7EACFB4E026
S1130DD0A6959795879577956795BA95C9F70097DE
S1130DE06105710508959B01AC010A2E069457957F
S1130DF0479537952795BA95C9F7620F731F841FD6
S1130E00951FA01D08952F923F924F925F926F926B
S1130E107F928F929F92AF92BF92CF92DF92EF9286
S1130E20FF920F931F93CF93DF93CDB7DEB7CA1B07
S1130E30DB0B0FB6F894DEBF0FBECDBF09942A8832
S1130E40398848885F846E847D848C849B84AA84DA
S1130E50B984C884DF80EE80FD800C811B81AA8167
S1130E60B981CE0FD11D0FB6F894DEBF0FBECDBF32
S10B0E70ED010895F894FFCF91
S1130E782564002D00257325642E25302E34640046
S1130E88312E446F6F72204C6F636B00322E4169B0
S1130E9872206F666600332E62757A7A6572206FE7
S1130EA8666600342E54656D70206F66660054655E
S1130EB86D7065726174757265203D00430046412A
S1130EC84E204F4E200046414E204F4646200000FB
S9030000FC
